LD 201765 000002250509/07/2018094248FSR4011000009060122228/06/201828/07/201828/06/201812049462FACT ACH  806505-SODIPA  C3         85978VI00    0             0000000               8597828/07/2018             0                       0                       0                       0             
LD 201765 000002250509/07/2018094248GEN6075000009060122228/06/201828/07/201828/06/201812049462FACT ACH                 D3         22560  02 2000         22560000000456302             0                       0                       0                       0                       0             
LD 201765 000002250509/07/2018094248GEN6075000009060122228/06/201828/07/201828/06/201812049462FACT ACH                 D3         49088  02 2000         49088000000456305             0                       0                       0                       0                       0             
LD 201765 000002250509/07/2018094248TVA4456600009060122228/06/201828/07/201828/06/201812049462TVA FACT ACH             D3         14330  02 2000         71648000000                   0                       0                       0                       0                       0             
LD 201865 000002250509/07/2018094248FSR4011000009051506501/07/201815/08/201803/07/201801049593FACT ACH  F18060075-KWATTC3        288288VI00    0             0000000              28828815/08/2018             0                       0                       0                       0             
LD 201865 000002250509/07/2018094248GEN6075000009051506501/07/201815/08/201803/07/201801049593FACT ACH                 D3        262080  07 1000        262080000000454305             0                       0                       0                       0                       0             
LD 201865 000002250509/07/2018094248TVA4456600009051506501/07/201815/08/201803/07/201801049593TVA FACT ACH             D3         26208  07 1000        262080000000                   0                       0                       0                       0                       0             
LD 201865 000002250509/07/2018094248FSR4011000009060165302/07/201815/08/201805/07/201801049594FACT ACH  FA1801973-TADE C3         59688VI00    0             0000000               5968815/08/2018             0                       0                       0                       0             
LD 201865 000002250509/07/2018094248GEN6075000009060165302/07/201815/08/201805/07/201801049594FACT ACH                 D3         49740  02 2000         49740000000453302             0                       0                       0                       0                       0             
LD 201865 000002250509/07/2018094248TVA4456600009060165302/07/201815/08/201805/07/201801049594TVA FACT ACH             D3          9948  02 2000         49740000000                   0                       0                       0                       0                       0             
LD 201865 000002250509/07/2018094248FSR4011000009060035404/07/201815/08/201806/07/201801049595FACT ACH  44347-SILVACANEC3         31973VI00    0             0000000               3197315/08/2018             0                       0                       0                       0             
LD 201865 000002250509/07/2018094248GEN6075000009060035404/07/201815/08/201806/07/201801049595FACT ACH                 D3         13720  02 2000         13720000000453302             0                       0                       0                       0                       0             
LD 201865 000002250509/07/2018094248GEN6075000009060035404/07/201815/08/201806/07/201801049595FACT ACH                 D3          2364  02 2000          2364000000453303             0                       0                       0                       0                       0             
LD 201865 000002250509/07/2018094248GEN6075000009060035404/07/201815/08/201806/07/201801049595FACT ACH                 D3         10560  02 2000         10560000000453305             0                       0                       0                       0                       0             
LD 201865 000002250509/07/2018094248TVA4456600009060035404/07/201815/08/201806/07/201801049595TVA FACT ACH             D3          5329  02 2000         26644000000                   0                       0                       0                       0                       0             
