LD 201765 000002253210/07/2018191243FSR4011000009002157101/06/201815/06/201801/06/201812046403FACT ACH  4395684-OASE   C3        274169VI00    0             0000000              27416915/06/2018             0                       0                       0                       0             
LD 201765 000002253210/07/2018191243GEN6075000009002157101/06/201815/06/201801/06/201812046403FACT ACH                 D3          9472  07 1000          9472000000460310             0                       0                       0                       0                       0             
LD 201765 000002253210/07/2018191243GEN6075000009002157101/06/201815/06/201801/06/201812046403FACT ACH                 D3        216642  02 2000        216642000000460306             0                       0                       0                       0                       0             
LD 201765 000002253210/07/2018191243GEN6075000009002157101/06/201815/06/201801/06/201812046403FACT ACH                 D3          2360  02 2000          2360000000460310             0                       0                       0                       0                       0             
LD 201765 000002253210/07/2018191243TVA4456600009002157101/06/201815/06/201801/06/201812046403TVA FACT ACH             D3         45695  02 2000        228474000000                   0                       0                       0                       0                       0             
LD 201765 000002253210/07/2018191243FSR4011000009060148401/06/201830/06/201801/06/201812048279FACT ACH  62286-COMTES PRC3         48384VI00    0             0000000               4838430/06/2018             0                       0                       0                       0             
LD 201765 000002253210/07/2018191243GEN6075000009060148401/06/201830/06/201801/06/201812048279FACT ACH                 D3         39685  03  550         39685000000460308             0                       0                       0                       0                       0             
LD 201765 000002253210/07/2018191243GEN6075000009060148401/06/201830/06/201801/06/201812048279FACT ACH                 D3          2527  07 1000          2527000000460310             0                       0                       0                       0                       0             
LD 201765 000002253210/07/2018191243GEN6075000009060148401/06/201830/06/201801/06/201812048279FACT ACH                 D3          3650  02 2000          3650000000460308             0                       0                       0                       0                       0             
LD 201765 000002253210/07/2018191243TVA4456600009060148401/06/201830/06/201801/06/201812048279TVA FACT ACH             D3          2522  03  550         45862000000                   0                       0                       0                       0                       0             
LD 201765 000002253210/07/2018191243FSR4011000009060156522/06/201820/07/201822/06/201812049474FACT ACH  20180651893-EVIC3         56095VI00    0             0000000               5609520/07/2018             0                       0                       0                       0             
LD 201765 000002253210/07/2018191243GEN6075000009060156522/06/201820/07/201822/06/201812049474FACT ACH                 D3         46954  07 1000         46954000000455307             0                       0                       0                       0                       0             
LD 201765 000002253210/07/2018191243GEN6075000009060156522/06/201820/07/201822/06/201812049474FACT ACH                 D3          1859  07 1000          1859000000455310             0                       0                       0                       0                       0             
LD 201765 000002253210/07/2018191243GEN6075000009060156522/06/201820/07/201822/06/201812049474FACT ACH                 D3          2000  02 2000          2000000000455310             0                       0                       0                       0                       0             
LD 201765 000002253210/07/2018191243TVA4456600009060156522/06/201820/07/201822/06/201812049474TVA FACT ACH             D3           400  02 2000          2000000000                   0                       0                       0                       0                       0             
LD 201765 000002253210/07/2018191243TVA4456600009060156522/06/201820/07/201822/06/201812049474TVA FACT ACH             D3          4882  07 1000         48813000000                   0                       0                       0                       0                       0             
LD 201765 000002253210/07/2018191243FSR4011000009002157121/06/201815/08/201830/06/201812049485FACT ACH  4494335-COMPTAGC3        132106VI00    0             0000000              13210615/08/2018             0                       0                       0                       0             
LD 201765 000002253210/07/2018191243GEN6075000009002157121/06/201815/08/201830/06/201812049485FACT ACH                 D3          6884  07 1000          6884000000453307             0                       0                       0                       0                       0             
LD 201765 000002253210/07/2018191243GEN6075000009002157121/06/201815/08/201830/06/201812049485FACT ACH                 D3         73710  02 2000         73710000000453306             0                       0                       0                       0                       0             
LD 201765 000002253210/07/2018191243GEN6075000009002157121/06/201815/08/201830/06/201812049485FACT ACH                 D3         25440  02 2000         25440000000453307             0                       0                       0                       0                       0             
LD 201765 000002253210/07/2018191243GEN6075000009002157121/06/201815/08/201830/06/201812049485FACT ACH                 D3          4054  02 2000          4054000000453310             0                       0                       0                       0                       0             
LD 201765 000002253210/07/2018191243TVA4456600009002157121/06/201815/08/201830/06/201812049485TVA FACT ACH             D3         22018  02 2000        110088000000                   0                       0                       0                       0                       0             
LD 201765 000002253210/07/2018191243FSR4011000009060041330/06/201831/07/201830/06/201812049508FACT ACH  00534571-LFO   C3          6317VI00    0             0000000                631731/07/2018             0                       0                       0                       0             
LD 201765 000002253210/07/2018191243GEN6075000009060041330/06/201831/07/201830/06/201812049508FACT ACH                 D3          3269  03  550          3269000000453308             0                       0                       0                       0                       0             
LD 201765 000002253210/07/2018191243GEN6075000009060041330/06/201831/07/201830/06/201812049508FACT ACH                 D3          2719  02 2000          2719000000453310             0                       0                       0                       0                       0             
LD 201765 000002253210/07/2018191243TVA4456600009060041330/06/201831/07/201830/06/201812049508TVA FACT ACH             D3           329  03  550          5988000000                   0                       0                       0                       0                       0             
LD 201765 000002253210/07/2018191243FSR4011000009002157128/06/201826/08/201828/06/201812049537FACT ACH  4502475-ROYAL CC3        150515VI00    0             0000000              15051526/08/2018             0                       0                       0                       0             
LD 201765 000002253210/07/2018191243GEN6075000009002157128/06/201826/08/201828/06/201812049537FACT ACH                 D3        116996  02 2000        116996000000451307             0                       0                       0                       0                       0             
LD 201765 000002253210/07/2018191243GEN6075000009002157128/06/201826/08/201828/06/201812049537FACT ACH                 D3          8433  02 2000          8433000000451310             0                       0                       0                       0                       0             
LD 201765 000002253210/07/2018191243TVA4456600009002157128/06/201826/08/201828/06/201812049537TVA FACT ACH             D3         25086  02 2000        125429000000                   0                       0                       0                       0                       0             
LD 201765 000002253210/07/2018191243FSR4011000009060046630/06/201831/07/201830/06/201812049602FACT ACH  111379692-ARTERC3        119630VI00    0             0000000              11963031/07/2018             0                       0                       0                       0             
LD 201765 000002253210/07/2018191243GEN6075000009060046630/06/201831/07/201830/06/201812049602FACT ACH                 C3          2000  07 1000          2000000000453310             0                       0                       0                       0                       0             
LD 201765 000002253210/07/2018191243GEN6075000009060046630/06/201831/07/201830/06/201812049602FACT ACH                 D3         90426  07 1000         90426000000453313             0                       0                       0                       0                       0             
LD 201765 000002253210/07/2018191243GEN6075000009060046630/06/201831/07/201830/06/201812049602FACT ACH                 D3          3000  02 2000          3000000000453306             0                       0                       0                       0                       0             
LD 201765 000002253210/07/2018191243GEN6075000009060046630/06/201831/07/201830/06/201812049602FACT ACH                 D3         15800  02 2000         15800000000453313             0                       0                       0                       0                       0             
LD 201765 000002253210/07/2018191243TVA4456600009060046630/06/201831/07/201830/06/201812049602TVA FACT ACH             D3          3360  02 2000         16800000000                   0                       0                       0                       0                       0             
LD 201765 000002253210/07/2018191243TVA4456600009060046630/06/201831/07/201830/06/201812049602TVA FACT ACH             D3          9044  07 1000         90426000000                   0                       0                       0                       0                       0             
LD 201865 000002253210/07/2018191243FSR4011000009002611903/07/201830/07/201803/07/201801049611FACT ACH  3322028575-BUTAC3        109972VI00    0             0000000              10997230/07/2018             0                       0                       0                       0             
LD 201865 000002253210/07/2018191243GEN6075000009002611903/07/201830/07/201803/07/201801049611FACT ACH                 D3         91643  02 2000         91643000000466305             0                       0                       0                       0                       0             
LD 201865 000002253210/07/2018191243TVA4456600009002611903/07/201830/07/201803/07/201801049611TVA FACT ACH             D3         18329  02 2000         91643000000                   0                       0                       0                       0                       0             
LD 201765 000002253210/07/2018191243FSR4011000009060147129/06/201831/07/201829/06/201812049612FACT ACH  18060159-GRAPSUC3        233589VI00    0             0000000              23358931/07/2018             0                       0                       0                       0             
LD 201765 000002253210/07/2018191243GEN6075000009060147129/06/201831/07/201829/06/201812049612FACT ACH                 D3          3192  03  550          3192000000450308             0                       0                       0                       0                       0             
LD 201765 000002253210/07/2018191243GEN6075000009060147129/06/201831/07/201829/06/201812049612FACT ACH                 D3          3192  03  550          3192000000451308             0                       0                       0                       0                       0             
LD 201765 000002253210/07/2018191243GEN6075000009060147129/06/201831/07/201829/06/201812049612FACT ACH                 D3          3192  03  550          3192000000452308             0                       0                       0                       0                       0             
LD 201765 000002253210/07/2018191243GEN6075000009060147129/06/201831/07/201829/06/201812049612FACT ACH                 D3          3192  03  550          3192000000453308             0                       0                       0                       0                       0             
LD 201765 000002253210/07/2018191243GEN6075000009060147129/06/201831/07/201829/06/201812049612FACT ACH                 D3          3192  03  550          3192000000454308             0                       0                       0                       0                       0             
LD 201765 000002253210/07/2018191243GEN6075000009060147129/06/201831/07/201829/06/201812049612FACT ACH                 D3          3192  03  550          3192000000456308             0                       0                       0                       0                       0             
LD 201765 000002253210/07/2018191243GEN6075000009060147129/06/201831/07/201829/06/201812049612FACT ACH                 D3          3192  03  550          3192000000457308             0                       0                       0                       0                       0             
LD 201765 000002253210/07/2018191243GEN6075000009060147129/06/201831/07/201829/06/201812049612FACT ACH                 D3          6384  03  550          6384000000460308             0                       0                       0                       0                       0             
LD 201765 000002253210/07/2018191243GEN6075000009060147129/06/201831/07/201829/06/201812049612FACT ACH                 D3          3192  03  550          3192000000461308             0                       0                       0                       0                       0             
LD 201765 000002253210/07/2018191243GEN6075000009060147129/06/201831/07/201829/06/201812049612FACT ACH                 D3          3192  03  550          3192000000466308             0                       0                       0                       0                       0             
LD 201765 000002253210/07/2018191243GEN6075000009060147129/06/201831/07/201829/06/201812049612FACT ACH                 D3          9216  02 2000          9216000000452308             0                       0                       0                       0                       0             
LD 201765 000002253210/07/2018191243GEN6075000009060147129/06/201831/07/201829/06/201812049612FACT ACH                 D3         10902  02 2000         10902000000453308             0                       0                       0                       0                       0             
LD 201765 000002253210/07/2018191243GEN6075000009060147129/06/201831/07/201829/06/201812049612FACT ACH                 D3          9216  02 2000          9216000000456308             0                       0                       0                       0                       0             
LD 201765 000002253210/07/2018191243GEN6075000009060147129/06/201831/07/201829/06/201812049612FACT ACH                 D3          7656  02 2000          7656000000459308             0                       0                       0                       0                       0             
LD 201765 000002253210/07/2018191243GEN6075000009060147129/06/201831/07/201829/06/201812049612FACT ACH                 D3          4608  02 2000          4608000000461308             0                       0                       0                       0                       0             
LD 201765 000002253210/07/2018191243GEN6075000009060147129/06/201831/07/201829/06/201812049612FACT ACH                 D3         30624  02 2000         30624000000466308             0                       0                       0                       0                       0             
LD 201765 000002253210/07/2018191243GEN6075000009060147129/06/201831/07/201829/06/201812049612FACT ACH                 D3         91566  02 2000         91566000000459310             0                       0                       0                       0                       0             
LD 201765 000002253210/07/2018191243TVA4456600009060147129/06/201831/07/201829/06/201812049612TVA FACT ACH             D3         32758  02 2000        163788000000                   0                       0                       0                       0                       0             
LD 201765 000002253210/07/2018191243TVA4456600009060147129/06/201831/07/201829/06/201812049612TVA FACT ACH             D3          1931  03  550         35112000000                   0                       0                       0                       0                       0             
LD 201765 000002253210/07/2018191243FSR4011000009060089127/06/201831/07/201830/06/201812049613FACT ACH  2875453-EXEL GRC3         19152VI00    0             0000000               1915231/07/2018             0                       0                       0                       0             
LD 201765 000002253210/07/2018191243GEN6075000009060089127/06/201831/07/201830/06/201812049613FACT ACH                 D3         15960  02 2000         15960000000456302             0                       0                       0                       0                       0             
LD 201765 000002253210/07/2018191243TVA4456600009060089127/06/201831/07/201830/06/201812049613TVA FACT ACH             D3          3192  02 2000         15960000000                   0                       0                       0                       0                       0             
LD 201765 000002253210/07/2018191243FSR4011000000266067026/06/201831/07/201826/06/201812049614FACT ACH  5-FREDERIC     C3         73850VI00    0             0000000               7385031/07/2018             0                       0                       0                       0             
LD 201765 000002253210/07/2018191243GEN6075000000266067026/06/201831/07/201826/06/201812049614FACT ACH                 D3         42000  03  550         42000000000452308             0                       0                       0                       0                       0             
LD 201765 000002253210/07/2018191243GEN6075000000266067026/06/201831/07/201826/06/201812049614FACT ACH                 D3         28000  03  550         28000000000452310             0                       0                       0                       0                       0             
LD 201765 000002253210/07/2018191243TVA4456600000266067026/06/201831/07/201826/06/201812049614TVA FACT ACH             D3          3850  03  550         70000000000                   0                       0                       0                       0                       0             
LD 201865 000002253210/07/2018191243FSR4011000009002157101/07/201815/08/201806/07/201801049615FACT ACH  4502522-DEROMA C3        250298VI00    0             0000000              25029815/08/2018             0                       0                       0                       0             
LD 201865 000002253210/07/2018191243GEN6075000009002157101/07/201815/08/201806/07/201801049615FACT ACH                 D3        208582  02 2000        208582000000453302             0                       0                       0                       0                       0             
LD 201865 000002253210/07/2018191243TVA4456600009002157101/07/201815/08/201806/07/201801049615TVA FACT ACH             D3         41716  02 2000        208582000000                   0                       0                       0                       0                       0             
LD 201865 000002253210/07/2018191243FSR4011000009002606904/07/201831/07/201804/07/201801049616FACT ACH  010012771046-PRC3         11714VI00    0             0000000               1171431/07/2018             0                       0                       0                       0             
LD 201865 000002253210/07/2018191243GEN6075000009002606904/07/201831/07/201804/07/201801049616FACT ACH                 D3          9762  02 2000          9762000000454305             0                       0                       0                       0                       0             
LD 201865 000002253210/07/2018191243TVA4456600009002606904/07/201831/07/201804/07/201801049616TVA FACT ACH             D3          1952  02 2000          9762000000                   0                       0                       0                       0                       0             
LD 201765 000002253210/07/2018191243FSR4011000009051570630/06/201831/07/201830/06/201812049620FACT ACH  0218006327-COLLC3         50153VI00    0             0000000               5015331/07/2018             0                       0                       0                       0             
LD 201765 000002253210/07/2018191243GEN6075000009051570630/06/201831/07/201830/06/201812049620FACT ACH                 D3         41794  02 2000         41794000000451308             0                       0                       0                       0                       0             
LD 201765 000002253210/07/2018191243TVA4456600009051570630/06/201831/07/201830/06/201812049620TVA FACT ACH             D3          8359  02 2000         41794000000                   0                       0                       0                       0                       0             
