LD 201765 000002250710/07/2018100957FSR4011000009060163430/06/201830/07/201830/06/201812049526FACT ACH  802470-DOMAIN EC3         45342VI00    0             0000000               4534230/07/2018             0                       0                       0                       0             
LD 201765 000002250710/07/2018100957GEN6075000009060163430/06/201830/07/201830/06/201812049526FACT ACH                 D3         37785  02 2000         37785000000453308             0                       0                       0                       0                       0             
LD 201765 000002250710/07/2018100957TVA4456600009060163430/06/201830/07/201830/06/201812049526TVA FACT ACH             D3          7557  02 2000         37785000000                   0                       0                       0                       0                       0             
LD 201865 000002250710/07/2018100957FSR4011000009002257105/07/201803/09/201809/07/201801049606FACT ACH  930419954      C3          9438VI00    0             0000000                943803/09/2018             0                       0                       0                       0             
LD 201865 000002250710/07/2018100957GEN6075000009002257105/07/201803/09/201809/07/201801049606FACT ACH                 D3          7865  02 2000          7865000000456307             0                       0                       0                       0                       0             
LD 201865 000002250710/07/2018100957TVA4456600009002257105/07/201803/09/201809/07/201801049606TVA FACT ACH             D3          1573  02 2000          7865000000                   0                       0                       0                       0                       0             
LD 201865 000002250710/07/2018100957FSR4011000009002257105/07/201803/09/201809/07/201801049607FACT ACH  930419959      C3        329028VI00    0             0000000              32902803/09/2018             0                       0                       0                       0             
LD 201865 000002250710/07/2018100957GEN6075000009002257105/07/201803/09/201809/07/201801049607FACT ACH                 D3           745  07 1000           745000000456306             0                       0                       0                       0                       0             
LD 201865 000002250710/07/2018100957GEN6075000009002257105/07/201803/09/201809/07/201801049607FACT ACH                 D3        103574  07 1000        103574000000456307             0                       0                       0                       0                       0             
LD 201865 000002250710/07/2018100957GEN6075000009002257105/07/201803/09/201809/07/201801049607FACT ACH                 D3         34271  02 2000         34271000000456306             0                       0                       0                       0                       0             
LD 201865 000002250710/07/2018100957GEN6075000009002257105/07/201803/09/201809/07/201801049607FACT ACH                 D3        144293  02 2000        144293000000456307             0                       0                       0                       0                       0             
LD 201865 000002250710/07/2018100957TVA4456600009002257105/07/201803/09/201809/07/201801049607TVA FACT ACH             D3         35713  02 2000        178564000000                   0                       0                       0                       0                       0             
LD 201865 000002250710/07/2018100957TVA4456600009002257105/07/201803/09/201809/07/201801049607TVA FACT ACH             D3         10432  07 1000        104319000000                   0                       0                       0                       0                       0             
LD 201865 000002250710/07/2018100957FSR4011000009002257105/07/201803/09/201809/07/201801049608FACT ACH  930419960      C3          5767VI00    0             0000000                576703/09/2018             0                       0                       0                       0             
LD 201865 000002250710/07/2018100957GEN6075000009002257105/07/201803/09/201809/07/201801049608FACT ACH                 D3          4806  02 2000          4806000000456307             0                       0                       0                       0                       0             
LD 201865 000002250710/07/2018100957TVA4456600009002257105/07/201803/09/201809/07/201801049608TVA FACT ACH             D3           961  02 2000          4806000000                   0                       0                       0                       0                       0             
LD 201865 000002250710/07/2018100957FSR4011000009002257106/07/201804/09/201809/07/201801049609FACT ACH  930420160      C3          7233VI00    0             0000000                723304/09/2018             0                       0                       0                       0             
LD 201865 000002250710/07/2018100957GEN6075000009002257106/07/201804/09/201809/07/201801049609FACT ACH                 D3          6856  03  550          6856000000459308             0                       0                       0                       0                       0             
LD 201865 000002250710/07/2018100957TVA4456600009002257106/07/201804/09/201809/07/201801049609TVA FACT ACH             D3           377  03  550          6856000000                   0                       0                       0                       0                       0             
LD 201765 000002250710/07/2018100957FSR4011000009060046630/06/201831/07/201830/06/201812049601FACT ACH  111379691-ARTERC3        540475VI00    0             0000000              54047531/07/2018             0                       0                       0                       0             
LD 201765 000002250710/07/2018100957GEN6075000009060046630/06/201831/07/201830/06/201812049601FACT ACH                 D3          6160  07 1000          6160000000466307             0                       0                       0                       0                       0             
LD 201765 000002250710/07/2018100957GEN6075000009060046630/06/201831/07/201830/06/201812049601FACT ACH                 C3          8113  07 1000          8113000000466310             0                       0                       0                       0                       0             
LD 201765 000002250710/07/2018100957GEN6075000009060046630/06/201831/07/201830/06/201812049601FACT ACH                 D3        474787  07 1000        474787000000466313             0                       0                       0                       0                       0             
LD 201765 000002250710/07/2018100957GEN6075000009060046630/06/201831/07/201830/06/201812049601FACT ACH                 C3          2000  02 2000          2000000000466306             0                       0                       0                       0                       0             
LD 201765 000002250710/07/2018100957GEN6075000009060046630/06/201831/07/201830/06/201812049601FACT ACH                 D3         18960  02 2000         18960000000466313             0                       0                       0                       0                       0             
LD 201765 000002250710/07/2018100957TVA4456600009060046630/06/201831/07/201830/06/201812049601TVA FACT ACH             D3          3392  02 2000         16960000000                   0                       0                       0                       0                       0             
LD 201765 000002250710/07/2018100957TVA4456600009060046630/06/201831/07/201830/06/201812049601TVA FACT ACH             D3         47289  07 1000        472834000000                   0                       0                       0                       0                       0             
