LD 201765 000002250609/07/2018191248FSR4011000009060204201/06/201815/07/201801/06/201812047592FACT ACH  FC001180501990-C3        140434VI00    0             0000000              14043415/07/2018             0                       0                       0                       0             
LD 201765 000002250609/07/2018191248GEN6075000009060204201/06/201815/07/201801/06/201812047592FACT ACH                 D3         23334  02 2000         23334000000452303             0                       0                       0                       0                       0             
LD 201765 000002250609/07/2018191248GEN6075000009060204201/06/201815/07/201801/06/201812047592FACT ACH                 D3         93694  02 2000         93694000000452310             0                       0                       0                       0                       0             
LD 201765 000002250609/07/2018191248TVA4456600009060204201/06/201815/07/201801/06/201812047592TVA FACT ACH             D3         23406  02 2000        117028000000                   0                       0                       0                       0                       0             
LD 201765 000002250609/07/2018191248FSR4011000009002157126/06/201826/06/201826/06/201812049423AVO ACH  4498228-AUBRY GAD3          5941VI00    0             0000000                594126/06/2018             0                       0                       0                       0             
LD 201765 000002250609/07/2018191248GEN6075000009002157126/06/201826/06/201826/06/201812049423AVO ACH                  C3          1111  02 2000          1111000000452302             0                       0                       0                       0                       0             
LD 201765 000002250609/07/2018191248GEN6075000009002157126/06/201826/06/201826/06/201812049423AVO ACH                  C3          3840  02 2000          3840000000452310             0                       0                       0                       0                       0             
LD 201765 000002250609/07/2018191248TVA4456600009002157126/06/201826/06/201826/06/201812049423TVA AVO ACH              C3           990  02 2000          4951000000                   0                       0                       0                       0                       0             
LD 201765 000002250609/07/2018191248FSR4011000009060156522/06/201820/07/201822/06/201812049473FACT ACH  20180651892-EVIC3         58488VI00    0             0000000               5848820/07/2018             0                       0                       0                       0             
LD 201765 000002250609/07/2018191248GEN6075000009060156522/06/201820/07/201822/06/201812049473FACT ACH                 D3         55189  07 1000         55189000000463307             0                       0                       0                       0                       0             
LD 201765 000002250609/07/2018191248GEN6075000009060156522/06/201820/07/201822/06/201812049473FACT ACH                 C3          3700  07 1000          3700000000463310             0                       0                       0                       0                       0             
LD 201765 000002250609/07/2018191248GEN6075000009060156522/06/201820/07/201822/06/201812049473FACT ACH                 D3          1850  02 2000          1850000000463310             0                       0                       0                       0                       0             
LD 201765 000002250609/07/2018191248TVA4456600009060156522/06/201820/07/201822/06/201812049473TVA FACT ACH             C3           370  02 2000          1850000000                   0                       0                       0                       0                       0             
LD 201765 000002250609/07/2018191248TVA4456600009060156522/06/201820/07/201822/06/201812049473TVA FACT ACH             D3          5519  07 1000         55189000000                   0                       0                       0                       0                       0             
LD 201865 000002250609/07/2018191248FSR4011000009002257105/07/201803/09/201807/07/201801049584FACT ACH  930419951      C3          8508VI00    0             0000000                850803/09/2018             0                       0                       0                       0             
LD 201865 000002250609/07/2018191248GEN6075000009002257105/07/201803/09/201807/07/201801049584FACT ACH                 D3          8064  03  550          8064000000456308             0                       0                       0                       0                       0             
LD 201865 000002250609/07/2018191248TVA4456600009002257105/07/201803/09/201807/07/201801049584TVA FACT ACH             D3           444  03  550          8064000000                   0                       0                       0                       0                       0             
LD 201865 000002250609/07/2018191248FSR4011000009002257105/07/201803/09/201806/07/201801049577FACT ACH  930419953      C3          3919VI00    0             0000000                391903/09/2018             0                       0                       0                       0             
LD 201865 000002250609/07/2018191248GEN6075000009002257105/07/201803/09/201806/07/201801049577FACT ACH                 D3          3266  02 2000          3266000000456305             0                       0                       0                       0                       0             
LD 201865 000002250609/07/2018191248TVA4456600009002257105/07/201803/09/201806/07/201801049577TVA FACT ACH             D3           653  02 2000          3266000000                   0                       0                       0                       0                       0             
LD 201865 000002250609/07/2018191248FSR4011000009002257105/07/201803/09/201807/07/201801049586FACT ACH  930419956      C3        583722VI00    0             0000000              58372203/09/2018             0                       0                       0                       0             
LD 201865 000002250609/07/2018191248GEN6075000009002257105/07/201803/09/201807/07/201801049586FACT ACH                 D3           348  03  550           348000000451308             0                       0                       0                       0                       0             
LD 201865 000002250609/07/2018191248GEN6075000009002257105/07/201803/09/201807/07/201801049586FACT ACH                 D3          2966  07 1000          2966000000451302             0                       0                       0                       0                       0             
LD 201865 000002250609/07/2018191248GEN6075000009002257105/07/201803/09/201807/07/201801049586FACT ACH                 D3         77601  07 1000         77601000000451307             0                       0                       0                       0                       0             
LD 201865 000002250609/07/2018191248GEN6075000009002257105/07/201803/09/201807/07/201801049586FACT ACH                 D3         24476  07 1000         24476000000451309             0                       0                       0                       0                       0             
LD 201865 000002250609/07/2018191248GEN6075000009002257105/07/201803/09/201807/07/201801049586FACT ACH                 D3         14351  02 2000         14351000000451301             0                       0                       0                       0                       0             
LD 201865 000002250609/07/2018191248GEN6075000009002257105/07/201803/09/201807/07/201801049586FACT ACH                 D3        177636  02 2000        177636000000451302             0                       0                       0                       0                       0             
LD 201865 000002250609/07/2018191248GEN6075000009002257105/07/201803/09/201807/07/201801049586FACT ACH                 D3          3376  02 2000          3376000000451303             0                       0                       0                       0                       0             
LD 201865 000002250609/07/2018191248GEN6075000009002257105/07/201803/09/201807/07/201801049586FACT ACH                 D3          2425  02 2000          2425000000451304             0                       0                       0                       0                       0             
LD 201865 000002250609/07/2018191248GEN6075000009002257105/07/201803/09/201807/07/201801049586FACT ACH                 D3         10334  02 2000         10334000000451305             0                       0                       0                       0                       0             
LD 201865 000002250609/07/2018191248GEN6075000009002257105/07/201803/09/201807/07/201801049586FACT ACH                 D3         17003  02 2000         17003000000451306             0                       0                       0                       0                       0             
LD 201865 000002250609/07/2018191248GEN6075000009002257105/07/201803/09/201807/07/201801049586FACT ACH                 D3        164715  02 2000        164715000000451307             0                       0                       0                       0                       0             
LD 201865 000002250609/07/2018191248TVA4456600009002257105/07/201803/09/201807/07/201801049586TVA FACT ACH             D3         77968  02 2000        389840000000                   0                       0                       0                       0                       0             
LD 201865 000002250609/07/2018191248TVA4456600009002257105/07/201803/09/201807/07/201801049586TVA FACT ACH             D3            19  03  550           348000000                   0                       0                       0                       0                       0             
LD 201865 000002250609/07/2018191248TVA4456600009002257105/07/201803/09/201807/07/201801049586TVA FACT ACH             D3         10504  07 1000        105043000000                   0                       0                       0                       0                       0             
LD 201865 000002250609/07/2018191248FSR4011000009002257105/07/201803/09/201807/07/201801049587FACT ACH  930419957      C3         16944VI00    0             0000000               1694403/09/2018             0                       0                       0                       0             
LD 201865 000002250609/07/2018191248GEN6075000009002257105/07/201803/09/201807/07/201801049587FACT ACH                 D3         12768  03  550         12768000000451308             0                       0                       0                       0                       0             
LD 201865 000002250609/07/2018191248GEN6075000009002257105/07/201803/09/201807/07/201801049587FACT ACH                 D3          2895  02 2000          2895000000451305             0                       0                       0                       0                       0             
LD 201865 000002250609/07/2018191248TVA4456600009002257105/07/201803/09/201807/07/201801049587TVA FACT ACH             D3           579  02 2000          2895000000                   0                       0                       0                       0                       0             
LD 201865 000002250609/07/2018191248TVA4456600009002257105/07/201803/09/201807/07/201801049587TVA FACT ACH             D3           702  03  550         12768000000                   0                       0                       0                       0                       0             
LD 201865 000002250609/07/2018191248FSR4011000009002257105/07/201803/09/201806/07/201801049580FACT ACH  930419968      C3         43459VI00    0             0000000               4345903/09/2018             0                       0                       0                       0             
LD 201865 000002250609/07/2018191248GEN6075000009002257105/07/201803/09/201806/07/201801049580FACT ACH                 D3         31835  02 2000         31835000000456302             0                       0                       0                       0                       0             
LD 201865 000002250609/07/2018191248GEN6075000009002257105/07/201803/09/201806/07/201801049580FACT ACH                 D3          4381  02 2000          4381000000456303             0                       0                       0                       0                       0             
LD 201865 000002250609/07/2018191248TVA4456600009002257105/07/201803/09/201806/07/201801049580TVA FACT ACH             D3          7243  02 2000         36216000000                   0                       0                       0                       0                       0             
LD 201765 000002250609/07/2018191248FSR4011000009060156529/06/201830/07/201829/06/201812049596FACT ACH  20180652707-EVIC3        168419VI00    0             0000000              16841930/07/2018             0                       0                       0                       0             
LD 201765 000002250609/07/2018191248GEN6075000009060156529/06/201830/07/201829/06/201812049596FACT ACH                 D3        132668  07 1000        132668000000461307             0                       0                       0                       0                       0             
LD 201765 000002250609/07/2018191248GEN6075000009060156529/06/201830/07/201829/06/201812049596FACT ACH                 D3         13035  02 2000         13035000000461306             0                       0                       0                       0                       0             
LD 201765 000002250609/07/2018191248GEN6075000009060156529/06/201830/07/201829/06/201812049596FACT ACH                 D3          5700  02 2000          5700000000461310             0                       0                       0                       0                       0             
LD 201765 000002250609/07/2018191248TVA4456600009060156529/06/201830/07/201829/06/201812049596TVA FACT ACH             D3          3747  02 2000         18735000000                   0                       0                       0                       0                       0             
LD 201765 000002250609/07/2018191248TVA4456600009060156529/06/201830/07/201829/06/201812049596TVA FACT ACH             D3         13269  07 1000        132668000000                   0                       0                       0                       0                       0             
LD 201765 000002250609/07/2018191248FSR4011000009060156529/06/201830/07/201829/06/201812049597FACT ACH  20180652820-EVIC3         81022VI00    0             0000000               8102230/07/2018             0                       0                       0                       0             
LD 201765 000002250609/07/2018191248GEN6075000009060156529/06/201830/07/201829/06/201812049597FACT ACH                 D3         73653  07 1000         73653000000450307             0                       0                       0                       0                       0             
LD 201765 000002250609/07/2018191248GEN6075000009060156529/06/201830/07/201829/06/201812049597FACT ACH                 D3             0  02 2000             0000000450310             0                       0                       0                       0                       0             
LD 201765 000002250609/07/2018191248TVA4456600009060156529/06/201830/07/201829/06/201812049597TVA FACT ACH             D3          7369  07 1000         73653000000                   0                       0                       0                       0                       0             
LD 201765 000002250609/07/2018191248FSR4011000009060046630/06/201831/07/201830/06/201812049598FACT ACH  111379688-ARTERC3        167682VI00    0             0000000              16768231/07/2018             0                       0                       0                       0             
LD 201765 000002250609/07/2018191248GEN6075000009060046630/06/201831/07/201830/06/201812049598FACT ACH                 D3        149165  07 1000        149165000000452313             0                       0                       0                       0                       0             
LD 201765 000002250609/07/2018191248GEN6075000009060046630/06/201831/07/201830/06/201812049598FACT ACH                 D3          3000  02 2000          3000000000452306             0                       0                       0                       0                       0             
LD 201765 000002250609/07/2018191248TVA4456600009060046630/06/201831/07/201830/06/201812049598TVA FACT ACH             D3           600  02 2000          3000000000                   0                       0                       0                       0                       0             
LD 201765 000002250609/07/2018191248TVA4456600009060046630/06/201831/07/201830/06/201812049598TVA FACT ACH             D3         14917  07 1000        149165000000                   0                       0                       0                       0                       0             
LD 201765 000002250609/07/2018191248FSR4011000009060046630/06/201831/07/201830/06/201812049599FACT ACH  111379689-ARTERC3        427098VI00    0             0000000              42709831/07/2018             0                       0                       0                       0             
LD 201765 000002250609/07/2018191248GEN6075000009060046630/06/201831/07/201830/06/201812049599FACT ACH                 D3        157215  07 1000        157215000000451307             0                       0                       0                       0                       0             
LD 201765 000002250609/07/2018191248GEN6075000009060046630/06/201831/07/201830/06/201812049599FACT ACH                 D3        217964  07 1000        217964000000451313             0                       0                       0                       0                       0             
LD 201765 000002250609/07/2018191248GEN6075000009060046630/06/201831/07/201830/06/201812049599FACT ACH                 D3         12000  02 2000         12000000000451306             0                       0                       0                       0                       0             
LD 201765 000002250609/07/2018191248TVA4456600009060046630/06/201831/07/201830/06/201812049599TVA FACT ACH             D3          2400  02 2000         12000000000                   0                       0                       0                       0                       0             
LD 201765 000002250609/07/2018191248TVA4456600009060046630/06/201831/07/201830/06/201812049599TVA FACT ACH             D3         37519  07 1000        375179000000                   0                       0                       0                       0                       0             
LD 201765 000002250609/07/2018191249FSR4011000009060046630/06/201831/07/201830/06/201812049600FACT ACH  1113766906-ARTEC3        533120VI00    0             0000000              53312031/07/2018             0                       0                       0                       0             
LD 201765 000002250609/07/2018191249GEN6075000009060046630/06/201831/07/201830/06/201812049600FACT ACH                 D3        104018  07 1000        104018000000456307             0                       0                       0                       0                       0             
LD 201765 000002250609/07/2018191249GEN6075000009060046630/06/201831/07/201830/06/201812049600FACT ACH                 D3        345017  07 1000        345017000000456313             0                       0                       0                       0                       0             
LD 201765 000002250609/07/2018191249GEN6075000009060046630/06/201831/07/201830/06/201812049600FACT ACH                 D3          5000  02 2000          5000000000456306             0                       0                       0                       0                       0             
LD 201765 000002250609/07/2018191249GEN6075000009060046630/06/201831/07/201830/06/201812049600FACT ACH                 D3         27650  02 2000         27650000000456313             0                       0                       0                       0                       0             
LD 201765 000002250609/07/2018191249TVA4456600009060046630/06/201831/07/201830/06/201812049600TVA FACT ACH             D3          6530  02 2000         32650000000                   0                       0                       0                       0                       0             
LD 201765 000002250609/07/2018191249TVA4456600009060046630/06/201831/07/201830/06/201812049600TVA FACT ACH             D3         44905  07 1000        449035000000                   0                       0                       0                       0                       0             
LD 201765 000002250609/07/2018191249FSR4011000009060046630/06/201831/07/201830/06/201812049603AVO ACH  111379694-ARTERRD3        101401VI00    0             0000000              10140131/07/2018             0                       0                       0                       0             
LD 201765 000002250609/07/2018191249GEN6075000009060046630/06/201831/07/201830/06/201812049603AVO ACH                  C3         90000  07 1000         90000000000460313             0                       0                       0                       0                       0             
LD 201765 000002250609/07/2018191249GEN6075000009060046630/06/201831/07/201830/06/201812049603AVO ACH                  C3          2000  02 2000          2000000000460306             0                       0                       0                       0                       0             
LD 201765 000002250609/07/2018191249TVA4456600009060046630/06/201831/07/201830/06/201812049603TVA AVO ACH              C3           400  02 2000          2000000000                   0                       0                       0                       0                       0             
LD 201765 000002250609/07/2018191249TVA4456600009060046630/06/201831/07/201830/06/201812049603TVA AVO ACH              C3          9001  07 1000         90000000000                   0                       0                       0                       0                       0             
LD 201765 000002250609/07/2018191249FSR4011000009060046630/06/201831/07/201830/06/201812049604FACT ACH  111379695-ARTERC3        149764VI00    0             0000000              14976431/07/2018             0                       0                       0                       0             
LD 201765 000002250609/07/2018191249GEN6075000009060046630/06/201831/07/201830/06/201812049604FACT ACH                 D3        132875  07 1000        132875000000461313             0                       0                       0                       0                       0             
LD 201765 000002250609/07/2018191249GEN6075000009060046630/06/201831/07/201830/06/201812049604FACT ACH                 D3          3000  02 2000          3000000000461306             0                       0                       0                       0                       0             
LD 201765 000002250609/07/2018191249TVA4456600009060046630/06/201831/07/201830/06/201812049604TVA FACT ACH             D3           600  02 2000          3000000000                   0                       0                       0                       0                       0             
LD 201765 000002250609/07/2018191249TVA4456600009060046630/06/201831/07/201830/06/201812049604TVA FACT ACH             D3         13289  07 1000        132875000000                   0                       0                       0                       0                       0             
