LS 2018C83000008033810/07/2018094936AGR4111000000108378009/07/201809/07/201809/07/201801634791Rgl/Fact  2626725        C4         11498  00    0             0626725                   0                       0                       0                       0                       0             
LS 2018C83000008033810/07/2018094936RGL5311018300108378009/07/201809/07/201809/07/201801634791Rgl/Facture 2626725 CARTED4         11498CB00    0             0626725                   0                       0                       0                       0                       0             
LS 2018C83000008033810/07/2018094936AGR4111000000108378009/07/201809/07/201809/07/201801634792Rgl/Fact  2626726        C4          8699  00    0             0626726                   0                       0                       0                       0                       0             
LS 2018C83000008033810/07/2018094936RGL5311018300108378009/07/201809/07/201809/07/201801634792Rgl/Facture 2626726 CARTED4          8699CB00    0             0626726                   0                       0                       0                       0                       0             
LS 2018C83000008033810/07/2018094936AGR4111000000108378009/07/201809/07/201809/07/201801634793Rgl/Avoir  2626727       D4          1959  00    0             0626727                   0                       0                       0                       0                       0             
LS 2018C83000008033810/07/2018094936RGL4197000000108378009/07/201809/07/201809/07/201801634793Rgl/Facture 2626727 AVOIRC4          1959BA00    0             0626727                   0                       0                       0                       0                       0             
LS 2018C83000008033810/07/2018094936AGR4111000000108378009/07/201809/07/201809/07/201801634794Rgl/Fact  2626728        C4          1499  00    0             0626728                   0                       0                       0                       0                       0             
LS 2018C83000008033810/07/2018094936RGL5311018300108378009/07/201809/07/201809/07/201801634794Rgl/Facture 2626728 ESPECD4          1499ES00    0             0626728                   0                       0                       0                       0                       0             
LS 2018C83000008033810/07/2018094936AGR4111000000108378009/07/201809/07/201809/07/201801634795Rgl/Fact  2626729        C4          2248  00    0             0626729                   0                       0                       0                       0                       0             
LS 2018C83000008033810/07/2018094936RGL5311018300108378009/07/201809/07/201809/07/201801634795Rgl/Facture 2626729 CARTED4          2248CB00    0             0626729                   0                       0                       0                       0                       0             
LS 2018C83000008033810/07/2018094936AGR4111000000108378009/07/201809/07/201809/07/201801634796Rgl/Fact  2626730        C4          2091  00    0             0626730                   0                       0                       0                       0                       0             
LS 2018C83000008033810/07/2018094936RGL5311018300108378009/07/201809/07/201809/07/201801634796Rgl/Facture 2626730 ESPECD4          2091ES00    0             0626730                   0                       0                       0                       0                       0             
LS 2018C83000008033810/07/2018094936AGR4111000000108378009/07/201809/07/201809/07/201801634797Rgl/Fact  2626731        C4          4485  00    0             0626731                   0                       0                       0                       0                       0             
LS 2018C83000008033810/07/2018094936RGL5311018300108378009/07/201809/07/201809/07/201801634797Rgl/Facture 2626731 CARTED4          4485CB00    0             0626731                   0                       0                       0                       0                       0             
LS 2018C83000008033810/07/2018094936AGR4111000000108378009/07/201809/07/201809/07/201801634798Rgl/Fact  2626732        C4          2089  00    0             0626732                   0                       0                       0                       0                       0             
LS 2018C83000008033810/07/2018094936RGL5311018300108378009/07/201809/07/201809/07/201801634798Rgl/Facture 2626732 CARTED4          2089CB00    0             0626732                   0                       0                       0                       0                       0             
LS 2018C83000008033810/07/2018094936AGR4111000000108378009/07/201809/07/201809/07/201801634799Rgl/Fact  2626733        C4          1596  00    0             0626733                   0                       0                       0                       0                       0             
LS 2018C83000008033810/07/2018094936RGL5311018300108378009/07/201809/07/201809/07/201801634799Rgl/Facture 2626733 CARTED4          1596CB00    0             0626733                   0                       0                       0                       0                       0             
LS 2018C83000008033810/07/2018094936AGR4111000000108378009/07/201809/07/201809/07/201801634800Rgl/Fact  2626734        C4          1085  00    0             0626734                   0                       0                       0                       0                       0             
LS 2018C83000008033810/07/2018094936RGL5311018300108378009/07/201809/07/201809/07/201801634800Rgl/Facture 2626734 CHEQUD4          1085CH00    0             0626734                   0                       0                       0                       0                       0             
LS 2018C83000008033810/07/2018094936AGR4111000000108378009/07/201809/07/201809/07/201801634801Rgl/Fact  2626735        C4          1758  00    0             0626735                   0                       0                       0                       0                       0             
LS 2018C83000008033810/07/2018094936RGL5311018300108378009/07/201809/07/201809/07/201801634801Rgl/Facture 2626735 CARTED4          1758CB00    0             0626735                   0                       0                       0                       0                       0             
LS 2018C83000008033810/07/2018094936AGR4111000000108378009/07/201809/07/201809/07/201801634802Rgl/Fact  2626736        C4           988  00    0             0626736                   0                       0                       0                       0                       0             
LS 2018C83000008033810/07/2018094936RGL5311018300108378009/07/201809/07/201809/07/201801634802Rgl/Facture 2626736 CARTED4           988CB00    0             0626736                   0                       0                       0                       0                       0             
LS 2018C83000008033810/07/2018094936AGR4111000000108378009/07/201809/07/201809/07/201801634803Rgl/Fact  2626737        C4           903  00    0             0626737                   0                       0                       0                       0                       0             
LS 2018C83000008033810/07/2018094936RGL5311018300108378009/07/201809/07/201809/07/201801634803Rgl/Facture 2626737 ESPECD4           903ES00    0             0626737                   0                       0                       0                       0                       0             
LS 2018C83000008033810/07/2018094936AGR4111000000108378009/07/201809/07/201809/07/201801634805Rgl/Fact  2626739        C4          2659  00    0             0626739                   0                       0                       0                       0                       0             
LS 2018C83000008033810/07/2018094936RGL5311018300108378009/07/201809/07/201809/07/201801634805Rgl/Facture 2626739 CHEQUD4          2659CH00    0             0626739                   0                       0                       0                       0                       0             
LS 2018C83000008033810/07/2018094936AGR4111000000108378009/07/201809/07/201809/07/201801634806Rgl/Fact  2626740        C4          1528  00    0             0626740                   0                       0                       0                       0                       0             
LS 2018C83000008033810/07/2018094936RGL5311018300108378009/07/201809/07/201809/07/201801634806Rgl/Facture 2626740 CARTED4          1528CB00    0             0626740                   0                       0                       0                       0                       0             
LS 2018C83000008033810/07/2018094936AGR4111000000108378009/07/201809/07/201809/07/201801634807Rgl/Fact  2626741        C4           600  00    0             0626741                   0                       0                       0                       0                       0             
LS 2018C83000008033810/07/2018094936RGL5311018300108378009/07/201809/07/201809/07/201801634807Rgl/Facture 2626741 CARTED4           600CB00    0             0626741                   0                       0                       0                       0                       0             
LS 2018C83000008033810/07/2018094936AGR4111000000108378009/07/201809/07/201809/07/201801634808Rgl/Fact  2626742        C4          5656  00    0             0626742                   0                       0                       0                       0                       0             
LS 2018C83000008033810/07/2018094936RGL5311018300108378009/07/201809/07/201809/07/201801634808Rgl/Facture 2626742 CARTED4          5656CB00    0             0626742                   0                       0                       0                       0                       0             
LS 2018C83000008033810/07/2018094936AGR4111000000108378009/07/201809/07/201809/07/201801634809Rgl/Fact  2626743        C4           697  00    0             0626743                   0                       0                       0                       0                       0             
LS 2018C83000008033810/07/2018094936RGL5311018300108378009/07/201809/07/201809/07/201801634809Rgl/Facture 2626743 ESPECD4           697ES00    0             0626743                   0                       0                       0                       0                       0             
LS 2018C83000008033810/07/2018094936RGL5820000001083780 09/07/201809/07/201809/07/201801634812183/Remise CH  1554835   D4          3744CH00    0             0554835                   0                       0                       0                       0                       0             
LS 2018C83000008033810/07/2018094936RGL531101830        09/07/201809/07/201809/07/201801634812183/Remise CH  1554835 CHC4          3744CH00    0             0554835                   0                       0                       0                       0                       0             
LS 2018C83000008033810/07/2018094936RGL5830000001083780 09/07/201809/07/201809/07/201801634813183/Remise CB            D4         41145CB00    0             0000000                   0                       0                       0                       0                       0             
LS 2018C83000008033810/07/2018094936RGL531101830        09/07/201809/07/201809/07/201801634813183/Remise CB   CARTE    C4         41145CB00    0             0000000                   0                       0                       0                       0                       0             
