LS 201865 000008030910/07/2018094840FSR4011000009002257104/07/201802/09/201809/07/201801852129FACT ACH  930419802      C3         47749VI00    0             0000000               4774902/09/2018             0                       0                       0                       0             
LS 201865 000008030910/07/2018094840GEN6075000009002257104/07/201802/09/201809/07/201801852129FACT ACH                 D3         45260  03  550         45260000000395308             0                       0                       0                       0                       0             
LS 201865 000008030910/07/2018094840TVA4456600009002257104/07/201802/09/201809/07/201801852129TVA FACT ACH             D3          2489  03  550         45260000000                   0                       0                       0                       0                       0             
LS 201865 000008030910/07/2018094840FSR4011000009002257104/07/201802/09/201809/07/201801852130FACT ACH  930419820      C3        112777VI00    0             0000000              11277702/09/2018             0                       0                       0                       0             
LS 201865 000008030910/07/2018094840GEN6075000009002257104/07/201802/09/201809/07/201801852130FACT ACH                 D3         10414  03  550         10414000000128308             0                       0                       0                       0                       0             
LS 201865 000008030910/07/2018094840GEN6075000009002257104/07/201802/09/201809/07/201801852130FACT ACH                 D3          3176  07 1000          3176000000128307             0                       0                       0                       0                       0             
LS 201865 000008030910/07/2018094840GEN6075000009002257104/07/201802/09/201809/07/201801852130FACT ACH                 D3           308  07 1000           308000000128309             0                       0                       0                       0                       0             
LS 201865 000008030910/07/2018094840GEN6075000009002257104/07/201802/09/201809/07/201801852130FACT ACH                 D3          4503  02 2000          4503000000128301             0                       0                       0                       0                       0             
LS 201865 000008030910/07/2018094840GEN6075000009002257104/07/201802/09/201809/07/201801852130FACT ACH                 D3         17226  02 2000         17226000000128302             0                       0                       0                       0                       0             
LS 201865 000008030910/07/2018094840GEN6075000009002257104/07/201802/09/201809/07/201801852130FACT ACH                 D3          7284  02 2000          7284000000128304             0                       0                       0                       0                       0             
LS 201865 000008030910/07/2018094840GEN6075000009002257104/07/201802/09/201809/07/201801852130FACT ACH                 D3          6274  02 2000          6274000000128305             0                       0                       0                       0                       0             
LS 201865 000008030910/07/2018094840GEN6075000009002257104/07/201802/09/201809/07/201801852130FACT ACH                 D3          2584  02 2000          2584000000128306             0                       0                       0                       0                       0             
LS 201865 000008030910/07/2018094840GEN6075000009002257104/07/201802/09/201809/07/201801852130FACT ACH                 D3         43761  02 2000         43761000000128307             0                       0                       0                       0                       0             
LS 201865 000008030910/07/2018094840TVA4456600009002257104/07/201802/09/201809/07/201801852130TVA FACT ACH             D3         16326  02 2000         81632000000                   0                       0                       0                       0                       0             
LS 201865 000008030910/07/2018094840TVA4456600009002257104/07/201802/09/201809/07/201801852130TVA FACT ACH             D3           573  03  550         10414000000                   0                       0                       0                       0                       0             
LS 201865 000008030910/07/2018094840TVA4456600009002257104/07/201802/09/201809/07/201801852130TVA FACT ACH             D3           348  07 1000          3484000000                   0                       0                       0                       0                       0             
LS 201865 000008030910/07/2018094841FSR4011000009002257104/07/201802/09/201809/07/201801852131FACT ACH  930419821      C3          7267VI00    0             0000000                726702/09/2018             0                       0                       0                       0             
LS 201865 000008030910/07/2018094841GEN6075000009002257104/07/201802/09/201809/07/201801852131FACT ACH                 D3           900  02 2000           900000000128302             0                       0                       0                       0                       0             
LS 201865 000008030910/07/2018094841GEN6075000009002257104/07/201802/09/201809/07/201801852131FACT ACH                 D3          1100  02 2000          1100000000128303             0                       0                       0                       0                       0             
LS 201865 000008030910/07/2018094841GEN6075000009002257104/07/201802/09/201809/07/201801852131FACT ACH                 D3          2788  02 2000          2788000000128305             0                       0                       0                       0                       0             
LS 201865 000008030910/07/2018094841GEN6075000009002257104/07/201802/09/201809/07/201801852131FACT ACH                 D3          1268  02 2000          1268000000128307             0                       0                       0                       0                       0             
LS 201865 000008030910/07/2018094841TVA4456600009002257104/07/201802/09/201809/07/201801852131TVA FACT ACH             D3          1211  02 2000          6056000000                   0                       0                       0                       0                       0             
LS 201865 000008030910/07/2018094841FSR4011000009002257104/07/201802/09/201809/07/201801852132FACT ACH  930419849      C3          3840VI00    0             0000000                384002/09/2018             0                       0                       0                       0             
LS 201865 000008030910/07/2018094841GEN6075000009002257104/07/201802/09/201809/07/201801852132FACT ACH                 D3          3200  02 2000          3200000000128303             0                       0                       0                       0                       0             
LS 201865 000008030910/07/2018094841TVA4456600009002257104/07/201802/09/201809/07/201801852132TVA FACT ACH             D3           640  02 2000          3200000000                   0                       0                       0                       0                       0             
LS 201865 000008030910/07/2018094841FSR4011000009002257105/07/201803/09/201809/07/201801852133FACT ACH  930419995      C3          8886VI00    0             0000000                888603/09/2018             0                       0                       0                       0             
LS 201865 000008030910/07/2018094841GEN6075000009002257105/07/201803/09/201809/07/201801852133FACT ACH                 D3          4032  03  550          4032000000394308             0                       0                       0                       0                       0             
LS 201865 000008030910/07/2018094841GEN6075000009002257105/07/201803/09/201809/07/201801852133FACT ACH                 D3          3860  02 2000          3860000000394305             0                       0                       0                       0                       0             
LS 201865 000008030910/07/2018094841TVA4456600009002257105/07/201803/09/201809/07/201801852133TVA FACT ACH             D3           772  02 2000          3860000000                   0                       0                       0                       0                       0             
LS 201865 000008030910/07/2018094841TVA4456600009002257105/07/201803/09/201809/07/201801852133TVA FACT ACH             D3           222  03  550          4032000000                   0                       0                       0                       0                       0             
LS 201865 000008030910/07/2018094841FSR4011000009002257105/07/201803/09/201809/07/201801852134FACT ACH  930419997      C3          5412VI00    0             0000000                541203/09/2018             0                       0                       0                       0             
LS 201865 000008030910/07/2018094841GEN6075000009002257105/07/201803/09/201809/07/201801852134FACT ACH                 D3          4032  03  550          4032000000220308             0                       0                       0                       0                       0             
LS 201865 000008030910/07/2018094841GEN6075000009002257105/07/201803/09/201809/07/201801852134FACT ACH                 D3           965  02 2000           965000000220305             0                       0                       0                       0                       0             
LS 201865 000008030910/07/2018094841TVA4456600009002257105/07/201803/09/201809/07/201801852134TVA FACT ACH             D3           193  02 2000           965000000                   0                       0                       0                       0                       0             
LS 201865 000008030910/07/2018094841TVA4456600009002257105/07/201803/09/201809/07/201801852134TVA FACT ACH             D3           222  03  550          4032000000                   0                       0                       0                       0                       0             
LS 201865 000008030910/07/2018094841FSR4011000009002257105/07/201803/09/201809/07/201801852135FACT ACH  930419998      C3          9855VI00    0             0000000                985503/09/2018             0                       0                       0                       0             
LS 201865 000008030910/07/2018094841GEN6075000009002257105/07/201803/09/201809/07/201801852135FACT ACH                 D3          6048  03  550          6048000000197308             0                       0                       0                       0                       0             
LS 201865 000008030910/07/2018094841GEN6075000009002257105/07/201803/09/201809/07/201801852135FACT ACH                 D3          2895  02 2000          2895000000197305             0                       0                       0                       0                       0             
LS 201865 000008030910/07/2018094841TVA4456600009002257105/07/201803/09/201809/07/201801852135TVA FACT ACH             D3           579  02 2000          2895000000                   0                       0                       0                       0                       0             
LS 201865 000008030910/07/2018094841TVA4456600009002257105/07/201803/09/201809/07/201801852135TVA FACT ACH             D3           333  03  550          6048000000                   0                       0                       0                       0                       0             
LS 201865 000008030910/07/2018094841FSR4011000009002257105/07/201803/09/201809/07/201801852136FACT ACH  930420001      C3         20982VI00    0             0000000               2098203/09/2018             0                       0                       0                       0             
LS 201865 000008030910/07/2018094841GEN6075000009002257105/07/201803/09/201809/07/201801852136FACT ACH                 D3         19888  03  550         19888000000394308             0                       0                       0                       0                       0             
LS 201865 000008030910/07/2018094841TVA4456600009002257105/07/201803/09/201809/07/201801852136TVA FACT ACH             D3          1094  03  550         19888000000                   0                       0                       0                       0                       0             
LS 201865 000008030910/07/2018094841FSR4011000009002257105/07/201803/09/201809/07/201801852137FACT ACH  930420002      C3          8594VI00    0             0000000                859403/09/2018             0                       0                       0                       0             
LS 201865 000008030910/07/2018094841GEN6075000009002257105/07/201803/09/201809/07/201801852137FACT ACH                 D3          8146  03  550          8146000000197308             0                       0                       0                       0                       0             
LS 201865 000008030910/07/2018094841TVA4456600009002257105/07/201803/09/201809/07/201801852137TVA FACT ACH             D3           448  03  550          8146000000                   0                       0                       0                       0                       0             
LS 201865 000008030910/07/2018094841FSR4011000009002257105/07/201803/09/201809/07/201801852138FACT ACH  930420003      C3          4666VI00    0             0000000                466603/09/2018             0                       0                       0                       0             
LS 201865 000008030910/07/2018094841GEN6075000009002257105/07/201803/09/201809/07/201801852138FACT ACH                 D3          3516  07 1000          3516000000220302             0                       0                       0                       0                       0             
LS 201865 000008030910/07/2018094841GEN6075000009002257105/07/201803/09/201809/07/201801852138FACT ACH                 D3           665  02 2000           665000000220302             0                       0                       0                       0                       0             
LS 201865 000008030910/07/2018094841TVA4456600009002257105/07/201803/09/201809/07/201801852138TVA FACT ACH             D3           133  02 2000           665000000                   0                       0                       0                       0                       0             
LS 201865 000008030910/07/2018094841TVA4456600009002257105/07/201803/09/201809/07/201801852138TVA FACT ACH             D3           352  07 1000          3516000000                   0                       0                       0                       0                       0             
LS 201865 000008030910/07/2018094841FSR4011000009002257105/07/201803/09/201809/07/201801852139FACT ACH  930420004      C3          1337VI00    0             0000000                133703/09/2018             0                       0                       0                       0             
LS 201865 000008030910/07/2018094841GEN6075000009002257105/07/201803/09/201809/07/201801852139FACT ACH                 D3          1114  02 2000          1114000000220302             0                       0                       0                       0                       0             
LS 201865 000008030910/07/2018094841TVA4456600009002257105/07/201803/09/201809/07/201801852139TVA FACT ACH             D3           223  02 2000          1114000000                   0                       0                       0                       0                       0             
LS 201865 000008030910/07/2018094841FSR4011000009002257105/07/201803/09/201809/07/201801852140FACT ACH  930420006      C3        292202VI00    0             0000000              29220203/09/2018             0                       0                       0                       0             
LS 201865 000008030910/07/2018094841GEN6075000009002257105/07/201803/09/201809/07/201801852140FACT ACH                 D3          4894  03  550          4894000000197308             0                       0                       0                       0                       0             
LS 201865 000008030910/07/2018094841GEN6075000009002257105/07/201803/09/201809/07/201801852140FACT ACH                 D3         27552  07 1000         27552000000197302             0                       0                       0                       0                       0             
LS 201865 000008030910/07/2018094841GEN6075000009002257105/07/201803/09/201809/07/201801852140FACT ACH                 D3          2490  07 1000          2490000000197307             0                       0                       0                       0                       0             
LS 201865 000008030910/07/2018094841GEN6075000009002257105/07/201803/09/201809/07/201801852140FACT ACH                 D3          7308  07 1000          7308000000197309             0                       0                       0                       0                       0             
LS 201865 000008030910/07/2018094841GEN6075000009002257105/07/201803/09/201809/07/201801852140FACT ACH                 D3         79726  02 2000         79726000000197302             0                       0                       0                       0                       0             
LS 201865 000008030910/07/2018094841GEN6075000009002257105/07/201803/09/201809/07/201801852140FACT ACH                 D3         16740  02 2000         16740000000197303             0                       0                       0                       0                       0             
LS 201865 000008030910/07/2018094841GEN6075000009002257105/07/201803/09/201809/07/201801852140FACT ACH                 D3         21565  02 2000         21565000000197304             0                       0                       0                       0                       0             
LS 201865 000008030910/07/2018094841GEN6075000009002257105/07/201803/09/201809/07/201801852140FACT ACH                 D3         30322  02 2000         30322000000197305             0                       0                       0                       0                       0             
LS 201865 000008030910/07/2018094841GEN6075000009002257105/07/201803/09/201809/07/201801852140FACT ACH                 D3         28487  02 2000         28487000000197306             0                       0                       0                       0                       0             
LS 201865 000008030910/07/2018094841GEN6075000009002257105/07/201803/09/201809/07/201801852140FACT ACH                 D3         28122  02 2000         28122000000197307             0                       0                       0                       0                       0             
LS 201865 000008030910/07/2018094841TVA4456600009002257105/07/201803/09/201809/07/201801852140TVA FACT ACH             D3         40992  02 2000        204962000000                   0                       0                       0                       0                       0             
LS 201865 000008030910/07/2018094841TVA4456600009002257105/07/201803/09/201809/07/201801852140TVA FACT ACH             D3           269  03  550          4894000000                   0                       0                       0                       0                       0             
LS 201865 000008030910/07/2018094841TVA4456600009002257105/07/201803/09/201809/07/201801852140TVA FACT ACH             D3          3735  07 1000         37350000000                   0                       0                       0                       0                       0             
LS 201865 000008030910/07/2018094841FSR4011000009002257105/07/201803/09/201809/07/201801852141FACT ACH  930420008      C3        663272VI00    0             0000000              66327203/09/2018             0                       0                       0                       0             
LS 201865 000008030910/07/2018094841GEN6075000009002257105/07/201803/09/201809/07/201801852141FACT ACH                 D3         44012  03  550         44012000000394308             0                       0                       0                       0                       0             
LS 201865 000008030910/07/2018094841GEN6075000009002257105/07/201803/09/201809/07/201801852141FACT ACH                 D3         34034  07 1000         34034000000394302             0                       0                       0                       0                       0             
LS 201865 000008030910/07/2018094841GEN6075000009002257105/07/201803/09/201809/07/201801852141FACT ACH                 D3          1490  07 1000          1490000000394306             0                       0                       0                       0                       0             
LS 201865 000008030910/07/2018094841GEN6075000009002257105/07/201803/09/201809/07/201801852141FACT ACH                 D3         70055  07 1000         70055000000394307             0                       0                       0                       0                       0             
LS 201865 000008030910/07/2018094841GEN6075000009002257105/07/201803/09/201809/07/201801852141FACT ACH                 D3          1670  07 1000          1670000000394309             0                       0                       0                       0                       0             
LS 201865 000008030910/07/2018094841GEN6075000009002257105/07/201803/09/201809/07/201801852141FACT ACH                 D3          5958  02 2000          5958000000394301             0                       0                       0                       0                       0             
LS 201865 000008030910/07/2018094841GEN6075000009002257105/07/201803/09/201809/07/201801852141FACT ACH                 D3        188832  02 2000        188832000000394302             0                       0                       0                       0                       0             
LS 201865 000008030910/07/2018094841GEN6075000009002257105/07/201803/09/201809/07/201801852141FACT ACH                 D3         26503  02 2000         26503000000394303             0                       0                       0                       0                       0             
LS 201865 000008030910/07/2018094841GEN6075000009002257105/07/201803/09/201809/07/201801852141FACT ACH                 D3          2979  02 2000          2979000000394304             0                       0                       0                       0                       0             
LS 201865 000008030910/07/2018094841GEN6075000009002257105/07/201803/09/201809/07/201801852141FACT ACH                 D3          8800  02 2000          8800000000394305             0                       0                       0                       0                       0             
LS 201865 000008030910/07/2018094841GEN6075000009002257105/07/201803/09/201809/07/201801852141FACT ACH                 D3         77580  02 2000         77580000000394306             0                       0                       0                       0                       0             
LS 201865 000008030910/07/2018094841GEN6075000009002257105/07/201803/09/201809/07/201801852141FACT ACH                 D3        105069  02 2000        105069000000394307             0                       0                       0                       0                       0             
LS 201865 000008030910/07/2018094841TVA4456600009002257105/07/201803/09/201809/07/201801852141TVA FACT ACH             D3         83144  02 2000        415721000000                   0                       0                       0                       0                       0             
LS 201865 000008030910/07/2018094841TVA4456600009002257105/07/201803/09/201809/07/201801852141TVA FACT ACH             D3          2421  03  550         44012000000                   0                       0                       0                       0                       0             
LS 201865 000008030910/07/2018094841TVA4456600009002257105/07/201803/09/201809/07/201801852141TVA FACT ACH             D3         10725  07 1000        107249000000                   0                       0                       0                       0                       0             
LS 201865 000008030910/07/2018094841FSR4011000009002257105/07/201803/09/201809/07/201801852142FACT ACH  930420009      C3         26478VI00    0             0000000               2647803/09/2018             0                       0                       0                       0             
LS 201865 000008030910/07/2018094841GEN6075000009002257105/07/201803/09/201809/07/201801852142FACT ACH                 D3         10178  02 2000         10178000000394302             0                       0                       0                       0                       0             
LS 201865 000008030910/07/2018094841GEN6075000009002257105/07/201803/09/201809/07/201801852142FACT ACH                 D3         10151  02 2000         10151000000394303             0                       0                       0                       0                       0             
LS 201865 000008030910/07/2018094841GEN6075000009002257105/07/201803/09/201809/07/201801852142FACT ACH                 D3           530  02 2000           530000000394305             0                       0                       0                       0                       0             
LS 201865 000008030910/07/2018094841GEN6075000009002257105/07/201803/09/201809/07/201801852142FACT ACH                 D3          1206  02 2000          1206000000394306             0                       0                       0                       0                       0             
LS 201865 000008030910/07/2018094841TVA4456600009002257105/07/201803/09/201809/07/201801852142TVA FACT ACH             D3          4413  02 2000         22065000000                   0                       0                       0                       0                       0             
LS 201865 000008030910/07/2018094841FSR4011000009002257105/07/201803/09/201809/07/201801852143FACT ACH  930420010      C3         48708VI00    0             0000000               4870803/09/2018             0                       0                       0                       0             
LS 201865 000008030910/07/2018094841GEN6075000009002257105/07/201803/09/201809/07/201801852143FACT ACH                 D3         40590  02 2000         40590000000394305             0                       0                       0                       0                       0             
LS 201865 000008030910/07/2018094841TVA4456600009002257105/07/201803/09/201809/07/201801852143TVA FACT ACH             D3          8118  02 2000         40590000000                   0                       0                       0                       0                       0             
LS 201865 000008030910/07/2018094841FSR4011000009002257105/07/201803/09/201809/07/201801852144FACT ACH  930420015      C3        195557VI00    0             0000000              19555703/09/2018             0                       0                       0                       0             
LS 201865 000008030910/07/2018094841GEN6075000009002257105/07/201803/09/201809/07/201801852144FACT ACH                 D3         18508  07 1000         18508000000197302             0                       0                       0                       0                       0             
LS 201865 000008030910/07/2018094841GEN6075000009002257105/07/201803/09/201809/07/201801852144FACT ACH                 D3           745  07 1000           745000000197306             0                       0                       0                       0                       0             
LS 201865 000008030910/07/2018094841GEN6075000009002257105/07/201803/09/201809/07/201801852144FACT ACH                 D3         22595  07 1000         22595000000197307             0                       0                       0                       0                       0             
LS 201865 000008030910/07/2018094841GEN6075000009002257105/07/201803/09/201809/07/201801852144FACT ACH                 D3          3930  07 1000          3930000000197313             0                       0                       0                       0                       0             
LS 201865 000008030910/07/2018094841GEN6075000009002257105/07/201803/09/201809/07/201801852144FACT ACH                 D3         33590  02 2000         33590000000197302             0                       0                       0                       0                       0             
LS 201865 000008030910/07/2018094841GEN6075000009002257105/07/201803/09/201809/07/201801852144FACT ACH                 D3         11904  02 2000         11904000000197303             0                       0                       0                       0                       0             
LS 201865 000008030910/07/2018094841GEN6075000009002257105/07/201803/09/201809/07/201801852144FACT ACH                 D3         29213  02 2000         29213000000197304             0                       0                       0                       0                       0             
LS 201865 000008030910/07/2018094841GEN6075000009002257105/07/201803/09/201809/07/201801852144FACT ACH                 D3          4950  02 2000          4950000000197305             0                       0                       0                       0                       0             
LS 201865 000008030910/07/2018094841GEN6075000009002257105/07/201803/09/201809/07/201801852144FACT ACH                 D3          8728  02 2000          8728000000197306             0                       0                       0                       0                       0             
LS 201865 000008030910/07/2018094841GEN6075000009002257105/07/201803/09/201809/07/201801852144FACT ACH                 D3         32616  02 2000         32616000000197307             0                       0                       0                       0                       0             
LS 201865 000008030910/07/2018094841TVA4456600009002257105/07/201803/09/201809/07/201801852144TVA FACT ACH             D3         24200  02 2000        121001000000                   0                       0                       0                       0                       0             
LS 201865 000008030910/07/2018094841TVA4456600009002257105/07/201803/09/201809/07/201801852144TVA FACT ACH             D3          4578  07 1000         45778000000                   0                       0                       0                       0                       0             
LS 201865 000008030910/07/2018094841FSR4011000009002257106/07/201804/09/201809/07/201801852145FACT ACH  930420256      C3          3914VI00    0             0000000                391404/09/2018             0                       0                       0                       0             
LS 201865 000008030910/07/2018094841GEN6075000009002257106/07/201804/09/201809/07/201801852145FACT ACH                 D3          3710  03  550          3710000000395308             0                       0                       0                       0                       0             
LS 201865 000008030910/07/2018094841TVA4456600009002257106/07/201804/09/201809/07/201801852145TVA FACT ACH             D3           204  03  550          3710000000                   0                       0                       0                       0                       0             
LS 201865 000008030910/07/2018094841FSR4011000009002257106/07/201804/09/201809/07/201801852146FACT ACH  930420260      C3          6868VI00    0             0000000                686804/09/2018             0                       0                       0                       0             
LS 201865 000008030910/07/2018094841GEN6075000009002257106/07/201804/09/201809/07/201801852146FACT ACH                 D3          6510  03  550          6510000000265308             0                       0                       0                       0                       0             
LS 201865 000008030910/07/2018094841TVA4456600009002257106/07/201804/09/201809/07/201801852146TVA FACT ACH             D3           358  03  550          6510000000                   0                       0                       0                       0                       0             
LS 201765 000008030910/07/2018094841FSR4011000009060046630/06/201831/07/201830/06/201812852109FACT ACH  111379654-ALIMEC3        852697VI00    0             0000000              85269731/07/2018             0                       0                       0                       0             
LS 201765 000008030910/07/2018094841GEN6075000009060046630/06/201831/07/201830/06/201812852109FACT ACH                 D3         89411  07 1000         89411000000117307             0                       0                       0                       0                       0             
LS 201765 000008030910/07/2018094841GEN6075000009060046630/06/201831/07/201830/06/201812852109FACT ACH                 D3        575482  07 1000        575482000000117313             0                       0                       0                       0                       0             
LS 201765 000008030910/07/2018094841GEN6075000009060046630/06/201831/07/201830/06/201812852109FACT ACH                 D3         20000  02 2000         20000000000117306             0                       0                       0                       0                       0             
LS 201765 000008030910/07/2018094841GEN6075000009060046630/06/201831/07/201830/06/201812852109FACT ACH                 C3          2120  02 2000          2120000000117310             0                       0                       0                       0                       0             
LS 201765 000008030910/07/2018094841GEN6075000009060046630/06/201831/07/201830/06/201812852109FACT ACH                 D3         82950  02 2000         82950000000117313             0                       0                       0                       0                       0             
LS 201765 000008030910/07/2018094841TVA4456600009060046630/06/201831/07/201830/06/201812852109TVA FACT ACH             D3         20790  02 2000        103950000000                   0                       0                       0                       0                       0             
LS 201765 000008030910/07/2018094841TVA4456600009060046630/06/201831/07/201830/06/201812852109TVA FACT ACH             D3         66184  07 1000        661773000000                   0                       0                       0                       0                       0             
LS 201765 000008030910/07/2018094841FSR4011000009060046630/06/201831/07/201830/06/201812852148FACT ACH  111379670-ARTERC3        555472VI00    0             0000000              55547231/07/2018             0                       0                       0                       0             
LS 201765 000008030910/07/2018094841GEN6075000009060046630/06/201831/07/201830/06/201812852148FACT ACH                 D3         47933  07 1000         47933000000234307             0                       0                       0                       0                       0             
LS 201765 000008030910/07/2018094841GEN6075000009060046630/06/201831/07/201830/06/201812852148FACT ACH                 D3        395617  07 1000        395617000000234313             0                       0                       0                       0                       0             
LS 201765 000008030910/07/2018094841GEN6075000009060046630/06/201831/07/201830/06/201812852148FACT ACH                 D3          1000  02 2000          1000000000234306             0                       0                       0                       0                       0             
LS 201765 000008030910/07/2018094841GEN6075000009060046630/06/201831/07/201830/06/201812852148FACT ACH                 D3         55300  02 2000         55300000000234313             0                       0                       0                       0                       0             
LS 201765 000008030910/07/2018094841TVA4456600009060046630/06/201831/07/201830/06/201812852148TVA FACT ACH             D3         11260  02 2000         56300000000                   0                       0                       0                       0                       0             
LS 201765 000008030910/07/2018094841TVA4456600009060046630/06/201831/07/201830/06/201812852148TVA FACT ACH             D3         44362  07 1000        443550000000                   0                       0                       0                       0                       0             
LS 201765 000008030910/07/2018094841FSR4011000009060046630/06/201831/07/201830/06/201812852151FACT ACH  111379671-ARTERC3        775008VI00    0             0000000              77500831/07/2018             0                       0                       0                       0             
LS 201765 000008030910/07/2018094841GEN6075000009060046630/06/201831/07/201830/06/201812852151FACT ACH                 D3         71672  07 1000         71672000000235307             0                       0                       0                       0                       0             
LS 201765 000008030910/07/2018094841GEN6075000009060046630/06/201831/07/201830/06/201812852151FACT ACH                 D3           852  07 1000           852000000235310             0                       0                       0                       0                       0             
LS 201765 000008030910/07/2018094841GEN6075000009060046630/06/201831/07/201830/06/201812852151FACT ACH                 D3        635230  07 1000        635230000000235313             0                       0                       0                       0                       0             
LS 201765 000008030910/07/2018094841GEN6075000009060046630/06/201831/07/201830/06/201812852151FACT ACH                 C3         14000  02 2000         14000000000235306             0                       0                       0                       0                       0             
LS 201765 000008030910/07/2018094841GEN6075000009060046630/06/201831/07/201830/06/201812852151FACT ACH                 D3         11060  02 2000         11060000000235313             0                       0                       0                       0                       0             
LS 201765 000008030910/07/2018094841TVA4456600009060046630/06/201831/07/201830/06/201812852151TVA FACT ACH             C3           588  02 2000          2940000000                   0                       0                       0                       0                       0             
LS 201765 000008030910/07/2018094841TVA4456600009060046630/06/201831/07/201830/06/201812852151TVA FACT ACH             D3         70782  07 1000        707754000000                   0                       0                       0                       0                       0             
LS 201765 000008030910/07/2018094841FSR4011000009060046630/06/201831/07/201830/06/201812852150FACT ACH  111379664-ARTERC3        571446VI00    0             0000000              57144631/07/2018             0                       0                       0                       0             
LS 201765 000008030910/07/2018094841GEN6075000009060046630/06/201831/07/201830/06/201812852150FACT ACH                 D3         18779  07 1000         18779000000262307             0                       0                       0                       0                       0             
LS 201765 000008030910/07/2018094841GEN6075000009060046630/06/201831/07/201830/06/201812852150FACT ACH                 D3        452000  07 1000        452000000000262313             0                       0                       0                       0                       0             
LS 201765 000008030910/07/2018094841GEN6075000009060046630/06/201831/07/201830/06/201812852150FACT ACH                 D3         17000  02 2000         17000000000262306             0                       0                       0                       0                       0             
LS 201765 000008030910/07/2018094841GEN6075000009060046630/06/201831/07/201830/06/201812852150FACT ACH                 D3         27650  02 2000         27650000000262313             0                       0                       0                       0                       0             
LS 201765 000008030910/07/2018094841TVA4456600009060046630/06/201831/07/201830/06/201812852150TVA FACT ACH             D3          8930  02 2000         44650000000                   0                       0                       0                       0                       0             
LS 201765 000008030910/07/2018094841TVA4456600009060046630/06/201831/07/201830/06/201812852150TVA FACT ACH             D3         47087  07 1000        470779000000                   0                       0                       0                       0                       0             
LS 201765 000008030910/07/2018094841FSR4011000009060046630/06/201831/07/201830/06/201812852152FACT ACH  111379665-ARTERC3        433437VI00    0             0000000              43343731/07/2018             0                       0                       0                       0             
LS 201765 000008030910/07/2018094841GEN6075000009060046630/06/201831/07/201830/06/201812852152FACT ACH                 D3         10251  07 1000         10251000000246307             0                       0                       0                       0                       0             
LS 201765 000008030910/07/2018094841GEN6075000009060046630/06/201831/07/201830/06/201812852152FACT ACH                 D3        343376  07 1000        343376000000246313             0                       0                       0                       0                       0             
LS 201765 000008030910/07/2018094841GEN6075000009060046630/06/201831/07/201830/06/201812852152FACT ACH                 D3          3000  02 2000          3000000000246306             0                       0                       0                       0                       0             
LS 201765 000008030910/07/2018094841GEN6075000009060046630/06/201831/07/201830/06/201812852152FACT ACH                 D3         37041  02 2000         37041000000246310             0                       0                       0                       0                       0             
LS 201765 000008030910/07/2018094841TVA4456600009060046630/06/201831/07/201830/06/201812852152TVA FACT ACH             D3           800  02 2000          4000000000                   0                       0                       0                       0                       0             
LS 201765 000008030910/07/2018094841TVA4456600009060046630/06/201831/07/201830/06/201812852152TVA FACT ACH             D3         38969  07 1000        389668000000                   0                       0                       0                       0                       0             
LS 201765 000008030910/07/2018094841FSR4011000009060046630/06/201831/07/201830/06/201812852153FACT ACH  111379666-ARTERC3        115322VI00    0             0000000              11532231/07/2018             0                       0                       0                       0             
LS 201765 000008030910/07/2018094841GEN6075000009060046630/06/201831/07/201830/06/201812852153FACT ACH                 D3         25410  07 1000         25410000000265307             0                       0                       0                       0                       0             
LS 201765 000008030910/07/2018094841GEN6075000009060046630/06/201831/07/201830/06/201812852153FACT ACH                 D3         69031  07 1000         69031000000265313             0                       0                       0                       0                       0             
LS 201765 000008030910/07/2018094841GEN6075000009060046630/06/201831/07/201830/06/201812852153FACT ACH                 D3          4000  02 2000          4000000000265306             0                       0                       0                       0                       0             
LS 201765 000008030910/07/2018094841GEN6075000009060046630/06/201831/07/201830/06/201812852153FACT ACH                 D3          5530  02 2000          5530000000265313             0                       0                       0                       0                       0             
LS 201765 000008030910/07/2018094841TVA4456600009060046630/06/201831/07/201830/06/201812852153TVA FACT ACH             D3          1906  02 2000          9530000000                   0                       0                       0                       0                       0             
LS 201765 000008030910/07/2018094841TVA4456600009060046630/06/201831/07/201830/06/201812852153TVA FACT ACH             D3          9445  07 1000         94441000000                   0                       0                       0                       0                       0             
LS 201865 000008030910/07/2018094841FSR4011000009060046630/06/201831/07/201804/07/201801852154FACT ACH  111379667-ARTERC3        353708VI00    0             0000000              35370831/07/2018             0                       0                       0                       0             
LS 201865 000008030910/07/2018094841GEN6075000009060046630/06/201831/07/201804/07/201801852154FACT ACH                 D3         37123  07 1000         37123000000208307             0                       0                       0                       0                       0             
LS 201865 000008030910/07/2018094841GEN6075000009060046630/06/201831/07/201804/07/201801852154FACT ACH                 D3        285519  07 1000        285519000000208313             0                       0                       0                       0                       0             
LS 201865 000008030910/07/2018094841GEN6075000009060046630/06/201831/07/201804/07/201801852154FACT ACH                 C3          1000  02 2000          1000000000208306             0                       0                       0                       0                       0             
LS 201865 000008030910/07/2018094841TVA4456600009060046630/06/201831/07/201804/07/201801852154TVA FACT ACH             C3           200  02 2000          1000000000                   0                       0                       0                       0                       0             
LS 201865 000008030910/07/2018094841TVA4456600009060046630/06/201831/07/201804/07/201801852154TVA FACT ACH             D3         32266  07 1000        322642000000                   0                       0                       0                       0                       0             
