LS 201765 000008037210/07/2018190630FSR4011000009002257120/06/201819/08/201820/06/201812852156FACT ACH  930418416      C3          2999VI00    0             0000000                299919/08/2018             0                       0                       0                       0             
LS 201765 000008037210/07/2018190630GEN6075000009002257120/06/201819/08/201820/06/201812852156FACT ACH                 D3          2843  03  550          2843000000208310             0                       0                       0                       0                       0             
LS 201765 000008037210/07/2018190630TVA4456600009002257120/06/201819/08/201820/06/201812852156TVA FACT ACH             D3           156  03  550          2843000000                   0                       0                       0                       0                       0             
LS 201765 000008037210/07/2018190630FSR4011000009060170226/06/201831/08/201826/06/201812851898FACT ACH  270022882-ESPACC3         12564VI00    0             0000000               1256431/08/2018             0                       0                       0                       0             
LS 201765 000008037210/07/2018190630GEN6075000009060170226/06/201831/08/201826/06/201812851898FACT ACH                 D3          6680  07 1000          6680000000394310             0                       0                       0                       0                       0             
LS 201765 000008037210/07/2018190630GEN6075000009060170226/06/201831/08/201826/06/201812851898FACT ACH                 D3          3790  02 2000          3790000000394302             0                       0                       0                       0                       0             
LS 201765 000008037210/07/2018190630TVA4456600009060170226/06/201831/08/201826/06/201812851898TVA FACT ACH             D3          2094  02 2000         10470000000                   0                       0                       0                       0                       0             
LS 201765 000008037210/07/2018190630FSR4011000009002649320/06/201820/07/201820/06/201812851968FACT ACH  7735-SUD PRIMEUC3          3313VI00    0             0000000                331320/07/2018             0                       0                       0                       0             
LS 201765 000008037210/07/2018190630GEN6075000009002649320/06/201820/07/201820/06/201812851968FACT ACH                 D3          4316  03  550          4316000000208308             0                       0                       0                       0                       0             
LS 201765 000008037210/07/2018190630GEN6075000009002649320/06/201820/07/201820/06/201812851968FACT ACH                 C3          1183  03  550          1183000000208310             0                       0                       0                       0                       0             
LS 201765 000008037210/07/2018190630GEN6075000009002649320/06/201820/07/201820/06/201812851968FACT ACH                 D3             7  02 2000             7000000208310             0                       0                       0                       0                       0             
LS 201765 000008037210/07/2018190630TVA4456600009002649320/06/201820/07/201820/06/201812851968TVA FACT ACH             D3             1  02 2000             7000000                   0                       0                       0                       0                       0             
LS 201765 000008037210/07/2018190630TVA4456600009002649320/06/201820/07/201820/06/201812851968TVA FACT ACH             D3           172  03  550          3133000000                   0                       0                       0                       0                       0             
LS 201765 000008037210/07/2018190630FSR4011000009060167430/06/201831/07/201830/06/201812852058FACT ACH  28-LAGASSE GREZC3        112793VI00    0             0000000              11279331/07/2018             0                       0                       0                       0             
LS 201765 000008037210/07/2018190630GEN6075000009060167430/06/201831/07/201830/06/201812852058FACT ACH                 D3        105198  02 2000        105198000000448308             0                       0                       0                       0                       0             
LS 201765 000008037210/07/2018190630GEN6075000009060167430/06/201831/07/201830/06/201812852058FACT ACH                 C3         11204  02 2000         11204000000448310             0                       0                       0                       0                       0             
LS 201765 000008037210/07/2018190630TVA4456600009060167430/06/201831/07/201830/06/201812852058TVA FACT ACH             D3         18799  02 2000         93994000000                   0                       0                       0                       0                       0             
LS 201765 000008037210/07/2018190630FSR4011000009060046630/06/201831/07/201830/06/201812852115FACT ACH  111379646-ARTERC3        147568VI00    0             0000000              14756831/07/2018             0                       0                       0                       0             
LS 201765 000008037210/07/2018190630GEN6075000009060046630/06/201831/07/201830/06/201812852115FACT ACH                 D3          1400  07 1000          1400000000128310             0                       0                       0                       0                       0             
LS 201765 000008037210/07/2018190630GEN6075000009060046630/06/201831/07/201830/06/201812852115FACT ACH                 D3        129478  07 1000        129478000000128313             0                       0                       0                       0                       0             
LS 201765 000008037210/07/2018190630GEN6075000009060046630/06/201831/07/201830/06/201812852115FACT ACH                 D3          3000  02 2000          3000000000128306             0                       0                       0                       0                       0             
LS 201765 000008037210/07/2018190630TVA4456600009060046630/06/201831/07/201830/06/201812852115TVA FACT ACH             D3           600  02 2000          3000000000                   0                       0                       0                       0                       0             
LS 201765 000008037210/07/2018190630TVA4456600009060046630/06/201831/07/201830/06/201812852115TVA FACT ACH             D3         13090  07 1000        130878000000                   0                       0                       0                       0                       0             
LS 201765 000008037210/07/2018190630FSR4011000009060046630/06/201831/07/201830/06/201812852121FACT ACH  111379659-ALIMEC3        556363VI00    0             0000000              55636331/07/2018             0                       0                       0                       0             
LS 201765 000008037210/07/2018190630GEN6075000009060046630/06/201831/07/201830/06/201812852121FACT ACH                 D3        469458  07 1000        469458000000304313             0                       0                       0                       0                       0             
LS 201765 000008037210/07/2018190630GEN6075000009060046630/06/201831/07/201830/06/201812852121FACT ACH                 C3          4000  02 2000          4000000000304306             0                       0                       0                       0                       0             
LS 201765 000008037210/07/2018190630GEN6075000009060046630/06/201831/07/201830/06/201812852121FACT ACH                 D3         38173  02 2000         38173000000304310             0                       0                       0                       0                       0             
LS 201765 000008037210/07/2018190630TVA4456600009060046630/06/201831/07/201830/06/201812852121TVA FACT ACH             D3          4730  02 2000         23650000000                   0                       0                       0                       0                       0             
LS 201765 000008037210/07/2018190630TVA4456600009060046630/06/201831/07/201830/06/201812852121TVA FACT ACH             D3         48002  07 1000        479981000000                   0                       0                       0                       0                       0             
LS 201765 000008037210/07/2018190630FSR4011000009002157125/06/201815/08/201825/06/201812852155FACT ACH  4497332-BOSCH  C3          3300VI00    0             0000000                330015/08/2018             0                       0                       0                       0             
LS 201765 000008037210/07/2018190630GEN6075000009002157125/06/201815/08/201825/06/201812852155FACT ACH                 D3          2750  02 2000          2750000000100302             0                       0                       0                       0                       0             
LS 201765 000008037210/07/2018190630TVA4456600009002157125/06/201815/08/201825/06/201812852155TVA FACT ACH             D3           550  02 2000          2750000000                   0                       0                       0                       0                       0             
LS 201765 000008037210/07/2018190630FSR4011000009000124830/06/201815/08/201830/06/201812852157FACT ACH  19060082D-SGR PC3         75923VI00    0             0000000               7592315/08/2018             0                       0                       0                       0             
LS 201765 000008037210/07/2018190630GEN6075000009000124830/06/201815/08/201830/06/201812852157FACT ACH                 D3         48631  02 2000         48631000000265302             0                       0                       0                       0                       0             
LS 201765 000008037210/07/2018190630GEN6075000009000124830/06/201815/08/201830/06/201812852157FACT ACH                 D3         14638  02 2000         14638000000265310             0                       0                       0                       0                       0             
LS 201765 000008037210/07/2018190630TVA4456600009000124830/06/201815/08/201830/06/201812852157TVA FACT ACH             D3         12654  02 2000         63269000000                   0                       0                       0                       0                       0             
LS 201765 000008037210/07/2018190630FSR4011000009060035201/06/201815/07/201804/06/201812852158FACT ACH  2018.5.5-MELLIFC3         23326VI00    0             0000000               2332615/07/2018             0                       0                       0                       0             
LS 201765 000008037210/07/2018190630GEN6075000009060035201/06/201815/07/201804/06/201812852158FACT ACH                 D3         22110  03  550         22110000000100308             0                       0                       0                       0                       0             
LS 201765 000008037210/07/2018190630TVA4456600009060035201/06/201815/07/201804/06/201812852158TVA FACT ACH             D3          1216  03  550         22110000000                   0                       0                       0                       0                       0             
LS 201765 000008037210/07/2018190630FSR4011000009060035201/06/201815/07/201801/06/201812852159FACT ACH  2018.5.5-MELLIFC3         27156VI00    0             0000000               2715615/07/2018             0                       0                       0                       0             
LS 201765 000008037210/07/2018190630GEN6075000009060035201/06/201815/07/201801/06/201812852159FACT ACH                 D3         25740  03  550         25740000000208308             0                       0                       0                       0                       0             
LS 201765 000008037210/07/2018190630TVA4456600009060035201/06/201815/07/201801/06/201812852159TVA FACT ACH             D3          1416  03  550         25740000000                   0                       0                       0                       0                       0             
LS 201765 000008037210/07/2018190630FSR4011000009002157126/06/201826/06/201826/06/201812852160AVO ACH  4499042-ROYAL CAD3          8501VI00    0             0000000                850126/06/2018             0                       0                       0                       0             
LS 201765 000008037210/07/2018190630GEN6075000009002157126/06/201826/06/201826/06/201812852160AVO ACH                  C3          7084  02 2000          7084000000117307             0                       0                       0                       0                       0             
LS 201765 000008037210/07/2018190630TVA4456600009002157126/06/201826/06/201826/06/201812852160TVA AVO ACH              C3          1417  02 2000          7084000000                   0                       0                       0                       0                       0             
LS 201765 000008037210/07/2018190630FSR4011000009002633230/06/201831/07/201830/06/201812852161FACT ACH  075839-DOMAINE C3          5887VI00    0             0000000                588731/07/2018             0                       0                       0                       0             
LS 201765 000008037210/07/2018190630GEN6075000009002633230/06/201831/07/201830/06/201812852161FACT ACH                 D3          5580  03  550          5580000000265308             0                       0                       0                       0                       0             
LS 201765 000008037210/07/2018190630TVA4456600009002633230/06/201831/07/201830/06/201812852161TVA FACT ACH             D3           307  03  550          5580000000                   0                       0                       0                       0                       0             
LS 201765 000008037210/07/2018190630FSR4011000009043680030/06/201831/07/201830/06/201812852162FACT ACH  2536917-ANTARGAC3         15827VI00    0             0000000               1582731/07/2018             0                       0                       0                       0             
LS 201765 000008037210/07/2018190630GEN6075000009043680030/06/201831/07/201830/06/201812852162FACT ACH                 D3         13189  02 2000         13189000000171305             0                       0                       0                       0                       0             
LS 201765 000008037210/07/2018190630TVA4456600009043680030/06/201831/07/201830/06/201812852162TVA FACT ACH             D3          2638  02 2000         13189000000                   0                       0                       0                       0                       0             
LS 201765 000008037210/07/2018190630FSR4011000009060087329/06/201831/08/201829/06/201812852163FACT ACH  69055-GAZETTE AC3          6080VI00    0             0000000                608031/08/2018             0                       0                       0                       0             
LS 201765 000008037210/07/2018190630GEN6075000009060087329/06/201831/08/201829/06/201812852163FACT ACH                 D3          5924  05  210          5924000000304310             0                       0                       0                       0                       0             
LS 201765 000008037210/07/2018190630TVA4456600009060087329/06/201831/08/201829/06/201812852163TVA FACT ACH             D3           156  05  210          7444000000                   0                       0                       0                       0                       0             
LS 201765 000008037210/07/2018190630FSR4011000009060167812/06/201815/07/201813/06/201812852164FACT ACH  20180232-PY    C3         24960VI00    0             0000000               2496015/07/2018             0                       0                       0                       0             
LS 201765 000008037210/07/2018190630GEN6075000009060167812/06/201815/07/201813/06/201812852164FACT ACH                 D3         20800  02 2000         20800000000243308             0                       0                       0                       0                       0             
LS 201765 000008037210/07/2018190630TVA4456600009060167812/06/201815/07/201813/06/201812852164TVA FACT ACH             D3          4160  02 2000         20800000000                   0                       0                       0                       0                       0             
LS 201765 000008037210/07/2018190630FSR4011000009060069130/06/201831/07/201830/06/201812852165FACT ACH  180583-CHUTES DC3        133430VI00    0             0000000              13343031/07/2018             0                       0                       0                       0             
LS 201765 000008037210/07/2018190630GEN6075000009060069130/06/201831/07/201830/06/201812852165FACT ACH                 D3        126474  03  550        126474000000304308             0                       0                       0                       0                       0             
LS 201765 000008037210/07/2018190630TVA4456600009060069130/06/201831/07/201830/06/201812852165TVA FACT ACH             D3          6956  03  550        126474000000                   0                       0                       0                       0                       0             
LS 201765 000008037210/07/2018190630FSR4011000009060046630/06/201831/07/201830/06/201812852166FACT ACH  111389023-ARTERC3         76787VI00    0             0000000               7678731/07/2018             0                       0                       0                       0             
LS 201765 000008037210/07/2018190630GEN6075000009060046630/06/201831/07/201830/06/201812852166FACT ACH                 D3         69806  07 1000         69806000000235313             0                       0                       0                       0                       0             
LS 201765 000008037210/07/2018190630TVA4456600009060046630/06/201831/07/201830/06/201812852166TVA FACT ACH             D3          6981  07 1000         69806000000                   0                       0                       0                       0                       0             
LS 201765 000008037210/07/2018190630FSR4011000009060124829/06/201831/07/201829/06/201812852167FACT ACH  9749-FABRIQUE DC3         47317VI00    0             0000000               4731731/07/2018             0                       0                       0                       0             
LS 201765 000008037210/07/2018190630GEN6075000009060124829/06/201831/07/201829/06/201812852167FACT ACH                 D3         44850  03  550         44850000000235308             0                       0                       0                       0                       0             
LS 201765 000008037210/07/2018190630TVA4456600009060124829/06/201831/07/201829/06/201812852167TVA FACT ACH             D3          2467  03  550         44850000000                   0                       0                       0                       0                       0             
LS 201765 000008037210/07/2018190630FSR4011000000281025713/06/201815/08/201816/06/201812852168FACT ACH  2012256-HELIPLAC3         19259VI00    0             0000000               1925915/08/2018             0                       0                       0                       0             
LS 201765 000008037210/07/2018190630GEN6075000000281025713/06/201815/08/201816/06/201812852168FACT ACH                 D3          4049  02 2000          4049000000904303             0                       0                       0                       0                       0             
LS 201765 000008037210/07/2018190630GEN6075000000281025713/06/201815/08/201816/06/201812852168FACT ACH                 D3         12000  02 2000         12000000000904305             0                       0                       0                       0                       0             
LS 201765 000008037210/07/2018190630TVA4456600000281025713/06/201815/08/201816/06/201812852168TVA FACT ACH             D3          3210  02 2000         16049000000                   0                       0                       0                       0                       0             
LS 201765 000008037210/07/2018190630FSR4011000009060105121/06/201821/07/201825/06/201812852169FACT ACH  FA00003976-QUERC3         17867VI00    0             0000000               1786721/07/2018             0                       0                       0                       0             
LS 201765 000008037210/07/2018190630GEN6075000009060105121/06/201821/07/201825/06/201812852169FACT ACH                 D3         16936  03  550         16936000000304308             0                       0                       0                       0                       0             
LS 201765 000008037210/07/2018190630TVA4456600009060105121/06/201821/07/201825/06/201812852169TVA FACT ACH             D3           931  03  550         16936000000                   0                       0                       0                       0                       0             
LS 201765 000008037210/07/2018190631FSR4011000009060065015/06/201815/07/201815/06/201812852170FACT ACH  6-DELICES DE CHC3         23859VI00    0             0000000               2385915/07/2018             0                       0                       0                       0             
LS 201765 000008037210/07/2018190631GEN6075000009060065015/06/201815/07/201815/06/201812852170FACT ACH                 D3         17212  03  550         17212000000132308             0                       0                       0                       0                       0             
LS 201765 000008037210/07/2018190631GEN6075000009060065015/06/201815/07/201815/06/201812852170FACT ACH                 D3          4750  02 2000          4750000000132308             0                       0                       0                       0                       0             
LS 201765 000008037210/07/2018190631TVA4456600009060065015/06/201815/07/201815/06/201812852170TVA FACT ACH             D3           950  02 2000          4750000000                   0                       0                       0                       0                       0             
LS 201765 000008037210/07/2018190631TVA4456600009060065015/06/201815/07/201815/06/201812852170TVA FACT ACH             D3           947  03  550         17212000000                   0                       0                       0                       0                       0             
LS 201765 000008037210/07/2018190631FSR4011000009060065015/06/201815/07/201815/06/201812852171FACT ACH  23-DELICES CHANC3         11246VI00    0             0000000               1124615/07/2018             0                       0                       0                       0             
LS 201765 000008037210/07/2018190631GEN6075000009060065015/06/201815/07/201815/06/201812852171FACT ACH                 D3         10660  03  550         10660000000100308             0                       0                       0                       0                       0             
LS 201765 000008037210/07/2018190631TVA4456600009060065015/06/201815/07/201815/06/201812852171TVA FACT ACH             D3           586  03  550         10660000000                   0                       0                       0                       0                       0             
LS 201765 000008037210/07/2018190631FSR4011000009060065015/06/201815/07/201815/06/201812852172FACT ACH  24-DELICES CHANC3         11151VI00    0             0000000               1115115/07/2018             0                       0                       0                       0             
LS 201765 000008037210/07/2018190631GEN6075000009060065015/06/201815/07/201815/06/201812852172FACT ACH                 D3         10570  03  550         10570000000117308             0                       0                       0                       0                       0             
LS 201765 000008037210/07/2018190631TVA4456600009060065015/06/201815/07/201815/06/201812852172TVA FACT ACH             D3           581  03  550         10570000000                   0                       0                       0                       0                       0             
LS 201765 000008037210/07/2018190631FSR4011000009060065015/06/201815/07/201815/06/201812852173FACT ACH  28-DELICES CHANC3          8844VI00    0             0000000                884415/07/2018             0                       0                       0                       0             
LS 201765 000008037210/07/2018190631GEN6075000009060065015/06/201815/07/201815/06/201812852173FACT ACH                 D3          2980  03  550          2980000000234308             0                       0                       0                       0                       0             
LS 201765 000008037210/07/2018190631GEN6075000009060065015/06/201815/07/201815/06/201812852173FACT ACH                 D3          4750  02 2000          4750000000234308             0                       0                       0                       0                       0             
LS 201765 000008037210/07/2018190631TVA4456600009060065015/06/201815/07/201815/06/201812852173TVA FACT ACH             D3           950  02 2000          4750000000                   0                       0                       0                       0                       0             
LS 201765 000008037210/07/2018190631TVA4456600009060065015/06/201815/07/201815/06/201812852173TVA FACT ACH             D3           164  03  550          2980000000                   0                       0                       0                       0                       0             
LS 201765 000008037210/07/2018190631FSR4011000009060065030/06/201831/07/201830/06/201812852174FACT ACH  30-DELICES CHANC3         10423VI00    0             0000000               1042331/07/2018             0                       0                       0                       0             
LS 201765 000008037210/07/2018190631GEN6075000009060065030/06/201831/07/201830/06/201812852174FACT ACH                 D3          9880  03  550          9880000000171308             0                       0                       0                       0                       0             
LS 201765 000008037210/07/2018190631TVA4456600009060065030/06/201831/07/201830/06/201812852174TVA FACT ACH             D3           543  03  550          9880000000                   0                       0                       0                       0                       0             
LS 201765 000008037210/07/2018190631FSR4011000009060050130/06/201831/07/201830/06/201812852175FACT ACH  17180541-FERME C3         19204VI00    0             0000000               1920431/07/2018             0                       0                       0                       0             
LS 201765 000008037210/07/2018190631GEN6075000009060050130/06/201831/07/201830/06/201812852175FACT ACH                 D3         18203  03  550         18203000000117308             0                       0                       0                       0                       0             
LS 201765 000008037210/07/2018190631TVA4456600009060050130/06/201831/07/201830/06/201812852175TVA FACT ACH             D3          1001  03  550         18203000000                   0                       0                       0                       0                       0             
LS 201765 000008037210/07/2018190631FSR4011000009060050130/06/201831/07/201830/06/201812852176FACT ACH  17180557-FERME C3        114436VI00    0             0000000              11443631/07/2018             0                       0                       0                       0             
LS 201765 000008037210/07/2018190631GEN6075000009060050130/06/201831/07/201830/06/201812852176FACT ACH                 D3        107531  03  550        107531000000146308             0                       0                       0                       0                       0             
LS 201765 000008037210/07/2018190631GEN6075000009060050130/06/201831/07/201830/06/201812852176FACT ACH                 D3           939  03  550           939000000146310             0                       0                       0                       0                       0             
LS 201765 000008037210/07/2018190631TVA4456600009060050130/06/201831/07/201830/06/201812852176TVA FACT ACH             D3          5966  03  550        108470000000                   0                       0                       0                       0                       0             
LS 201765 000008037210/07/2018190631FSR4011000009060107930/06/201831/07/201830/06/201812852177FACT ACH  FA1804684-MILLAC3         28389VI00    0             0000000               2838931/07/2018             0                       0                       0                       0             
LS 201765 000008037210/07/2018190631GEN6075000009060107930/06/201831/07/201830/06/201812852177FACT ACH                 D3         26909  03  550         26909000000304308             0                       0                       0                       0                       0             
LS 201765 000008037210/07/2018190631TVA4456600009060107930/06/201831/07/201830/06/201812852177TVA FACT ACH             D3          1480  03  550         26909000000                   0                       0                       0                       0                       0             
