LS 201765 000008030209/07/2018190634FSR4011000009002257101/06/201813/05/201801/06/201812852106FACT ACH  930403471      C3         59344VI00    0             0000000               5934413/05/2018             0                       0                       0                       0             
LS 201765 000008030209/07/2018190634GEN6075000009002257101/06/201813/05/201801/06/201812852106FACT ACH                 D3         52540  03  550         52540000000171308             0                       0                       0                       0                       0             
LS 201765 000008030209/07/2018190634GEN6075000009002257101/06/201813/05/201801/06/201812852106FACT ACH                 D3          3710  03  550          3710000000171310             0                       0                       0                       0                       0             
LS 201765 000008030209/07/2018190634TVA4456600009002257101/06/201813/05/201801/06/201812852106TVA FACT ACH             D3          3094  03  550         56250000000                   0                       0                       0                       0                       0             
LS 201765 000008030209/07/2018190634FSR4011000009002157101/06/201815/07/201801/06/201812849869FACT ACH  4426600-ZOLUX  C3         37217VI00    0             0000000               3721715/07/2018             0                       0                       0                       0             
LS 201765 000008030209/07/2018190634GEN6075000009002157101/06/201815/07/201801/06/201812849869FACT ACH                 D3         11167  02 2000         11167000000265306             0                       0                       0                       0                       0             
LS 201765 000008030209/07/2018190634GEN6075000009002157101/06/201815/07/201801/06/201812849869FACT ACH                 D3         16880  02 2000         16880000000265307             0                       0                       0                       0                       0             
LS 201765 000008030209/07/2018190634GEN6075000009002157101/06/201815/07/201801/06/201812849869FACT ACH                 D3          2967  02 2000          2967000000265310             0                       0                       0                       0                       0             
LS 201765 000008030209/07/2018190634TVA4456600009002157101/06/201815/07/201801/06/201812849869TVA FACT ACH             D3          6203  02 2000         31014000000                   0                       0                       0                       0                       0             
LS 201765 000008030209/07/2018190634FSR4011000009002627111/06/201815/06/201811/06/201812851275FACT ACH  4552-ROCH HORT C3        495969VI00    0             0000000              49596915/06/2018             0                       0                       0                       0             
LS 201765 000008030209/07/2018190634GEN6075000009002627111/06/201815/06/201811/06/201812851275FACT ACH                 D3        455561  07 1000        455561000000265309             0                       0                       0                       0                       0             
LS 201765 000008030209/07/2018190634GEN6075000009002627111/06/201815/06/201811/06/201812851275FACT ACH                 C3          4680  07 1000          4680000000265310             0                       0                       0                       0                       0             
LS 201765 000008030209/07/2018190634TVA4456600009002627111/06/201815/06/201811/06/201812851275TVA FACT ACH             D3         45088  07 1000        450881000000                   0                       0                       0                       0                       0             
LS 201765 000008030209/07/2018190634FSR4011000009002654216/06/201815/07/201816/06/201812851432FACT ACH  16003683-HORT CC3         62739VI00    0             0000000               6273915/07/2018             0                       0                       0                       0             
LS 201765 000008030209/07/2018190634GEN6075000009002654216/06/201815/07/201816/06/201812851432FACT ACH                 D3         58560  07 1000         58560000000265309             0                       0                       0                       0                       0             
LS 201765 000008030209/07/2018190634GEN6075000009002654216/06/201815/07/201816/06/201812851432FACT ACH                 C3          1525  07 1000          1525000000265310             0                       0                       0                       0                       0             
LS 201765 000008030209/07/2018190634TVA4456600009002654216/06/201815/07/201816/06/201812851432TVA FACT ACH             D3          5704  07 1000         57035000000                   0                       0                       0                       0                       0             
LS 201765 000008030209/07/2018190634FSR4011000000266074419/06/201819/07/201819/06/201812851949FACT ACH  FAC00000083-LESC3         21269VI00    0             0000000               2126919/07/2018             0                       0                       0                       0             
LS 201765 000008030209/07/2018190634GEN6075000000266074419/06/201819/07/201819/06/201812851949FACT ACH                 D3          5040  03  550          5040000000304310             0                       0                       0                       0                       0             
LS 201765 000008030209/07/2018190634GEN6075000000266074419/06/201819/07/201819/06/201812851949FACT ACH                 D3         15120  02 2000         15120000000304308             0                       0                       0                       0                       0             
LS 201765 000008030209/07/2018190634TVA4456600000266074419/06/201819/07/201819/06/201812851949TVA FACT ACH             D3          1109  03  550         20160000000                   0                       0                       0                       0                       0             
LS 201765 000008030209/07/2018190634FSR4011000009060041330/06/201831/07/201830/06/201812851972FACT ACH  00534416-LFO   C3         58274VI00    0             0000000               5827431/07/2018             0                       0                       0                       0             
LS 201765 000008030209/07/2018190634GEN6075000009060041330/06/201831/07/201830/06/201812851972FACT ACH                 D3         52493  03  550         52493000000304308             0                       0                       0                       0                       0             
LS 201765 000008030209/07/2018190634GEN6075000009060041330/06/201831/07/201830/06/201812851972FACT ACH                 D3          2743  03  550          2743000000304310             0                       0                       0                       0                       0             
LS 201765 000008030209/07/2018190634TVA4456600009060041330/06/201831/07/201830/06/201812851972TVA FACT ACH             D3          3038  03  550         55236000000                   0                       0                       0                       0                       0             
LS 201865 000008030209/07/2018190634FSR4011000009002257104/07/201802/09/201807/07/201801852099FACT ACH  930419811      C3         85682VI00    0             0000000               8568202/09/2018             0                       0                       0                       0             
LS 201865 000008030209/07/2018190634GEN6075000009002257104/07/201802/09/201807/07/201801852099FACT ACH                 D3         52906  03  550         52906000000304308             0                       0                       0                       0                       0             
LS 201865 000008030209/07/2018190634GEN6075000009002257104/07/201802/09/201807/07/201801852099FACT ACH                 D3         24888  02 2000         24888000000304308             0                       0                       0                       0                       0             
LS 201865 000008030209/07/2018190634TVA4456600009002257104/07/201802/09/201807/07/201801852099TVA FACT ACH             D3          4978  02 2000         24888000000                   0                       0                       0                       0                       0             
LS 201865 000008030209/07/2018190634TVA4456600009002257104/07/201802/09/201807/07/201801852099TVA FACT ACH             D3          2910  03  550         52906000000                   0                       0                       0                       0                       0             
LS 201865 000008030209/07/2018190634FSR4011000009002257104/07/201802/09/201807/07/201801852100FACT ACH  930419812      C3         78261VI00    0             0000000               7826102/09/2018             0                       0                       0                       0             
LS 201865 000008030209/07/2018190634GEN6075000009002257104/07/201802/09/201807/07/201801852100FACT ACH                 D3         67366  03  550         67366000000304308             0                       0                       0                       0                       0             
LS 201865 000008030209/07/2018190634GEN6075000009002257104/07/201802/09/201807/07/201801852100FACT ACH                 D3          5992  02 2000          5992000000304308             0                       0                       0                       0                       0             
LS 201865 000008030209/07/2018190634TVA4456600009002257104/07/201802/09/201807/07/201801852100TVA FACT ACH             D3          1198  02 2000          5992000000                   0                       0                       0                       0                       0             
LS 201865 000008030209/07/2018190634TVA4456600009002257104/07/201802/09/201807/07/201801852100TVA FACT ACH             D3          3705  03  550         67366000000                   0                       0                       0                       0                       0             
LS 201865 000008030209/07/2018190634FSR4011000009002257104/07/201802/09/201807/07/201801852102FACT ACH  930419823      C3        525761VI00    0             0000000              52576102/09/2018             0                       0                       0                       0             
LS 201865 000008030209/07/2018190634GEN6075000009002257104/07/201802/09/201807/07/201801852102FACT ACH                 D3          3162  03  550          3162000000132305             0                       0                       0                       0                       0             
LS 201865 000008030209/07/2018190634GEN6075000009002257104/07/201802/09/201807/07/201801852102FACT ACH                 D3          1188  03  550          1188000000132308             0                       0                       0                       0                       0             
LS 201865 000008030209/07/2018190634GEN6075000009002257104/07/201802/09/201807/07/201801852102FACT ACH                 D3         44362  07 1000         44362000000132302             0                       0                       0                       0                       0             
LS 201865 000008030209/07/2018190634GEN6075000009002257104/07/201802/09/201807/07/201801852102FACT ACH                 D3          3157  07 1000          3157000000132306             0                       0                       0                       0                       0             
LS 201865 000008030209/07/2018190634GEN6075000009002257104/07/201802/09/201807/07/201801852102FACT ACH                 D3         13135  07 1000         13135000000132307             0                       0                       0                       0                       0             
LS 201865 000008030209/07/2018190634GEN6075000009002257104/07/201802/09/201807/07/201801852102FACT ACH                 D3          5628  07 1000          5628000000132309             0                       0                       0                       0                       0             
LS 201865 000008030209/07/2018190634GEN6075000009002257104/07/201802/09/201807/07/201801852102FACT ACH                 D3          4884  02 2000          4884000000132301             0                       0                       0                       0                       0             
LS 201865 000008030209/07/2018190634GEN6075000009002257104/07/201802/09/201807/07/201801852102FACT ACH                 D3        135583  02 2000        135583000000132302             0                       0                       0                       0                       0             
LS 201865 000008030209/07/2018190634GEN6075000009002257104/07/201802/09/201807/07/201801852102FACT ACH                 D3         32006  02 2000         32006000000132303             0                       0                       0                       0                       0             
LS 201865 000008030209/07/2018190634GEN6075000009002257104/07/201802/09/201807/07/201801852102FACT ACH                 D3         11687  02 2000         11687000000132304             0                       0                       0                       0                       0             
LS 201865 000008030209/07/2018190634GEN6075000009002257104/07/201802/09/201807/07/201801852102FACT ACH                 D3         14395  02 2000         14395000000132305             0                       0                       0                       0                       0             
LS 201865 000008030209/07/2018190634GEN6075000009002257104/07/201802/09/201807/07/201801852102FACT ACH                 D3         45816  02 2000         45816000000132306             0                       0                       0                       0                       0             
LS 201865 000008030209/07/2018190634GEN6075000009002257104/07/201802/09/201807/07/201801852102FACT ACH                 D3        129181  02 2000        129181000000132307             0                       0                       0                       0                       0             
LS 201865 000008030209/07/2018190634TVA4456600009002257104/07/201802/09/201807/07/201801852102TVA FACT ACH             D3         74710  02 2000        373552000000                   0                       0                       0                       0                       0             
LS 201865 000008030209/07/2018190634TVA4456600009002257104/07/201802/09/201807/07/201801852102TVA FACT ACH             D3           239  03  550          4350000000                   0                       0                       0                       0                       0             
LS 201865 000008030209/07/2018190634TVA4456600009002257104/07/201802/09/201807/07/201801852102TVA FACT ACH             D3          6628  07 1000         66282000000                   0                       0                       0                       0                       0             
LS 201865 000008030209/07/2018190634FSR4011000009002257104/07/201802/09/201806/07/201801852082FACT ACH  930419824      C3        289618VI00    0             0000000              28961802/09/2018             0                       0                       0                       0             
LS 201865 000008030209/07/2018190634GEN6075000009002257104/07/201802/09/201806/07/201801852082FACT ACH                 D3          1812  03  550          1812000000448308             0                       0                       0                       0                       0             
LS 201865 000008030209/07/2018190634GEN6075000009002257104/07/201802/09/201806/07/201801852082FACT ACH                 D3         23284  07 1000         23284000000448302             0                       0                       0                       0                       0             
LS 201865 000008030209/07/2018190634GEN6075000009002257104/07/201802/09/201806/07/201801852082FACT ACH                 D3         52677  07 1000         52677000000448307             0                       0                       0                       0                       0             
LS 201865 000008030209/07/2018190634GEN6075000009002257104/07/201802/09/201806/07/201801852082FACT ACH                 D3         43851  02 2000         43851000000448302             0                       0                       0                       0                       0             
LS 201865 000008030209/07/2018190634GEN6075000009002257104/07/201802/09/201806/07/201801852082FACT ACH                 D3          7470  02 2000          7470000000448303             0                       0                       0                       0                       0             
LS 201865 000008030209/07/2018190634GEN6075000009002257104/07/201802/09/201806/07/201801852082FACT ACH                 D3          1690  02 2000          1690000000448304             0                       0                       0                       0                       0             
LS 201865 000008030209/07/2018190634GEN6075000009002257104/07/201802/09/201806/07/201801852082FACT ACH                 D3         76634  02 2000         76634000000448305             0                       0                       0                       0                       0             
LS 201865 000008030209/07/2018190634GEN6075000009002257104/07/201802/09/201806/07/201801852082FACT ACH                 D3          1842  02 2000          1842000000448306             0                       0                       0                       0                       0             
LS 201865 000008030209/07/2018190634GEN6075000009002257104/07/201802/09/201806/07/201801852082FACT ACH                 D3         38637  02 2000         38637000000448307             0                       0                       0                       0                       0             
LS 201865 000008030209/07/2018190634TVA4456600009002257104/07/201802/09/201806/07/201801852082TVA FACT ACH             D3         34025  02 2000        170124000000                   0                       0                       0                       0                       0             
LS 201865 000008030209/07/2018190634TVA4456600009002257104/07/201802/09/201806/07/201801852082TVA FACT ACH             D3           100  03  550          1812000000                   0                       0                       0                       0                       0             
LS 201865 000008030209/07/2018190634TVA4456600009002257104/07/201802/09/201806/07/201801852082TVA FACT ACH             D3          7596  07 1000         75961000000                   0                       0                       0                       0                       0             
LS 201865 000008030209/07/2018190634FSR4011000009002257104/07/201802/09/201806/07/201801852084FACT ACH  930419826      C3        386757VI00    0             0000000              38675702/09/2018             0                       0                       0                       0             
LS 201865 000008030209/07/2018190634GEN6075000009002257104/07/201802/09/201806/07/201801852084FACT ACH                 D3          1744  03  550          1744000000141308             0                       0                       0                       0                       0             
LS 201865 000008030209/07/2018190634GEN6075000009002257104/07/201802/09/201806/07/201801852084FACT ACH                 D3         59181  07 1000         59181000000141302             0                       0                       0                       0                       0             
LS 201865 000008030209/07/2018190634GEN6075000009002257104/07/201802/09/201806/07/201801852084FACT ACH                 D3         39894  07 1000         39894000000141307             0                       0                       0                       0                       0             
LS 201865 000008030209/07/2018190634GEN6075000009002257104/07/201802/09/201806/07/201801852084FACT ACH                 D3          7794  02 2000          7794000000141301             0                       0                       0                       0                       0             
LS 201865 000008030209/07/2018190634GEN6075000009002257104/07/201802/09/201806/07/201801852084FACT ACH                 D3        149178  02 2000        149178000000141302             0                       0                       0                       0                       0             
LS 201865 000008030209/07/2018190634GEN6075000009002257104/07/201802/09/201806/07/201801852084FACT ACH                 D3          3258  02 2000          3258000000141305             0                       0                       0                       0                       0             
LS 201865 000008030209/07/2018190634GEN6075000009002257104/07/201802/09/201806/07/201801852084FACT ACH                 D3          6703  02 2000          6703000000141306             0                       0                       0                       0                       0             
LS 201865 000008030209/07/2018190634GEN6075000009002257104/07/201802/09/201806/07/201801852084FACT ACH                 D3         63012  02 2000         63012000000141307             0                       0                       0                       0                       0             
LS 201865 000008030209/07/2018190634TVA4456600009002257104/07/201802/09/201806/07/201801852084TVA FACT ACH             D3         45989  02 2000        229945000000                   0                       0                       0                       0                       0             
LS 201865 000008030209/07/2018190634TVA4456600009002257104/07/201802/09/201806/07/201801852084TVA FACT ACH             D3            96  03  550          1744000000                   0                       0                       0                       0                       0             
LS 201865 000008030209/07/2018190634TVA4456600009002257104/07/201802/09/201806/07/201801852084TVA FACT ACH             D3          9908  07 1000         99075000000                   0                       0                       0                       0                       0             
LS 201865 000008030209/07/2018190634FSR4011000009002257104/07/201802/09/201807/07/201801852103FACT ACH  930419833      C3         11578VI00    0             0000000               1157802/09/2018             0                       0                       0                       0             
LS 201865 000008030209/07/2018190634GEN6075000009002257104/07/201802/09/201807/07/201801852103FACT ACH                 D3          8064  03  550          8064000000304308             0                       0                       0                       0                       0             
LS 201865 000008030209/07/2018190634GEN6075000009002257104/07/201802/09/201807/07/201801852103FACT ACH                 D3          2558  02 2000          2558000000304305             0                       0                       0                       0                       0             
LS 201865 000008030209/07/2018190634TVA4456600009002257104/07/201802/09/201807/07/201801852103TVA FACT ACH             D3           512  02 2000          2558000000                   0                       0                       0                       0                       0             
LS 201865 000008030209/07/2018190634TVA4456600009002257104/07/201802/09/201807/07/201801852103TVA FACT ACH             D3           444  03  550          8064000000                   0                       0                       0                       0                       0             
LS 201865 000008030209/07/2018190634FSR4011000009002257105/07/201803/09/201806/07/201801852091FACT ACH  930419996      C3          8697VI00    0             0000000                869703/09/2018             0                       0                       0                       0             
LS 201865 000008030209/07/2018190634GEN6075000009002257105/07/201803/09/201806/07/201801852091FACT ACH                 D3          6048  03  550          6048000000395308             0                       0                       0                       0                       0             
LS 201865 000008030209/07/2018190634GEN6075000009002257105/07/201803/09/201806/07/201801852091FACT ACH                 D3          1930  02 2000          1930000000395305             0                       0                       0                       0                       0             
LS 201865 000008030209/07/2018190634TVA4456600009002257105/07/201803/09/201806/07/201801852091TVA FACT ACH             D3           386  02 2000          1930000000                   0                       0                       0                       0                       0             
LS 201865 000008030209/07/2018190634TVA4456600009002257105/07/201803/09/201806/07/201801852091TVA FACT ACH             D3           333  03  550          6048000000                   0                       0                       0                       0                       0             
LS 201865 000008030209/07/2018190634FSR4011000009002257105/07/201803/09/201806/07/201801852094FACT ACH  930420005      C3          2148VI00    0             0000000                214803/09/2018             0                       0                       0                       0             
LS 201865 000008030209/07/2018190634GEN6075000009002257105/07/201803/09/201806/07/201801852094FACT ACH                 D3          1790  02 2000          1790000000395304             0                       0                       0                       0                       0             
LS 201865 000008030209/07/2018190634TVA4456600009002257105/07/201803/09/201806/07/201801852094TVA FACT ACH             D3           358  02 2000          1790000000                   0                       0                       0                       0                       0             
LS 201865 000008030209/07/2018190634FSR4011000009002257105/07/201803/09/201806/07/201801852097FACT ACH  930420016      C3         14228VI00    0             0000000               1422803/09/2018             0                       0                       0                       0             
LS 201865 000008030209/07/2018190634GEN6075000009002257105/07/201803/09/201806/07/201801852097FACT ACH                 D3          8520  07 1000          8520000000395302             0                       0                       0                       0                       0             
LS 201865 000008030209/07/2018190634GEN6075000009002257105/07/201803/09/201806/07/201801852097FACT ACH                 D3          4047  02 2000          4047000000395303             0                       0                       0                       0                       0             
LS 201865 000008030209/07/2018190634TVA4456600009002257105/07/201803/09/201806/07/201801852097TVA FACT ACH             D3           809  02 2000          4047000000                   0                       0                       0                       0                       0             
LS 201865 000008030209/07/2018190634TVA4456600009002257105/07/201803/09/201806/07/201801852097TVA FACT ACH             D3           852  07 1000          8520000000                   0                       0                       0                       0                       0             
LS 201765 000008030209/07/2018190634FSR4011000009051444330/06/201831/07/201830/06/201812852065FACT ACH  401377-GARONNE C3        370015VI00    0             0000000              37001531/07/2018             0                       0                       0                       0             
LS 201765 000008030209/07/2018190634GEN6075000009051444330/06/201831/07/201830/06/201812852065FACT ACH                 D3        318446  03  550        318446000000304308             0                       0                       0                       0                       0             
LS 201765 000008030209/07/2018190634GEN6075000009051444330/06/201831/07/201830/06/201812852065FACT ACH                 D3          7088  03  550          7088000000304310             0                       0                       0                       0                       0             
LS 201765 000008030209/07/2018190634GEN6075000009051444330/06/201831/07/201830/06/201812852065FACT ACH                 D3         25100  02 2000         25100000000304308             0                       0                       0                       0                       0             
LS 201765 000008030209/07/2018190634TVA4456600009051444330/06/201831/07/201830/06/201812852065TVA FACT ACH             D3           133  02 2000           664000000                   0                       0                       0                       0                       0             
LS 201765 000008030209/07/2018190634TVA4456600009051444330/06/201831/07/201830/06/201812852065TVA FACT ACH             D3         19248  03  550        349970000000                   0                       0                       0                       0                       0             
LS 201765 000008030209/07/2018190634FSR4011000009002157118/06/201815/07/201818/06/201812852107AVO ACH  4486339-ZOLUX   D3          3560VI00    0             0000000                356015/07/2018             0                       0                       0                       0             
LS 201765 000008030209/07/2018190634GEN6075000009002157118/06/201815/07/201818/06/201812852107AVO ACH                  C3          2967  02 2000          2967000000265310             0                       0                       0                       0                       0             
LS 201765 000008030209/07/2018190634TVA4456600009002157118/06/201815/07/201818/06/201812852107TVA AVO ACH              C3           593  02 2000          2967000000                   0                       0                       0                       0                       0             
LS 201765 000008030209/07/2018190634FSR4011000009060046630/06/201831/07/201830/06/201812852108FACT ACH  111379653-ALIMEC3         68254VI00    0             0000000               6825431/07/2018             0                       0                       0                       0             
LS 201765 000008030209/07/2018190634GEN6075000009060046630/06/201831/07/201830/06/201812852108FACT ACH                 D3          2310  07 1000          2310000000146307             0                       0                       0                       0                       0             
LS 201765 000008030209/07/2018190634GEN6075000009060046630/06/201831/07/201830/06/201812852108FACT ACH                 D3         19138  07 1000         19138000000146313             0                       0                       0                       0                       0             
LS 201765 000008030209/07/2018190634GEN6075000009060046630/06/201831/07/201830/06/201812852108FACT ACH                 D3          1000  02 2000          1000000000146306             0                       0                       0                       0                       0             
LS 201765 000008030209/07/2018190634GEN6075000009060046630/06/201831/07/201830/06/201812852108FACT ACH                 D3         39328  02 2000         39328000000146310             0                       0                       0                       0                       0             
LS 201765 000008030209/07/2018190634TVA4456600009060046630/06/201831/07/201830/06/201812852108TVA FACT ACH             D3           600  02 2000          3000000000                   0                       0                       0                       0                       0             
LS 201765 000008030209/07/2018190634TVA4456600009060046630/06/201831/07/201830/06/201812852108TVA FACT ACH             D3          5878  07 1000         58776000000                   0                       0                       0                       0                       0             
LS 201765 000008030209/07/2018190634FSR4011000009060046630/06/201831/07/201830/06/201812852110FACT ACH  111379643-ARTERC3        958649VI00    0             0000000              95864931/07/2018             0                       0                       0                       0             
LS 201765 000008030209/07/2018190634GEN6075000009060046630/06/201831/07/201830/06/201812852110FACT ACH                 D3         31252  07 1000         31252000000100307             0                       0                       0                       0                       0             
LS 201765 000008030209/07/2018190634GEN6075000009060046630/06/201831/07/201830/06/201812852110FACT ACH                 D3        832536  07 1000        832536000000100313             0                       0                       0                       0                       0             
LS 201765 000008030209/07/2018190634GEN6075000009060046630/06/201831/07/201830/06/201812852110FACT ACH                 C3          4000  02 2000          4000000000100306             0                       0                       0                       0                       0             
LS 201765 000008030209/07/2018190634GEN6075000009060046630/06/201831/07/201830/06/201812852110FACT ACH                 D3         11060  02 2000         11060000000100313             0                       0                       0                       0                       0             
LS 201765 000008030209/07/2018190634TVA4456600009060046630/06/201831/07/201830/06/201812852110TVA FACT ACH             D3          1412  02 2000          7060000000                   0                       0                       0                       0                       0             
LS 201765 000008030209/07/2018190634TVA4456600009060046630/06/201831/07/201830/06/201812852110TVA FACT ACH             D3         86389  07 1000        863788000000                   0                       0                       0                       0                       0             
LS 201765 000008030209/07/2018190634FSR4011000009060046630/06/201831/07/201830/06/201812852111FACT ACH  111379655-ALIMEC3        433417VI00    0             0000000              43341731/07/2018             0                       0                       0                       0             
LS 201765 000008030209/07/2018190634GEN6075000009060046630/06/201831/07/201830/06/201812852111FACT ACH                 D3         34320  07 1000         34320000000139307             0                       0                       0                       0                       0             
LS 201765 000008030209/07/2018190634GEN6075000009060046630/06/201831/07/201830/06/201812852111FACT ACH                 D3        408780  07 1000        408780000000139313             0                       0                       0                       0                       0             
LS 201765 000008030209/07/2018190634GEN6075000009060046630/06/201831/07/201830/06/201812852111FACT ACH                 C3         45000  02 2000         45000000000139306             0                       0                       0                       0                       0             
LS 201765 000008030209/07/2018190634TVA4456600009060046630/06/201831/07/201830/06/201812852111TVA FACT ACH             C3          9000  02 2000         45000000000                   0                       0                       0                       0                       0             
LS 201765 000008030209/07/2018190634TVA4456600009060046630/06/201831/07/201830/06/201812852111TVA FACT ACH             D3         44317  07 1000        443100000000                   0                       0                       0                       0                       0             
LS 201765 000008030209/07/2018190634FSR4011000009060046630/06/201831/07/201830/06/201812852114FACT ACH  111379645-ARTERC3        117641VI00    0             0000000              11764131/07/2018             0                       0                       0                       0             
LS 201765 000008030209/07/2018190634GEN6075000009060046630/06/201831/07/201830/06/201812852114FACT ACH                 D3         15400  07 1000         15400000000116307             0                       0                       0                       0                       0             
LS 201765 000008030209/07/2018190634GEN6075000009060046630/06/201831/07/201830/06/201812852114FACT ACH                 C3         48500  07 1000         48500000000116310             0                       0                       0                       0                       0             
LS 201765 000008030209/07/2018190634GEN6075000009060046630/06/201831/07/201830/06/201812852114FACT ACH                 D3        154316  07 1000        154316000000116313             0                       0                       0                       0                       0             
LS 201765 000008030209/07/2018190634GEN6075000009060046630/06/201831/07/201830/06/201812852114FACT ACH                 C3         13000  02 2000         13000000000116306             0                       0                       0                       0                       0             
LS 201765 000008030209/07/2018190634TVA4456600009060046630/06/201831/07/201830/06/201812852114TVA FACT ACH             C3          2800  02 2000         14000000000                   0                       0                       0                       0                       0             
LS 201765 000008030209/07/2018190634TVA4456600009060046630/06/201831/07/201830/06/201812852114TVA FACT ACH             D3         12225  07 1000        122216000000                   0                       0                       0                       0                       0             
LS 201765 000008030209/07/2018190634FSR4011000009060046630/06/201831/07/201830/06/201812852116FACT ACH  111379657-ALIMEC3        208883VI00    0             0000000              20888331/07/2018             0                       0                       0                       0             
LS 201765 000008030209/07/2018190634GEN6075000009060046630/06/201831/07/201830/06/201812852116FACT ACH                 D3          3000  07 1000          3000000000174307             0                       0                       0                       0                       0             
LS 201765 000008030209/07/2018190634GEN6075000009060046630/06/201831/07/201830/06/201812852116FACT ACH                 D3        191253  07 1000        191253000000174313             0                       0                       0                       0                       0             
LS 201765 000008030209/07/2018190634GEN6075000009060046630/06/201831/07/201830/06/201812852116FACT ACH                 C3          4000  02 2000          4000000000174306             0                       0                       0                       0                       0             
LS 201765 000008030209/07/2018190634TVA4456600009060046630/06/201831/07/201830/06/201812852116TVA FACT ACH             C3           800  02 2000          4000000000                   0                       0                       0                       0                       0             
LS 201765 000008030209/07/2018190634TVA4456600009060046630/06/201831/07/201830/06/201812852116TVA FACT ACH             D3         19430  07 1000        194253000000                   0                       0                       0                       0                       0             
LS 201765 000008030209/07/2018190634FSR4011000009060046630/06/201831/07/201830/06/201812852117FACT ACH  111379647-ARTERC3        267780VI00    0             0000000              26778031/07/2018             0                       0                       0                       0             
LS 201765 000008030209/07/2018190634GEN6075000009060046630/06/201831/07/201830/06/201812852117FACT ACH                 D3         12320  07 1000         12320000000133307             0                       0                       0                       0                       0             
LS 201765 000008030209/07/2018190634GEN6075000009060046630/06/201831/07/201830/06/201812852117FACT ACH                 C3           558  07 1000           558000000133310             0                       0                       0                       0                       0             
LS 201765 000008030209/07/2018190634GEN6075000009060046630/06/201831/07/201830/06/201812852117FACT ACH                 D3        225129  07 1000        225129000000133313             0                       0                       0                       0                       0             
LS 201765 000008030209/07/2018190634GEN6075000009060046630/06/201831/07/201830/06/201812852117FACT ACH                 D3          6000  02 2000          6000000000133306             0                       0                       0                       0                       0             
LS 201765 000008030209/07/2018190634TVA4456600009060046630/06/201831/07/201830/06/201812852117TVA FACT ACH             D3          1200  02 2000          6000000000                   0                       0                       0                       0                       0             
LS 201765 000008030209/07/2018190634TVA4456600009060046630/06/201831/07/201830/06/201812852117TVA FACT ACH             D3         23689  07 1000        236891000000                   0                       0                       0                       0                       0             
LS 201765 000008030209/07/2018190635FSR4011000009060046630/06/201831/07/201830/06/201812852119FACT ACH  111379658-ALIMEC3        377387VI00    0             0000000              37738731/07/2018             0                       0                       0                       0             
LS 201765 000008030209/07/2018190635GEN6075000009060046630/06/201831/07/201830/06/201812852119FACT ACH                 D3         29510  07 1000         29510000000302307             0                       0                       0                       0                       0             
LS 201765 000008030209/07/2018190635GEN6075000009060046630/06/201831/07/201830/06/201812852119FACT ACH                 C3          8815  07 1000          8815000000302310             0                       0                       0                       0                       0             
LS 201765 000008030209/07/2018190635GEN6075000009060046630/06/201831/07/201830/06/201812852119FACT ACH                 D3        323473  07 1000        323473000000302313             0                       0                       0                       0                       0             
LS 201765 000008030209/07/2018190635GEN6075000009060046630/06/201831/07/201830/06/201812852119FACT ACH                 C3          1000  02 2000          1000000000302306             0                       0                       0                       0                       0             
LS 201765 000008030209/07/2018190635TVA4456600009060046630/06/201831/07/201830/06/201812852119TVA FACT ACH             C3           200  02 2000          1000000000                   0                       0                       0                       0                       0             
LS 201765 000008030209/07/2018190635TVA4456600009060046630/06/201831/07/201830/06/201812852119TVA FACT ACH             D3         34419  07 1000        344168000000                   0                       0                       0                       0                       0             
LS 201765 000008030209/07/2018190635FSR4011000009060046630/06/201831/07/201830/06/201812852118FACT ACH  111379648-ARTERC3         50013VI00    0             0000000               5001331/07/2018             0                       0                       0                       0             
LS 201765 000008030209/07/2018190635GEN6075000009060046630/06/201831/07/201830/06/201812852118FACT ACH                 D3         44375  07 1000         44375000000183313             0                       0                       0                       0                       0             
LS 201765 000008030209/07/2018190635GEN6075000009060046630/06/201831/07/201830/06/201812852118FACT ACH                 D3          1000  02 2000          1000000000183310             0                       0                       0                       0                       0             
LS 201765 000008030209/07/2018190635TVA4456600009060046630/06/201831/07/201830/06/201812852118TVA FACT ACH             D3           200  02 2000          1000000000                   0                       0                       0                       0                       0             
LS 201765 000008030209/07/2018190635TVA4456600009060046630/06/201831/07/201830/06/201812852118TVA FACT ACH             D3          4438  07 1000         44375000000                   0                       0                       0                       0                       0             
LS 201765 000008030209/07/2018190635FSR4011000009060046630/06/201831/07/201830/06/201812852120FACT ACH  111379649-ARTERC3        389475VI00    0             0000000              38947531/07/2018             0                       0                       0                       0             
LS 201765 000008030209/07/2018190635GEN6075000009060046630/06/201831/07/201830/06/201812852120FACT ACH                 D3         38151  07 1000         38151000000168307             0                       0                       0                       0                       0             
LS 201765 000008030209/07/2018190635GEN6075000009060046630/06/201831/07/201830/06/201812852120FACT ACH                 D3        319186  07 1000        319186000000168313             0                       0                       0                       0                       0             
LS 201765 000008030209/07/2018190635GEN6075000009060046630/06/201831/07/201830/06/201812852120FACT ACH                 C3          3000  02 2000          3000000000168306             0                       0                       0                       0                       0             
LS 201765 000008030209/07/2018190635TVA4456600009060046630/06/201831/07/201830/06/201812852120TVA FACT ACH             C3           600  02 2000          3000000000                   0                       0                       0                       0                       0             
LS 201765 000008030209/07/2018190635TVA4456600009060046630/06/201831/07/201830/06/201812852120TVA FACT ACH             D3         35738  07 1000        357337000000                   0                       0                       0                       0                       0             
LS 201765 000008030209/07/2018190635FSR4011000009060046630/06/201831/07/201830/06/201812852122FACT ACH  111379650-ARTERC3        211769VI00    0             0000000              21176931/07/2018             0                       0                       0                       0             
LS 201765 000008030209/07/2018190635GEN6075000009060046630/06/201831/07/201830/06/201812852122FACT ACH                 D3          6806  07 1000          6806000000105307             0                       0                       0                       0                       0             
LS 201765 000008030209/07/2018190635GEN6075000009060046630/06/201831/07/201830/06/201812852122FACT ACH                 D3        191272  07 1000        191272000000105313             0                       0                       0                       0                       0             
LS 201765 000008030209/07/2018190635GEN6075000009060046630/06/201831/07/201830/06/201812852122FACT ACH                 C3         13000  02 2000         13000000000105306             0                       0                       0                       0                       0             
LS 201765 000008030209/07/2018190635GEN6075000009060046630/06/201831/07/201830/06/201812852122FACT ACH                 D3          7900  02 2000          7900000000105313             0                       0                       0                       0                       0             
LS 201765 000008030209/07/2018190635TVA4456600009060046630/06/201831/07/201830/06/201812852122TVA FACT ACH             C3          1020  02 2000          5100000000                   0                       0                       0                       0                       0             
LS 201765 000008030209/07/2018190635TVA4456600009060046630/06/201831/07/201830/06/201812852122TVA FACT ACH             D3         19811  07 1000        198078000000                   0                       0                       0                       0                       0             
LS 201765 000008030209/07/2018190635FSR4011000009060046630/06/201831/07/201830/06/201812852124FACT ACH  111379660-ALIMEC3        423716VI00    0             0000000              42371631/07/2018             0                       0                       0                       0             
LS 201765 000008030209/07/2018190635GEN6075000009060046630/06/201831/07/201830/06/201812852124FACT ACH                 D3         62859  07 1000         62859000000301307             0                       0                       0                       0                       0             
LS 201765 000008030209/07/2018190635GEN6075000009060046630/06/201831/07/201830/06/201812852124FACT ACH                 D3          8422  07 1000          8422000000301310             0                       0                       0                       0                       0             
LS 201765 000008030209/07/2018190635GEN6075000009060046630/06/201831/07/201830/06/201812852124FACT ACH                 D3        312587  07 1000        312587000000301313             0                       0                       0                       0                       0             
LS 201765 000008030209/07/2018190635GEN6075000009060046630/06/201831/07/201830/06/201812852124FACT ACH                 D3          1000  02 2000          1000000000301306             0                       0                       0                       0                       0             
LS 201765 000008030209/07/2018190635TVA4456600009060046630/06/201831/07/201830/06/201812852124TVA FACT ACH             D3           716  02 2000          3580000000                   0                       0                       0                       0                       0             
LS 201765 000008030209/07/2018190635TVA4456600009060046630/06/201831/07/201830/06/201812852124TVA FACT ACH             D3         38132  07 1000        381288000000                   0                       0                       0                       0                       0             
LS 201765 000008030209/07/2018190635FSR4011000009060046630/06/201831/07/201830/06/201812852123FACT ACH  111379651-ARTERC3        366831VI00    0             0000000              36683131/07/2018             0                       0                       0                       0             
LS 201765 000008030209/07/2018190635GEN6075000009060046630/06/201831/07/201830/06/201812852123FACT ACH                 D3          1615  07 1000          1615000000141307             0                       0                       0                       0                       0             
LS 201765 000008030209/07/2018190635GEN6075000009060046630/06/201831/07/201830/06/201812852123FACT ACH                 D3         19235  07 1000         19235000000141310             0                       0                       0                       0                       0             
LS 201765 000008030209/07/2018190635GEN6075000009060046630/06/201831/07/201830/06/201812852123FACT ACH                 D3        323538  07 1000        323538000000141313             0                       0                       0                       0                       0             
LS 201765 000008030209/07/2018190635GEN6075000009060046630/06/201831/07/201830/06/201812852123FACT ACH                 C3         10000  02 2000         10000000000141306             0                       0                       0                       0                       0             
LS 201765 000008030209/07/2018190635TVA4456600009060046630/06/201831/07/201830/06/201812852123TVA FACT ACH             C3          2000  02 2000         10000000000                   0                       0                       0                       0                       0             
LS 201765 000008030209/07/2018190635TVA4456600009060046630/06/201831/07/201830/06/201812852123TVA FACT ACH             D3         34443  07 1000        344388000000                   0                       0                       0                       0                       0             
LS 201765 000008030209/07/2018190635FSR4011000009060046630/06/201831/07/201830/06/201812852125FACT ACH  111379652-ARTERC3       1083535VI00    0             0000000             108353531/07/2018             0                       0                       0                       0             
LS 201765 000008030209/07/2018190635GEN6075000009060046630/06/201831/07/201830/06/201812852125FACT ACH                 D3         34240  07 1000         34240000000197307             0                       0                       0                       0                       0             
LS 201765 000008030209/07/2018190635GEN6075000009060046630/06/201831/07/201830/06/201812852125FACT ACH                 D3       1071881  07 1000       1071881000000197313             0                       0                       0                       0                       0             
LS 201765 000008030209/07/2018190635GEN6075000009060046630/06/201831/07/201830/06/201812852125FACT ACH                 C3        111000  02 2000        111000000000197306             0                       0                       0                       0                       0             
LS 201765 000008030209/07/2018190635TVA4456600009060046630/06/201831/07/201830/06/201812852125TVA FACT ACH             C3         22200  02 2000        111000000000                   0                       0                       0                       0                       0             
LS 201765 000008030209/07/2018190635TVA4456600009060046630/06/201831/07/201830/06/201812852125TVA FACT ACH             D3        110614  07 1000       1106121000000                   0                       0                       0                       0                       0             
LS 201765 000008030209/07/2018190635FSR4011000009060046630/06/201831/07/201830/06/201812852127FACT ACH  111379662-ALIMEC3        112964VI00    0             0000000              11296431/07/2018             0                       0                       0                       0             
LS 201765 000008030209/07/2018190635GEN6075000009060046630/06/201831/07/201830/06/201812852127FACT ACH                 D3         15322  07 1000         15322000000395307             0                       0                       0                       0                       0             
LS 201765 000008030209/07/2018190635GEN6075000009060046630/06/201831/07/201830/06/201812852127FACT ACH                 D3         83004  07 1000         83004000000395313             0                       0                       0                       0                       0             
LS 201765 000008030209/07/2018190635GEN6075000009060046630/06/201831/07/201830/06/201812852127FACT ACH                 D3          4000  02 2000          4000000000395306             0                       0                       0                       0                       0             
LS 201765 000008030209/07/2018190635TVA4456600009060046630/06/201831/07/201830/06/201812852127TVA FACT ACH             D3           800  02 2000          4000000000                   0                       0                       0                       0                       0             
LS 201765 000008030209/07/2018190635TVA4456600009060046630/06/201831/07/201830/06/201812852127TVA FACT ACH             D3          9838  07 1000         98326000000                   0                       0                       0                       0                       0             
LS 201765 000008030209/07/2018190635FSR4011000009060046630/06/201831/07/201830/06/201812852128FACT ACH  111379668-ARTERC3         68640VI00    0             0000000               6864031/07/2018             0                       0                       0                       0             
LS 201765 000008030209/07/2018190635GEN6075000009060046630/06/201831/07/201830/06/201812852128FACT ACH                 D3         19200  07 1000         19200000000229307             0                       0                       0                       0                       0             
LS 201765 000008030209/07/2018190635GEN6075000009060046630/06/201831/07/201830/06/201812852128FACT ACH                 D3         43200  07 1000         43200000000229313             0                       0                       0                       0                       0             
LS 201765 000008030209/07/2018190635TVA4456600009060046630/06/201831/07/201830/06/201812852128TVA FACT ACH             D3          6240  07 1000         62400000000                   0                       0                       0                       0                       0             
