LS 2018C02000008031410/07/2018094849AGR4111000000108380309/07/201809/07/201809/07/201801922559Rgl/Fact  1911017        C4           968  00    0             0911017                   0                       0                       0                       0                       0             
LS 2018C02000008031410/07/2018094849RGL5311030200108380309/07/201809/07/201809/07/201801922559Rgl/Facture 1911017 ESPECD4           968ES00    0             0911017                   0                       0                       0                       0                       0             
LS 2018C02000008031410/07/2018094849AGR4111000000108380309/07/201809/07/201809/07/201801922560Rgl/Fact  1911018        C4           649  00    0             0911018                   0                       0                       0                       0                       0             
LS 2018C02000008031410/07/2018094849RGL5311030200108380309/07/201809/07/201809/07/201801922560Rgl/Facture 1911018 CARTED4           649CB00    0             0911018                   0                       0                       0                       0                       0             
LS 2018C02000008031410/07/2018094849AGR4111000000108380309/07/201809/07/201809/07/201801922561Rgl/Fact  1911019        C4          2265  00    0             0911019                   0                       0                       0                       0                       0             
LS 2018C02000008031410/07/2018094849RGL5311030200108380309/07/201809/07/201809/07/201801922561Rgl/Facture 1911019 ESPECD4          2265ES00    0             0911019                   0                       0                       0                       0                       0             
LS 2018C02000008031410/07/2018094849AGR4111000000108380309/07/201809/07/201809/07/201801922562Rgl/Fact  1911020        C4          4134  00    0             0911020                   0                       0                       0                       0                       0             
LS 2018C02000008031410/07/2018094849RGL5311030200108380309/07/201809/07/201809/07/201801922562Rgl/Facture 1911020 CARTED4          4134CB00    0             0911020                   0                       0                       0                       0                       0             
LS 2018C02000008031410/07/2018094849AGR4111000000108380309/07/201809/07/201809/07/201801922563Rgl/Fact  1911021        C4          1999  00    0             0911021                   0                       0                       0                       0                       0             
LS 2018C02000008031410/07/2018094849RGL5311030200108380309/07/201809/07/201809/07/201801922563Rgl/Facture 1911021 ESPECD4          1999ES00    0             0911021                   0                       0                       0                       0                       0             
LS 2018C02000008031410/07/2018094849AGR4111000000108380309/07/201809/07/201809/07/201801922564Rgl/Fact  1911022        C4          3498  00    0             0911022                   0                       0                       0                       0                       0             
LS 2018C02000008031410/07/2018094849RGL5311030200108380309/07/201809/07/201809/07/201801922564Rgl/Facture 1911022 CARTED4          3498CB00    0             0911022                   0                       0                       0                       0                       0             
LS 2018C02000008031410/07/2018094849AGR4111000000108380309/07/201809/07/201809/07/201801922565Rgl/Fact  1911023        C4          1080  00    0             0911023                   0                       0                       0                       0                       0             
LS 2018C02000008031410/07/2018094849RGL5311030200108380309/07/201809/07/201809/07/201801922565Rgl/Facture 1911023 CARTED4          1080CB00    0             0911023                   0                       0                       0                       0                       0             
LS 2018C02000008031410/07/2018094849AGR4111000000108380309/07/201809/07/201809/07/201801922566Rgl/Fact  1911024        C4          3780  00    0             0911024                   0                       0                       0                       0                       0             
LS 2018C02000008031410/07/2018094849RGL5311030200108380309/07/201809/07/201809/07/201801922566Rgl/Facture 1911024 CARTED4          3780CB00    0             0911024                   0                       0                       0                       0                       0             
LS 2018C02000008031410/07/2018094849AGR4111000000108380309/07/201809/07/201809/07/201801922567Rgl/Fact  1911025        C4           299  00    0             0911025                   0                       0                       0                       0                       0             
LS 2018C02000008031410/07/2018094849RGL5311030200108380309/07/201809/07/201809/07/201801922567Rgl/Facture 1911025 ESPECD4           299ES00    0             0911025                   0                       0                       0                       0                       0             
LS 2018C02000008031410/07/2018094849AGR4111000000108380309/07/201809/07/201809/07/201801922568Rgl/Fact  1911026        C4          1115  00    0             0911026                   0                       0                       0                       0                       0             
LS 2018C02000008031410/07/2018094849RGL5311030200108380309/07/201809/07/201809/07/201801922568Rgl/Facture 1911026 CARTED4          1115CB00    0             0911026                   0                       0                       0                       0                       0             
LS 2018C02000008031410/07/2018094849AGR4111000000108380309/07/201809/07/201809/07/201801922570Rgl/Fact  1911028        C4         11789  00    0             0911028                   0                       0                       0                       0                       0             
LS 2018C02000008031410/07/2018094849RGL5311030200108380309/07/201809/07/201809/07/201801922570Rgl/Facture 1911028 CARTED4         11789CB00    0             0911028                   0                       0                       0                       0                       0             
LS 2018C02000008031410/07/2018094849AGR4111000000108380309/07/201809/07/201809/07/201801922571Rgl/Fact  1911029        C4          2789  00    0             0911029                   0                       0                       0                       0                       0             
LS 2018C02000008031410/07/2018094849RGL5311030200108380309/07/201809/07/201809/07/201801922571Rgl/Facture 1911029 ESPECD4          2789ES00    0             0911029                   0                       0                       0                       0                       0             
LS 2018C02000008031410/07/2018094849AGR4111000000108380309/07/201809/07/201809/07/201801922572Rgl/Fact  1911030        C4          2129  00    0             0911030                   0                       0                       0                       0                       0             
LS 2018C02000008031410/07/2018094849RGL5311030200108380309/07/201809/07/201809/07/201801922572Rgl/Facture 1911030 CHEQUD4          2129CH00    0             0911030                   0                       0                       0                       0                       0             
LS 2018C02000008031410/07/2018094849AGR4111000000108380309/07/201809/07/201809/07/201801922573Rgl/Fact  1911031        C4          2319  00    0             0911031                   0                       0                       0                       0                       0             
LS 2018C02000008031410/07/2018094849RGL5311030200108380309/07/201809/07/201809/07/201801922573Rgl/Facture 1911031 CARTED4          2319CB00    0             0911031                   0                       0                       0                       0                       0             
LS 2018C02000008031410/07/2018094849AGR4111000000108380309/07/201809/07/201809/07/201801922574Rgl/Fact  1911032        C4           499  00    0             0911032                   0                       0                       0                       0                       0             
LS 2018C02000008031410/07/2018094849RGL5311030200108380309/07/201809/07/201809/07/201801922574Rgl/Facture 1911032 ESPECD4           499ES00    0             0911032                   0                       0                       0                       0                       0             
LS 2018C02000008031410/07/2018094849AGR4111000000108380309/07/201809/07/201809/07/201801922575Rgl/Avoir  1911033       D4          3650  00    0             0911033                   0                       0                       0                       0                       0             
LS 2018C02000008031410/07/2018094849RGL4197000000108380309/07/201809/07/201809/07/201801922575Rgl/Facture 1911033 AVOIRC4          3650BA00    0             0911033                   0                       0                       0                       0                       0             
LS 2018C02000008031410/07/2018094849AGR4111000000108380309/07/201809/07/201809/07/201801922576Rgl/Fact  1911034        C4          3650  00    0             0911034                   0                       0                       0                       0                       0             
LS 2018C02000008031410/07/2018094849RGL4197000000108380309/07/201809/07/201809/07/201801922576Rgl/Facture 1911033 AVOIRD4          3650AV00    0             0911034                   0                       0                       0                       0                       0             
LS 2018C02000008031410/07/2018094849AGR4111000000108380309/07/201809/07/201809/07/201801922577Rgl/Fact  1911035        C4          1185  00    0             0911035                   0                       0                       0                       0                       0             
LS 2018C02000008031410/07/2018094849RGL5311030200108380309/07/201809/07/201809/07/201801922577Rgl/Facture 1911035 CARTED4          1185CB00    0             0911035                   0                       0                       0                       0                       0             
LS 2018C02000008031410/07/2018094849AGR4111000000108380309/07/201809/07/201809/07/201801922578Rgl/Fact  1911036        C4          4644  00    0             0911036                   0                       0                       0                       0                       0             
LS 2018C02000008031410/07/2018094849RGL5311030200108380309/07/201809/07/201809/07/201801922578Rgl/Facture 1911036 CARTED4          4644CB00    0             0911036                   0                       0                       0                       0                       0             
LS 2018C02000008031410/07/2018094849AGR4111000000108380309/07/201809/07/201809/07/201801922579Rgl/Fact  1911037        C4          2165  00    0             0911037                   0                       0                       0                       0                       0             
LS 2018C02000008031410/07/2018094849RGL5311030200108380309/07/201809/07/201809/07/201801922579Rgl/Facture 1911037 CARTED4          2165CB00    0             0911037                   0                       0                       0                       0                       0             
LS 2018C02000008031410/07/2018094849AGR4111000000108380309/07/201809/07/201809/07/201801922580Rgl/Avoir  1911038       D4           920  00    0             0911038                   0                       0                       0                       0                       0             
LS 2018C02000008031410/07/2018094849RGL4197000000108380309/07/201809/07/201809/07/201801922580Rgl/Facture 1911038 AVOIRC4           920BA00    0             0911038                   0                       0                       0                       0                       0             
LS 2018C02000008031410/07/2018094849AGR4111000000108380309/07/201809/07/201809/07/201801922581Rgl/Fact  1911039        C4          1510  00    0             0911039                   0                       0                       0                       0                       0             
LS 2018C02000008031410/07/2018094849RGL4197000000108380309/07/201809/07/201809/07/201801922581Rgl/Facture 1911038 AVOIRD4           920AV00    0             0911039                   0                       0                       0                       0                       0             
LS 2018C02000008031410/07/2018094849RGL5311030200108380309/07/201809/07/201809/07/201801922581Rgl/Facture 1911039 ESPECD4           590ES00    0             0911039                   0                       0                       0                       0                       0             
LS 2018C02000008031410/07/2018094849AGR4111000000108380309/07/201809/07/201809/07/201801922582Rgl/Fact  1911040        C4          3714  00    0             0911040                   0                       0                       0                       0                       0             
LS 2018C02000008031410/07/2018094849RGL5311030200108380309/07/201809/07/201809/07/201801922582Rgl/Facture 1911040 CARTED4          3714CB00    0             0911040                   0                       0                       0                       0                       0             
LS 2018C02000008031410/07/2018094849AGR4111000000108380309/07/201809/07/201809/07/201801922583Rgl/Fact  1911041        C4          2840  00    0             0911041                   0                       0                       0                       0                       0             
LS 2018C02000008031410/07/2018094849RGL5311030200108380309/07/201809/07/201809/07/201801922583Rgl/Facture 1911041 CARTED4          2840CB00    0             0911041                   0                       0                       0                       0                       0             
LS 2018C02000008031410/07/2018094849AGR4111000002210076209/07/201809/07/201809/07/201801922569Rgl/Fact  1911027        C4           891  00    0             0911027                   0                       0                       0                       0                       0             
LS 2018C02000008031410/07/2018094849RGL5311030202210076209/07/201809/07/201809/07/201801922569Rgl/Facture 1911027 CARTED4           891CB00    0             0911027                   0                       0                       0                       0                       0             
LS 2018C02000008031410/07/2018094849RGL5820000001083803 09/07/201809/07/201809/07/201801922585302/Remise CH  09072018  D4          2129CH00    0             0072018                   0                       0                       0                       0                       0             
LS 2018C02000008031410/07/2018094849RGL531103020        09/07/201809/07/201809/07/201801922585302/Remise CH  09072018 CC4          2129CH00    0             0072018                   0                       0                       0                       0                       0             
LS 2018C02000008031410/07/2018094849RGL5830000001083803 09/07/201809/07/201809/07/201801922588302/Remise CB            D4         43803CB00    0             0000000                   0                       0                       0                       0                       0             
LS 2018C02000008031410/07/2018094849RGL531103020        09/07/201809/07/201809/07/201801922588302/Remise CB   CARTE    C4         43803CB00    0             0000000                   0                       0                       0                       0                       0             
