LS 2018C49000008033310/07/2018094926AGR4111000000000098609/07/201809/07/201809/07/201801825218Rgl/Fact  24920249       C4          4490  00    0             0920249                   0                       0                       0                       0                       0             
LS 2018C49000008033310/07/2018094926RGL5311449000000098609/07/201809/07/201809/07/201801825218Rgl/Facture 24920249 CHEQD4          4490CH00    0             0920249                   0                       0                       0                       0                       0             
LS 2018C49000008033310/07/2018094926AGR4111000000000098609/07/201809/07/201809/07/201801825219Rgl/Fact  24920250       C4         13887  00    0             0920250                   0                       0                       0                       0                       0             
LS 2018C49000008033310/07/2018094926RGL5311449000000098609/07/201809/07/201809/07/201801825219Rgl/Facture 24920250 ESPED4         13887ES00    0             0920250                   0                       0                       0                       0                       0             
LS 2018C49000008033310/07/2018094926AGR4111000000000098609/07/201809/07/201809/07/201801825220Rgl/Fact  24920251       C4          1775  00    0             0920251                   0                       0                       0                       0                       0             
LS 2018C49000008033310/07/2018094926RGL5311449000000098609/07/201809/07/201809/07/201801825220Rgl/Facture 24920251 ESPED4          1775ES00    0             0920251                   0                       0                       0                       0                       0             
LS 2018C49000008033310/07/2018094926AGR4111000000000098609/07/201809/07/201809/07/201801825221Rgl/Fact  24920252       C4          1499  00    0             0920252                   0                       0                       0                       0                       0             
LS 2018C49000008033310/07/2018094926RGL5311449000000098609/07/201809/07/201809/07/201801825221Rgl/Facture 24920252 CARTD4          1499CB00    0             0920252                   0                       0                       0                       0                       0             
LS 2018C49000008033310/07/2018094926AGR4111000000000098609/07/201809/07/201809/07/201801825222Rgl/Fact  24920253       C4          4225  00    0             0920253                   0                       0                       0                       0                       0             
LS 2018C49000008033310/07/2018094926RGL5311449000000098609/07/201809/07/201809/07/201801825222Rgl/Facture 24920253 ESPED4          4225ES00    0             0920253                   0                       0                       0                       0                       0             
LS 2018C49000008033310/07/2018094926AGR4111000000000098609/07/201809/07/201809/07/201801825223Rgl/Fact  24920254       C4          2028  00    0             0920254                   0                       0                       0                       0                       0             
LS 2018C49000008033310/07/2018094926RGL5311449000000098609/07/201809/07/201809/07/201801825223Rgl/Facture 24920254 ESPED4          2028ES00    0             0920254                   0                       0                       0                       0                       0             
LS 2018C49000008033310/07/2018094926AGR4111000000000098609/07/201809/07/201809/07/201801825224Rgl/Fact  24920255       C4           599  00    0             0920255                   0                       0                       0                       0                       0             
LS 2018C49000008033310/07/2018094926RGL5311449000000098609/07/201809/07/201809/07/201801825224Rgl/Facture 24920255 ESPED4           599ES00    0             0920255                   0                       0                       0                       0                       0             
LS 2018C49000008033310/07/2018094926AGR4111000000000098609/07/201809/07/201809/07/201801825225Rgl/Fact  24920256       C4           999  00    0             0920256                   0                       0                       0                       0                       0             
LS 2018C49000008033310/07/2018094926RGL5311449000000098609/07/201809/07/201809/07/201801825225Rgl/Facture 24920256 ESPED4           999ES00    0             0920256                   0                       0                       0                       0                       0             
LS 2018C49000008033310/07/2018094926AGR4111000000000098609/07/201809/07/201809/07/201801825226Rgl/Fact  24920257       C4           300  00    0             0920257                   0                       0                       0                       0                       0             
LS 2018C49000008033310/07/2018094926RGL5311449000000098609/07/201809/07/201809/07/201801825226Rgl/Facture 24920257 ESPED4           300ES00    0             0920257                   0                       0                       0                       0                       0             
LS 2018C49000008033310/07/2018094926RGL5830000000000098609/07/201809/07/201809/07/201801825228449/Remise CB            D4          1499CB00    0             0000000                   0                       0                       0                       0                       0             
LS 2018C49000008033310/07/2018094926RGL531144900        09/07/201809/07/201809/07/201801825228449/Remise CB   CARTE    C4          1499CB00    0             0000000                   0                       0                       0                       0                       0             
LS 2018C49000008033310/07/2018094926RGL5820000000000098609/07/201809/07/201809/07/201801825229449/Remise CH  1724206   D4          4490CH00    0             0724206                   0                       0                       0                       0                       0             
LS 2018C49000008033310/07/2018094926RGL531144900        09/07/201809/07/201809/07/201801825229449/Remise CH  1724206 CHC4          4490CH00    0             0724206                   0                       0                       0                       0                       0             
LS 2018C49000008033310/07/2018094926RGL5810000000000098609/07/201809/07/201809/07/201801825232449/Remise ES            D4         23813ES00    0             0000000                   0                       0                       0                       0                       0             
LS 2018C49000008033310/07/2018094926RGL531144900        09/07/201809/07/201809/07/201801825232449/Remise ES   ESPECE   C4         23813ES00    0             0000000                   0                       0                       0                       0                       0             
