LS 2018C29000008032410/07/2018094908AGR4111000000900299909/07/201809/07/201809/07/201801030774Rgl/Fact  23551          C4          1946  00    0             0023551                   0                       0                       0                       0                       0             
LS 2018C29000008032410/07/2018094908RGL5311080100900299909/07/201809/07/201809/07/201801030774Rgl/Facture 23551 CARTE  D4          1946CB00    0             0023551                   0                       0                       0                       0                       0             
LS 2018C29000008032410/07/2018094908AGR4111000000900299909/07/201809/07/201809/07/201801030775Rgl/Fact  23552          C4         10264  00    0             0023552                   0                       0                       0                       0                       0             
LS 2018C29000008032410/07/2018094908RGL5311080100900299909/07/201809/07/201809/07/201801030775Rgl/Facture 23552 CARTE  D4         10264CB00    0             0023552                   0                       0                       0                       0                       0             
LS 2018C29000008032410/07/2018094908AGR4111000000900299909/07/201809/07/201809/07/201801030776Rgl/Fact  23553          C4          3440  00    0             0023553                   0                       0                       0                       0                       0             
LS 2018C29000008032410/07/2018094908RGL4197000000900299909/07/201809/07/201809/07/201801030776Rgl/Facture 23419 AVOIR  D4           398AV00    0             0023553                   0                       0                       0                       0                       0             
LS 2018C29000008032410/07/2018094908RGL5311080100900299909/07/201809/07/201809/07/201801030776Rgl/Facture 23553 CARTE  D4          3042CB00    0             0023553                   0                       0                       0                       0                       0             
LS 2018C29000008032410/07/2018094908AGR4111000000900299909/07/201809/07/201809/07/201801030777Rgl/Fact  23554          C4          2799  00    0             0023554                   0                       0                       0                       0                       0             
LS 2018C29000008032410/07/2018094908RGL5311080100900299909/07/201809/07/201809/07/201801030777Rgl/Facture 23554 CARTE  D4          2799CB00    0             0023554                   0                       0                       0                       0                       0             
LS 2018C29000008032410/07/2018094908AGR4111000000900299909/07/201809/07/201809/07/201801030778Rgl/Fact  23555          C4          3926  00    0             0023555                   0                       0                       0                       0                       0             
LS 2018C29000008032410/07/2018094908RGL5311080100900299909/07/201809/07/201809/07/201801030778Rgl/Facture 23555 CARTE  D4          3926CB00    0             0023555                   0                       0                       0                       0                       0             
LS 2018C29000008032410/07/2018094908AGR4111000000900299909/07/201809/07/201809/07/201801030779Rgl/Fact  23556          C4          5316  00    0             0023556                   0                       0                       0                       0                       0             
LS 2018C29000008032410/07/2018094908RGL5311080100900299909/07/201809/07/201809/07/201801030779Rgl/Facture 23556 CARTE  D4          5316CB00    0             0023556                   0                       0                       0                       0                       0             
LS 2018C29000008032410/07/2018094908AGR4111000000900299909/07/201809/07/201809/07/201801030780Rgl/Fact  23557          C4           200  00    0             0023557                   0                       0                       0                       0                       0             
LS 2018C29000008032410/07/2018094908RGL5311080100900299909/07/201809/07/201809/07/201801030780Rgl/Facture 23557 ESPECE D4           200ES00    0             0023557                   0                       0                       0                       0                       0             
LS 2018C29000008032410/07/2018094908AGR4111000000900299909/07/201809/07/201809/07/201801030781Rgl/Fact  23558          C4          1683  00    0             0023558                   0                       0                       0                       0                       0             
LS 2018C29000008032410/07/2018094908RGL5311080100900299909/07/201809/07/201809/07/201801030781Rgl/Facture 23558 CARTE  D4          1683CB00    0             0023558                   0                       0                       0                       0                       0             
LS 2018C29000008032410/07/2018094908AGR4111000000900299909/07/201809/07/201809/07/201801030782Rgl/Fact  23559          C4           899  00    0             0023559                   0                       0                       0                       0                       0             
LS 2018C29000008032410/07/2018094908RGL5311080100900299909/07/201809/07/201809/07/201801030782Rgl/Facture 23559 ESPECE D4           899ES00    0             0023559                   0                       0                       0                       0                       0             
LS 2018C29000008032410/07/2018094908AGR4111000000900299909/07/201809/07/201809/07/201801030783Rgl/Avoir  23560         D4           899  00    0             0023560                   0                       0                       0                       0                       0             
LS 2018C29000008032410/07/2018094908RGL5311080100900299909/07/201809/07/201809/07/201801030783Rgl/Facture 23560 ESPECE C4           899ES00    0             0023560                   0                       0                       0                       0                       0             
LS 2018C29000008032410/07/2018094908AGR4111000000900299909/07/201809/07/201809/07/201801030784Rgl/Fact  23561          C4          1299  00    0             0023561                   0                       0                       0                       0                       0             
LS 2018C29000008032410/07/2018094908RGL5311080100900299909/07/201809/07/201809/07/201801030784Rgl/Facture 23561 ESPECE D4          1299ES00    0             0023561                   0                       0                       0                       0                       0             
LS 2018C29000008032410/07/2018094908AGR4111000000900299909/07/201809/07/201809/07/201801030785Rgl/Fact  23562          C4           749  00    0             0023562                   0                       0                       0                       0                       0             
LS 2018C29000008032410/07/2018094908RGL5311080100900299909/07/201809/07/201809/07/201801030785Rgl/Facture 23562 CHEQUE D4           749CH00    0             0023562                   0                       0                       0                       0                       0             
LS 2018C29000008032410/07/2018094908AGR4111000000900299909/07/201809/07/201809/07/201801030786Rgl/Fact  23563          C4          8473  00    0             0023563                   0                       0                       0                       0                       0             
LS 2018C29000008032410/07/2018094908RGL5311080100900299909/07/201809/07/201809/07/201801030786Rgl/Facture 23563 CARTE  D4          8473CB00    0             0023563                   0                       0                       0                       0                       0             
LS 2018C29000008032410/07/2018094908AGR4111000000900299909/07/201809/07/201809/07/201801030787Rgl/Fact  23564          C4          4460  00    0             0023564                   0                       0                       0                       0                       0             
LS 2018C29000008032410/07/2018094908RGL5311080100900299909/07/201809/07/201809/07/201801030787Rgl/Facture 23564 CHEQUE D4          4460CH00    0             0023564                   0                       0                       0                       0                       0             
LS 2018C29000008032410/07/2018094908AGR4111000000900299909/07/201809/07/201809/07/201801030788Rgl/Fact  23565          C4           899  00    0             0023565                   0                       0                       0                       0                       0             
LS 2018C29000008032410/07/2018094908RGL5311080100900299909/07/201809/07/201809/07/201801030788Rgl/Facture 23565 ESPECE D4           899ES00    0             0023565                   0                       0                       0                       0                       0             
LS 2018C29000008032410/07/2018094908AGR4111000000900299909/07/201809/07/201809/07/201801030789Rgl/Fact  23566          C4          1498  00    0             0023566                   0                       0                       0                       0                       0             
LS 2018C29000008032410/07/2018094908RGL5311080100900299909/07/201809/07/201809/07/201801030789Rgl/Facture 23566 ESPECE D4          1498ES00    0             0023566                   0                       0                       0                       0                       0             
LS 2018C29000008032410/07/2018094908AGR4111000000900299909/07/201809/07/201809/07/201801030790Rgl/Fact  23567          C4          2146  00    0             0023567                   0                       0                       0                       0                       0             
LS 2018C29000008032410/07/2018094908RGL5311080100900299909/07/201809/07/201809/07/201801030790Rgl/Facture 23567 ESPECE D4          2146ES00    0             0023567                   0                       0                       0                       0                       0             
LS 2018C29000008032410/07/2018094908AGR4111000000900299909/07/201809/07/201809/07/201801030791Rgl/Fact  23568          C4          1460  00    0             0023568                   0                       0                       0                       0                       0             
LS 2018C29000008032410/07/2018094908RGL5311080100900299909/07/201809/07/201809/07/201801030791Rgl/Facture 23568 ESPECE D4          1460ES00    0             0023568                   0                       0                       0                       0                       0             
LS 2018C29000008032410/07/2018094908AGR4111000000900299909/07/201809/07/201809/07/201801030792Rgl/Fact  23569          C4          1440  00    0             0023569                   0                       0                       0                       0                       0             
LS 2018C29000008032410/07/2018094908RGL5311080100900299909/07/201809/07/201809/07/201801030792Rgl/Facture 23569 CARTE  D4          1440CB00    0             0023569                   0                       0                       0                       0                       0             
LS 2018C29000008032410/07/2018094908AGR4111000000900299909/07/201809/07/201809/07/201801030793Rgl/Fact  23570          C4          4389  00    0             0023570                   0                       0                       0                       0                       0             
LS 2018C29000008032410/07/2018094908RGL5311080100900299909/07/201809/07/201809/07/201801030793Rgl/Facture 23570 CARTE  D4          4389CB00    0             0023570                   0                       0                       0                       0                       0             
LS 2018C29000008032410/07/2018094908AGR4111000000900299909/07/201809/07/201809/07/201801030794Rgl/Fact  23571          C4           899  00    0             0023571                   0                       0                       0                       0                       0             
LS 2018C29000008032410/07/2018094908RGL5311080100900299909/07/201809/07/201809/07/201801030794Rgl/Facture 23571 CARTE  D4           899CB00    0             0023571                   0                       0                       0                       0                       0             
LS 2018C29000008032410/07/2018094908AGR4111000000900299909/07/201809/07/201809/07/201801030795Rgl/Fact  23572          C4           849  00    0             0023572                   0                       0                       0                       0                       0             
LS 2018C29000008032410/07/2018094908RGL5311080100900299909/07/201809/07/201809/07/201801030795Rgl/Facture 23572 ESPECE D4           849ES00    0             0023572                   0                       0                       0                       0                       0             
LS 2018C29000008032410/07/2018094908RGL5820000009002999 09/07/201809/07/201809/07/201801030798229/Remise CH  9836352   D4          5209CH00    0             0836352                   0                       0                       0                       0                       0             
LS 2018C29000008032410/07/2018094908RGL531108010        09/07/201809/07/201809/07/201801030798229/Remise CH  9836352 CHC4          5209CH00    0             0836352                   0                       0                       0                       0                       0             
LS 2018C29000008032410/07/2018094908RGL5830000009002999 09/07/201809/07/201809/07/201801030799229/Remise CB            D4         44177CB00    0             0000000                   0                       0                       0                       0                       0             
LS 2018C29000008032410/07/2018094908RGL531108010        09/07/201809/07/201809/07/201801030799229/Remise CB   CARTE    C4         44177CB00    0             0000000                   0                       0                       0                       0                       0             
