LS 2018C05000008031610/07/2018094855AGR4111000000116070309/07/201809/07/201809/07/201801242334Rgl/Fact  3233879        C4         14419  00    0             0233879                   0                       0                       0                       0                       0             
LS 2018C05000008031610/07/2018094855RGL5311010500116070309/07/201809/07/201809/07/201801242334Rgl/Facture 3233879 CARTED4         14419CB00    0             0233879                   0                       0                       0                       0                       0             
LS 2018C05000008031610/07/2018094855AGR4111000000116070309/07/201809/07/201809/07/201801242335Rgl/Fact  3233880        C4          2144  00    0             0233880                   0                       0                       0                       0                       0             
LS 2018C05000008031610/07/2018094855RGL5311010500116070309/07/201809/07/201809/07/201801242335Rgl/Facture 3233880 CARTED4          2144CB00    0             0233880                   0                       0                       0                       0                       0             
LS 2018C05000008031610/07/2018094855AGR4111000000116070309/07/201809/07/201809/07/201801242336Rgl/Fact  3233881        C4          4140  00    0             0233881                   0                       0                       0                       0                       0             
LS 2018C05000008031610/07/2018094855RGL5311010500116070309/07/201809/07/201809/07/201801242336Rgl/Facture 3233881 CHEQUD4          4140CH00    0             0233881                   0                       0                       0                       0                       0             
LS 2018C05000008031610/07/2018094855AGR4111000000116070309/07/201809/07/201809/07/201801242337Rgl/Fact  3233882        C4          4545  00    0             0233882                   0                       0                       0                       0                       0             
LS 2018C05000008031610/07/2018094855RGL5311010500116070309/07/201809/07/201809/07/201801242337Rgl/Facture 3233882 CARTED4          4545CB00    0             0233882                   0                       0                       0                       0                       0             
LS 2018C05000008031610/07/2018094855AGR4111000000116070309/07/201809/07/201809/07/201801242338Rgl/Fact  3233883        C4          2998  00    0             0233883                   0                       0                       0                       0                       0             
LS 2018C05000008031610/07/2018094855RGL5311010500116070309/07/201809/07/201809/07/201801242338Rgl/Facture 3233883 CARTED4          2998CB00    0             0233883                   0                       0                       0                       0                       0             
LS 2018C05000008031610/07/2018094855AGR4111000000116070309/07/201809/07/201809/07/201801242339Rgl/Fact  3233884        C4          1699  00    0             0233884                   0                       0                       0                       0                       0             
LS 2018C05000008031610/07/2018094855RGL5311010500116070309/07/201809/07/201809/07/201801242339Rgl/Facture 3233884 ESPECD4          1699ES00    0             0233884                   0                       0                       0                       0                       0             
LS 2018C05000008031610/07/2018094855AGR4111000000116070309/07/201809/07/201809/07/201801242340Rgl/Fact  3233885        C4          1959  00    0             0233885                   0                       0                       0                       0                       0             
LS 2018C05000008031610/07/2018094855RGL5311010500116070309/07/201809/07/201809/07/201801242340Rgl/Facture 3233885 CARTED4          1959CB00    0             0233885                   0                       0                       0                       0                       0             
LS 2018C05000008031610/07/2018094855AGR4111000000116070309/07/201809/07/201809/07/201801242341Rgl/Fact  3233886        C4           599  00    0             0233886                   0                       0                       0                       0                       0             
LS 2018C05000008031610/07/2018094855RGL5311010500116070309/07/201809/07/201809/07/201801242341Rgl/Facture 3233886 ESPECD4           599ES00    0             0233886                   0                       0                       0                       0                       0             
LS 2018C05000008031610/07/2018094855AGR4111000000116070309/07/201809/07/201809/07/201801242342Rgl/Fact  3233887        C4          4338  00    0             0233887                   0                       0                       0                       0                       0             
LS 2018C05000008031610/07/2018094855RGL5311010500116070309/07/201809/07/201809/07/201801242342Rgl/Facture 3233887 CHEQUD4          4338CH00    0             0233887                   0                       0                       0                       0                       0             
LS 2018C05000008031610/07/2018094855AGR4111000000116070309/07/201809/07/201809/07/201801242343Rgl/Fact  3233888        C4           505  00    0             0233888                   0                       0                       0                       0                       0             
LS 2018C05000008031610/07/2018094855RGL5311010500116070309/07/201809/07/201809/07/201801242343Rgl/Facture 3233888 ESPECD4           505ES00    0             0233888                   0                       0                       0                       0                       0             
LS 2018C05000008031610/07/2018094855AGR4111000000116070309/07/201809/07/201809/07/201801242344Rgl/Fact  3233889        C4           200  00    0             0233889                   0                       0                       0                       0                       0             
LS 2018C05000008031610/07/2018094855RGL5311010500116070309/07/201809/07/201809/07/201801242344Rgl/Facture 3233889 ESPECD4           200ES00    0             0233889                   0                       0                       0                       0                       0             
LS 2018C05000008031610/07/2018094855AGR4111000000116070309/07/201809/07/201809/07/201801242345Rgl/Fact  3233890        C4         11799  00    0             0233890                   0                       0                       0                       0                       0             
LS 2018C05000008031610/07/2018094855RGL5311010500116070309/07/201809/07/201809/07/201801242345Rgl/Facture 3233890 ESPECD4         11799ES00    0             0233890                   0                       0                       0                       0                       0             
LS 2018C05000008031610/07/2018094855AGR4111000000116070309/07/201809/07/201809/07/201801242346Rgl/Fact  3233891        C4          5124  00    0             0233891                   0                       0                       0                       0                       0             
LS 2018C05000008031610/07/2018094855RGL5311010500116070309/07/201809/07/201809/07/201801242346Rgl/Facture 3233891 CARTED4          5124CB00    0             0233891                   0                       0                       0                       0                       0             
LS 2018C05000008031610/07/2018094855AGR4111000000116070309/07/201809/07/201809/07/201801242347Rgl/Fact  3233892        C4          3490  00    0             0233892                   0                       0                       0                       0                       0             
LS 2018C05000008031610/07/2018094855RGL5311010500116070309/07/201809/07/201809/07/201801242347Rgl/Facture 3233892 CHEQUD4          3490CH00    0             0233892                   0                       0                       0                       0                       0             
LS 2018C05000008031610/07/2018094855AGR4111000000116070309/07/201809/07/201809/07/201801242348Rgl/Fact  3233893        C4          3255  00    0             0233893                   0                       0                       0                       0                       0             
LS 2018C05000008031610/07/2018094855RGL5311010500116070309/07/201809/07/201809/07/201801242348Rgl/Facture 3233893 CARTED4          3255CB00    0             0233893                   0                       0                       0                       0                       0             
LS 2018C05000008031610/07/2018094855AGR4111000000116070309/07/201809/07/201809/07/201801242349Rgl/Fact  3233894        C4          1077  00    0             0233894                   0                       0                       0                       0                       0             
LS 2018C05000008031610/07/2018094855RGL5311010500116070309/07/201809/07/201809/07/201801242349Rgl/Facture 3233894 ESPECD4          1077ES00    0             0233894                   0                       0                       0                       0                       0             
LS 2018C05000008031610/07/2018094855AGR4111000000116070309/07/201809/07/201809/07/201801242350Rgl/Fact  3233895        C4          6618  00    0             0233895                   0                       0                       0                       0                       0             
LS 2018C05000008031610/07/2018094855RGL5311010500116070309/07/201809/07/201809/07/201801242350Rgl/Facture 3233895 CARTED4          6618CB00    0             0233895                   0                       0                       0                       0                       0             
LS 2018C05000008031610/07/2018094855AGR4111000000116070309/07/201809/07/201809/07/201801242351Rgl/Fact  3233896        C4          1449  00    0             0233896                   0                       0                       0                       0                       0             
LS 2018C05000008031610/07/2018094855RGL5311010500116070309/07/201809/07/201809/07/201801242351Rgl/Facture 3233896 ESPECD4          1449ES00    0             0233896                   0                       0                       0                       0                       0             
LS 2018C05000008031610/07/2018094855AGR4111000000116070309/07/201809/07/201809/07/201801242352Rgl/Fact  3233897        C4          1349  00    0             0233897                   0                       0                       0                       0                       0             
LS 2018C05000008031610/07/2018094855RGL5311010500116070309/07/201809/07/201809/07/201801242352Rgl/Facture 3233897 ESPECD4          1349ES00    0             0233897                   0                       0                       0                       0                       0             
LS 2018C05000008031610/07/2018094855AGR4111000000116070309/07/201809/07/201809/07/201801242353Rgl/Fact  3233898        C4          4927  00    0             0233898                   0                       0                       0                       0                       0             
LS 2018C05000008031610/07/2018094855RGL5311010500116070309/07/201809/07/201809/07/201801242353Rgl/Facture 3233898 CHEQUD4          4927CH00    0             0233898                   0                       0                       0                       0                       0             
LS 2018C05000008031610/07/2018094855AGR4111000000116070309/07/201809/07/201809/07/201801242354Rgl/Fact  3233899        C4          1597  00    0             0233899                   0                       0                       0                       0                       0             
LS 2018C05000008031610/07/2018094855RGL5311010500116070309/07/201809/07/201809/07/201801242354Rgl/Facture 3233899 CARTED4          1597CB00    0             0233899                   0                       0                       0                       0                       0             
LS 2018C05000008031610/07/2018094855AGR4111000000116070309/07/201809/07/201809/07/201801242355Rgl/Fact  3233900        C4          2986  00    0             0233900                   0                       0                       0                       0                       0             
LS 2018C05000008031610/07/2018094855RGL5311010500116070309/07/201809/07/201809/07/201801242355Rgl/Facture 3233900 CHEQUD4          2986CH00    0             0233900                   0                       0                       0                       0                       0             
LS 2018C05000008031610/07/2018094855AGR4111000000116070309/07/201809/07/201809/07/201801242356Rgl/Fact  3233901        C4          2747  00    0             0233901                   0                       0                       0                       0                       0             
LS 2018C05000008031610/07/2018094855RGL5311010500116070309/07/201809/07/201809/07/201801242356Rgl/Facture 3233901 CARTED4          2747CB00    0             0233901                   0                       0                       0                       0                       0             
LS 2018C05000008031610/07/2018094855AGR4111000000116070309/07/201809/07/201809/07/201801242357Rgl/Fact  3233902        C4          5998  00    0             0233902                   0                       0                       0                       0                       0             
LS 2018C05000008031610/07/2018094855RGL5311010500116070309/07/201809/07/201809/07/201801242357Rgl/Facture 3233902 CARTED4          5998CB00    0             0233902                   0                       0                       0                       0                       0             
LS 2018C05000008031610/07/2018094855AGR4111000000116070309/07/201809/07/201809/07/201801242358Rgl/Fact  3233903        C4          1649  00    0             0233903                   0                       0                       0                       0                       0             
LS 2018C05000008031610/07/2018094855RGL5311010500116070309/07/201809/07/201809/07/201801242358Rgl/Facture 3233903 ESPECD4          1649ES00    0             0233903                   0                       0                       0                       0                       0             
LS 2018C05000008031610/07/2018094855RGL5820000001160703 09/07/201809/07/201809/07/201801242360105/Remise CH  2984264   D4         19881CH00    0             0984264                   0                       0                       0                       0                       0             
LS 2018C05000008031610/07/2018094855RGL531101050        09/07/201809/07/201809/07/201801242360105/Remise CH  2984264 CHC4         19881CH00    0             0984264                   0                       0                       0                       0                       0             
LS 2018C05000008031610/07/2018094855RGL5830000001160703 09/07/201809/07/201809/07/201801242361105/Remise CB            D4         51404CB00    0             0000000                   0                       0                       0                       0                       0             
LS 2018C05000008031610/07/2018094855RGL531101050        09/07/201809/07/201809/07/201801242361105/Remise CB   CARTE    C4         51404CB00    0             0000000                   0                       0                       0                       0                       0             
