LD 201865 000002481417/10/2018191321FSR4011000009002157101/10/201815/11/201801/10/201804054586FACT ACH  4611687-CHAUSS C3         75492VI00    0             0000000               7549215/11/2018             0                       0                       0                       0             
LD 201865 000002481417/10/2018191321GEN6075000009002157101/10/201815/11/201801/10/201804054586FACT ACH                 D3         62910  02 2000         62910000000452304             0                       0                       0                       0                       0             
LD 201865 000002481417/10/2018191321TVA4456600009002157101/10/201815/11/201801/10/201804054586TVA FACT ACH             D3         12582  02 2000         62910000000                   0                       0                       0                       0                       0             
LD 201865 000002481417/10/2018191321FSR4011000009002157101/10/201815/11/201801/10/201804054587FACT ACH  4611688-CHAUSS C3         14700VI00    0             0000000               1470015/11/2018             0                       0                       0                       0             
LD 201865 000002481417/10/2018191321GEN6075000009002157101/10/201815/11/201801/10/201804054587FACT ACH                 D3         12250  02 2000         12250000000461304             0                       0                       0                       0                       0             
LD 201865 000002481417/10/2018191321TVA4456600009002157101/10/201815/11/201801/10/201804054587TVA FACT ACH             D3          2450  02 2000         12250000000                   0                       0                       0                       0                       0             
LD 201865 000002481417/10/2018191321FSR4011000009002157101/10/201815/11/201801/10/201804054588FACT ACH  4611695-CHAUSS C3        191376VI00    0             0000000              19137615/11/2018             0                       0                       0                       0             
LD 201865 000002481417/10/2018191321GEN6075000009002157101/10/201815/11/201801/10/201804054588FACT ACH                 D3        159480  02 2000        159480000000461304             0                       0                       0                       0                       0             
LD 201865 000002481417/10/2018191321TVA4456600009002157101/10/201815/11/201801/10/201804054588TVA FACT ACH             D3         31896  02 2000        159480000000                   0                       0                       0                       0                       0             
LD 201865 000002481417/10/2018191321FSR4011000009002157101/10/201815/11/201801/10/201804054589FACT ACH  4611689-CHAUSS C3        115884VI00    0             0000000              11588415/11/2018             0                       0                       0                       0             
LD 201865 000002481417/10/2018191321GEN6075000009002157101/10/201815/11/201801/10/201804054589FACT ACH                 D3         96570  02 2000         96570000000459304             0                       0                       0                       0                       0             
LD 201865 000002481417/10/2018191321TVA4456600009002157101/10/201815/11/201801/10/201804054589TVA FACT ACH             D3         19314  02 2000         96570000000                   0                       0                       0                       0                       0             
LD 201865 000002481417/10/2018191321FSR4011000009002157101/10/201815/11/201809/10/201804054590FACT ACH  4611691-CHAUSS C3         83628VI00    0             0000000               8362815/11/2018             0                       0                       0                       0             
LD 201865 000002481417/10/2018191321GEN6075000009002157101/10/201815/11/201809/10/201804054590FACT ACH                 D3         69690  02 2000         69690000000453304             0                       0                       0                       0                       0             
LD 201865 000002481417/10/2018191321TVA4456600009002157101/10/201815/11/201809/10/201804054590TVA FACT ACH             D3         13938  02 2000         69690000000                   0                       0                       0                       0                       0             
LD 201865 000002481417/10/2018191321FSR4011000009002157101/10/201815/11/201801/10/201804054591FACT ACH  4611692-CHAUSS C3         37474VI00    0             0000000               3747415/11/2018             0                       0                       0                       0             
LD 201865 000002481417/10/2018191321GEN6075000009002157101/10/201815/11/201801/10/201804054591FACT ACH                 D3         29500  02 2000         29500000000466304             0                       0                       0                       0                       0             
LD 201865 000002481417/10/2018191321GEN6075000009002157101/10/201815/11/201801/10/201804054591FACT ACH                 D3          1728  02 2000          1728000000466310             0                       0                       0                       0                       0             
LD 201865 000002481417/10/2018191321TVA4456600009002157101/10/201815/11/201801/10/201804054591TVA FACT ACH             D3          6246  02 2000         31228000000                   0                       0                       0                       0                       0             
LD 201865 000002481417/10/2018191321FSR4011000009002157101/10/201815/11/201801/10/201804054593FACT ACH  4611683-CHAUSS C3         21492VI00    0             0000000               2149215/11/2018             0                       0                       0                       0             
LD 201865 000002481417/10/2018191321GEN6075000009002157101/10/201815/11/201801/10/201804054593FACT ACH                 D3         17910  02 2000         17910000000453304             0                       0                       0                       0                       0             
LD 201865 000002481417/10/2018191321TVA4456600009002157101/10/201815/11/201801/10/201804054593TVA FACT ACH             D3          3582  02 2000         17910000000                   0                       0                       0                       0                       0             
LD 201865 000002481417/10/2018191321FSR4011000009002157101/10/201815/11/201801/10/201804054594FACT ACH  4611620-CHAUSS C3        229511VI00    0             0000000              22951115/11/2018             0                       0                       0                       0             
LD 201865 000002481417/10/2018191321GEN6075000009002157101/10/201815/11/201801/10/201804054594FACT ACH                 D3        191259  02 2000        191259000000460304             0                       0                       0                       0                       0             
LD 201865 000002481417/10/2018191321TVA4456600009002157101/10/201815/11/201801/10/201804054594TVA FACT ACH             D3         38252  02 2000        191259000000                   0                       0                       0                       0                       0             
LD 201865 000002481417/10/2018191321FSR4011000009002157101/10/201815/11/201801/10/201804054595FACT ACH  4611656-CHAUSS C3         27216VI00    0             0000000               2721615/11/2018             0                       0                       0                       0             
LD 201865 000002481417/10/2018191321GEN6075000009002157101/10/201815/11/201801/10/201804054595FACT ACH                 D3         22680  02 2000         22680000000460304             0                       0                       0                       0                       0             
LD 201865 000002481417/10/2018191321TVA4456600009002157101/10/201815/11/201801/10/201804054595TVA FACT ACH             D3          4536  02 2000         22680000000                   0                       0                       0                       0                       0             
LD 201865 000002481417/10/2018191321FSR4011000009002157101/10/201815/11/201802/10/201804054596FACT ACH  4610929-FRANCODC3         81402VI00    0             0000000               8140215/11/2018             0                       0                       0                       0             
LD 201865 000002481417/10/2018191321GEN6075000009002157101/10/201815/11/201802/10/201804054596FACT ACH                 D3         64266  02 2000         64266000000453306             0                       0                       0                       0                       0             
LD 201865 000002481417/10/2018191321GEN6075000009002157101/10/201815/11/201802/10/201804054596FACT ACH                 D3          3894  02 2000          3894000000453307             0                       0                       0                       0                       0             
LD 201865 000002481417/10/2018191321TVA4456600009002157101/10/201815/11/201802/10/201804054596TVA FACT ACH             D3         12853  02 2000         64266000000                   0                       0                       0                       0                       0             
LD 201865 000002481417/10/2018191321TVA4456600009002157101/10/201815/11/201802/10/201804054596TVA FACT ACH             D3           389  07 1000          3894000000                   0                       0                       0                       0                       0             
LD 201865 000002481417/10/2018191321FSR4011000009002157101/10/201815/11/201801/10/201804054598FACT ACH  4610983-ZOLUX  C3         36480VI00    0             0000000               3648015/11/2018             0                       0                       0                       0             
LD 201865 000002481417/10/2018191321GEN6075000009002157101/10/201815/11/201801/10/201804054598FACT ACH                 D3         27276  02 2000         27276000000457306             0                       0                       0                       0                       0             
LD 201865 000002481417/10/2018191321GEN6075000009002157101/10/201815/11/201801/10/201804054598FACT ACH                 D3          3124  02 2000          3124000000457307             0                       0                       0                       0                       0             
LD 201865 000002481417/10/2018191321TVA4456600009002157101/10/201815/11/201801/10/201804054598TVA FACT ACH             D3          6080  02 2000         30400000000                   0                       0                       0                       0                       0             
LD 201865 000002481417/10/2018191321FSR4011000009002157101/10/201815/11/201801/10/201804054599FACT ACH  4610986-ZOLUX  C3         30282VI00    0             0000000               3028215/11/2018             0                       0                       0                       0             
LD 201865 000002481417/10/2018191321GEN6075000009002157101/10/201815/11/201801/10/201804054599FACT ACH                 D3         19051  02 2000         19051000000457306             0                       0                       0                       0                       0             
LD 201865 000002481417/10/2018191321GEN6075000009002157101/10/201815/11/201801/10/201804054599FACT ACH                 D3          6184  02 2000          6184000000457307             0                       0                       0                       0                       0             
LD 201865 000002481417/10/2018191321TVA4456600009002157101/10/201815/11/201801/10/201804054599TVA FACT ACH             D3          5047  02 2000         25235000000                   0                       0                       0                       0                       0             
LD 201865 000002481417/10/2018191321FSR4011000009002157101/10/201815/11/201804/10/201804054600FACT ACH  4610992-ZOLUX  C3        111917VI00    0             0000000              11191715/11/2018             0                       0                       0                       0             
LD 201865 000002481417/10/2018191321GEN6075000009002157101/10/201815/11/201804/10/201804054600FACT ACH                 D3         69778  02 2000         69778000000461306             0                       0                       0                       0                       0             
LD 201865 000002481417/10/2018191321GEN6075000009002157101/10/201815/11/201804/10/201804054600FACT ACH                 D3         23486  02 2000         23486000000461307             0                       0                       0                       0                       0             
LD 201865 000002481417/10/2018191321TVA4456600009002157101/10/201815/11/201804/10/201804054600TVA FACT ACH             D3         18653  02 2000         93264000000                   0                       0                       0                       0                       0             
LD 201865 000002481417/10/2018191321FSR4011000009002157101/10/201815/11/201801/10/201804054601FACT ACH  4608673-HORTIVAC3        110336VI00    0             0000000              11033615/11/2018             0                       0                       0                       0             
LD 201865 000002481417/10/2018191321GEN6075000009002157101/10/201815/11/201801/10/201804054601FACT ACH                 D3        100305  07 1000        100305000000459309             0                       0                       0                       0                       0             
LD 201865 000002481417/10/2018191321TVA4456600009002157101/10/201815/11/201801/10/201804054601TVA FACT ACH             D3         10031  07 1000        100305000000                   0                       0                       0                       0                       0             
LD 201865 000002481417/10/2018191321FSR4011000009002157101/10/201815/11/201808/10/201804054602FACT ACH  4608675-HORTIVAC3        703555VI00    0             0000000              70355515/11/2018             0                       0                       0                       0             
LD 201865 000002481417/10/2018191321GEN6075000009002157101/10/201815/11/201808/10/201804054602FACT ACH                 D3        639595  07 1000        639595000000453309             0                       0                       0                       0                       0             
LD 201865 000002481417/10/2018191321TVA4456600009002157101/10/201815/11/201808/10/201804054602TVA FACT ACH             D3         63960  07 1000        639595000000                   0                       0                       0                       0                       0             
LD 201865 000002481417/10/2018191321FSR4011000009002157101/10/201815/11/201801/10/201804054603FACT ACH  4608678-HORTIVAC3        155458VI00    0             0000000              15545815/11/2018             0                       0                       0                       0             
LD 201865 000002481417/10/2018191321GEN6075000009002157101/10/201815/11/201801/10/201804054603FACT ACH                 D3        141325  07 1000        141325000000461309             0                       0                       0                       0                       0             
LD 201865 000002481417/10/2018191321TVA4456600009002157101/10/201815/11/201801/10/201804054603TVA FACT ACH             D3         14133  07 1000        141325000000                   0                       0                       0                       0                       0             
LD 201865 000002481417/10/2018191321FSR4011000009060159901/10/201831/10/201801/10/201804054604FACT ACH  F17301-GOURM SOC3         62246VI00    0             0000000               6224631/10/2018             0                       0                       0                       0             
LD 201865 000002481417/10/2018191321GEN6075000009060159901/10/201831/10/201801/10/201804054604FACT ACH                 D3          2904  03  550          2904000000451308             0                       0                       0                       0                       0             
LD 201865 000002481417/10/2018191321GEN6075000009060159901/10/201831/10/201801/10/201804054604FACT ACH                 D3         49698  02 2000         49698000000451308             0                       0                       0                       0                       0             
LD 201865 000002481417/10/2018191321TVA4456600009060159901/10/201831/10/201801/10/201804054604TVA FACT ACH             D3          9312  02 2000         46560000000                   0                       0                       0                       0                       0             
LD 201865 000002481417/10/2018191321TVA4456600009060159901/10/201831/10/201801/10/201804054604TVA FACT ACH             D3           332  03  550          6042000000                   0                       0                       0                       0                       0             
LD 201865 000002481417/10/2018191321FSR4011000009002157101/10/201815/11/201805/10/201804054605FACT ACH  4608680-HORTIVAC3        266882VI00    0             0000000              26688215/11/2018             0                       0                       0                       0             
LD 201865 000002481417/10/2018191321GEN6075000009002157101/10/201815/11/201805/10/201804054605FACT ACH                 D3        242620  07 1000        242620000000452309             0                       0                       0                       0                       0             
LD 201865 000002481417/10/2018191321TVA4456600009002157101/10/201815/11/201805/10/201804054605TVA FACT ACH             D3         24262  07 1000        242620000000                   0                       0                       0                       0                       0             
LD 201865 000002481417/10/2018191321FSR4011000009002157108/10/201812/10/201808/10/201804054606AVO ACH  4625226-DECOLINED3          4344VI00    0             0000000                434412/10/2018             0                       0                       0                       0             
LD 201865 000002481417/10/2018191321GEN6075000009002157108/10/201812/10/201808/10/201804054606AVO ACH                  C3          3620  02 2000          3620000000460302             0                       0                       0                       0                       0             
LD 201865 000002481417/10/2018191321TVA4456600009002157108/10/201812/10/201808/10/201804054606TVA AVO ACH              C3           724  02 2000          3620000000                   0                       0                       0                       0                       0             
LD 201865 000002481417/10/2018191321FSR4011000009002157108/10/201815/10/201808/10/201804054607AVO ACH  4625224-COGEX   D3           240VI00    0             0000000                 24015/10/2018             0                       0                       0                       0             
LD 201865 000002481417/10/2018191321GEN6075000009002157108/10/201815/10/201808/10/201804054607AVO ACH                  C3           200  02 2000           200000000460301             0                       0                       0                       0                       0             
LD 201865 000002481417/10/2018191321TVA4456600009002157108/10/201815/10/201808/10/201804054607TVA AVO ACH              C3            40  02 2000           200000000                   0                       0                       0                       0                       0             
LD 201865 000002481417/10/2018191321FSR4011000009002157108/10/201812/10/201808/10/201804054608AVO ACH  4625068-COGEX   D3        500566VI00    0             0000000              50056612/10/2018             0                       0                       0                       0             
LD 201865 000002481417/10/2018191321GEN6075000009002157108/10/201812/10/201808/10/201804054608AVO ACH                  C3        417138  02 2000        417138000000461301             0                       0                       0                       0                       0             
LD 201865 000002481417/10/2018191321TVA4456600009002157108/10/201812/10/201808/10/201804054608TVA AVO ACH              C3         83428  02 2000        417138000000                   0                       0                       0                       0                       0             
LD 201865 000002481417/10/2018191321FSR4011000009002157101/10/201815/11/201801/10/201804054609FACT ACH  4608621-ZOLUX  C3         41544VI00    0             0000000               4154415/11/2018             0                       0                       0                       0             
LD 201865 000002481417/10/2018191321GEN6075000009002157101/10/201815/11/201801/10/201804054609FACT ACH                 D3         18753  02 2000         18753000000466306             0                       0                       0                       0                       0             
LD 201865 000002481417/10/2018191321GEN6075000009002157101/10/201815/11/201801/10/201804054609FACT ACH                 D3         15867  02 2000         15867000000466307             0                       0                       0                       0                       0             
LD 201865 000002481417/10/2018191321TVA4456600009002157101/10/201815/11/201801/10/201804054609TVA FACT ACH             D3          6924  02 2000         34620000000                   0                       0                       0                       0                       0             
LD 201865 000002481417/10/2018191321FSR4011000009002157101/10/201815/11/201801/10/201804054610FACT ACH  4608426-KERISNEC3        293282VI00    0             0000000              29328215/11/2018             0                       0                       0                       0             
LD 201865 000002481417/10/2018191321GEN6075000009002157101/10/201815/11/201801/10/201804054610FACT ACH                 D3        266620  07 1000        266620000000460309             0                       0                       0                       0                       0             
LD 201865 000002481417/10/2018191321TVA4456600009002157101/10/201815/11/201801/10/201804054610TVA FACT ACH             D3         26662  07 1000        266620000000                   0                       0                       0                       0                       0             
LD 201865 000002481417/10/2018191321FSR4011000009002157101/10/201815/11/201801/10/201804054611FACT ACH  4608419-FABRE MC3        113441VI00    0             0000000              11344115/11/2018             0                       0                       0                       0             
LD 201865 000002481417/10/2018191321GEN6075000009002157101/10/201815/11/201801/10/201804054611FACT ACH                 D3         89024  02 2000         89024000000459302             0                       0                       0                       0                       0             
LD 201865 000002481417/10/2018191321GEN6075000009002157101/10/201815/11/201801/10/201804054611FACT ACH                 D3          5510  02 2000          5510000000459305             0                       0                       0                       0                       0             
LD 201865 000002481417/10/2018191321TVA4456600009002157101/10/201815/11/201801/10/201804054611TVA FACT ACH             D3         18907  02 2000         94534000000                   0                       0                       0                       0                       0             
LD 201865 000002481417/10/2018191321FSR4011000009002157101/10/201815/11/201801/10/201804054613FACT ACH  4608063-HILLS PC3         67170VI00    0             0000000               6717015/11/2018             0                       0                       0                       0             
LD 201865 000002481417/10/2018191321GEN6075000009002157101/10/201815/11/201801/10/201804054613FACT ACH                 D3         55974  02 2000         55974000000456307             0                       0                       0                       0                       0             
LD 201865 000002481417/10/2018191321TVA4456600009002157101/10/201815/11/201801/10/201804054613TVA FACT ACH             D3         11196  02 2000         55974000000                   0                       0                       0                       0                       0             
LD 201865 000002481417/10/2018191321FSR4011000009002157101/10/201815/11/201812/10/201804054614FACT ACH  4608052-DECOLINC3         65830VI00    0             0000000               6583015/11/2018             0                       0                       0                       0             
LD 201865 000002481417/10/2018191321GEN6075000009002157101/10/201815/11/201812/10/201804054614FACT ACH                 D3         54858  02 2000         54858000000453302             0                       0                       0                       0                       0             
LD 201865 000002481417/10/2018191321TVA4456600009002157101/10/201815/11/201812/10/201804054614TVA FACT ACH             D3         10972  02 2000         54858000000                   0                       0                       0                       0                       0             
LD 201865 000002481417/10/2018191321FSR4011000009002157101/10/201815/11/201801/10/201804054615FACT ACH  4608002-SCHLEICC3          8629VI00    0             0000000                862915/11/2018             0                       0                       0                       0             
LD 201865 000002481417/10/2018191321GEN6075000009002157101/10/201815/11/201801/10/201804054615FACT ACH                 D3          7191  02 2000          7191000000457310             0                       0                       0                       0                       0             
LD 201865 000002481417/10/2018191321TVA4456600009002157101/10/201815/11/201801/10/201804054615TVA FACT ACH             D3          1438  02 2000          7191000000                   0                       0                       0                       0                       0             
LD 201865 000002481417/10/2018191321FSR4011000009002157101/10/201815/11/201804/10/201804054616FACT ACH  4607519-MARTIN C3        101158VI00    0             0000000              10115815/11/2018             0                       0                       0                       0             
LD 201865 000002481417/10/2018191321GEN6075000009002157101/10/201815/11/201804/10/201804054616FACT ACH                 D3         54593  02 2000         54593000000460306             0                       0                       0                       0                       0             
LD 201865 000002481417/10/2018191321GEN6075000009002157101/10/201815/11/201804/10/201804054616FACT ACH                 D3         29700  02 2000         29700000000460310             0                       0                       0                       0                       0             
LD 201865 000002481417/10/2018191321TVA4456600009002157101/10/201815/11/201804/10/201804054616TVA FACT ACH             D3         16865  02 2000         84293000000                   0                       0                       0                       0                       0             
LD 201865 000002481417/10/2018191321FSR4011000009002157101/10/201815/11/201801/10/201804054618FACT ACH  4607409-KERISNEC3        210617VI00    0             0000000              21061715/11/2018             0                       0                       0                       0             
LD 201865 000002481417/10/2018191321GEN6075000009002157101/10/201815/11/201801/10/201804054618FACT ACH                 D3        191470  07 1000        191470000000456309             0                       0                       0                       0                       0             
LD 201865 000002481417/10/2018191321TVA4456600009002157101/10/201815/11/201801/10/201804054618TVA FACT ACH             D3         19147  07 1000        191470000000                   0                       0                       0                       0                       0             
LD 201865 000002481417/10/2018191321FSR4011000009002157101/10/201815/11/201801/10/201804054619FACT ACH  4607315-MARTIN C3         36558VI00    0             0000000               3655815/11/2018             0                       0                       0                       0             
LD 201865 000002481417/10/2018191321GEN6075000009002157101/10/201815/11/201801/10/201804054619FACT ACH                 D3         25148  02 2000         25148000000466306             0                       0                       0                       0                       0             
LD 201865 000002481417/10/2018191321GEN6075000009002157101/10/201815/11/201801/10/201804054619FACT ACH                 D3          3336  02 2000          3336000000466307             0                       0                       0                       0                       0             
LD 201865 000002481417/10/2018191321GEN6075000009002157101/10/201815/11/201801/10/201804054619FACT ACH                 D3          1980  02 2000          1980000000466310             0                       0                       0                       0                       0             
LD 201865 000002481417/10/2018191321TVA4456600009002157101/10/201815/11/201801/10/201804054619TVA FACT ACH             D3          6094  02 2000         30464000000                   0                       0                       0                       0                       0             
LD 201865 000002481417/10/2018191322FSR4011000009002157101/10/201815/11/201801/10/201804054620FACT ACH  4612306-OR BRUNC3         90207VI00    0             0000000               9020715/11/2018             0                       0                       0                       0             
LD 201865 000002481417/10/2018191322GEN6075000009002157101/10/201815/11/201801/10/201804054620FACT ACH                 D3         62370  07 1000         62370000000461302             0                       0                       0                       0                       0             
LD 201865 000002481417/10/2018191322GEN6075000009002157101/10/201815/11/201801/10/201804054620FACT ACH                 D3         18000  02 2000         18000000000461310             0                       0                       0                       0                       0             
LD 201865 000002481417/10/2018191322TVA4456600009002157101/10/201815/11/201801/10/201804054620TVA FACT ACH             D3          3600  02 2000         18000000000                   0                       0                       0                       0                       0             
LD 201865 000002481417/10/2018191322TVA4456600009002157101/10/201815/11/201801/10/201804054620TVA FACT ACH             D3          6237  07 1000         62370000000                   0                       0                       0                       0                       0             
LD 201865 000002481417/10/2018191322FSR4011000009002157101/10/201815/11/201801/10/201804054621FACT ACH  4612380-BIOLINEC3         24624VI00    0             0000000               2462415/11/2018             0                       0                       0                       0             
LD 201865 000002481417/10/2018191322GEN6075000009002157101/10/201815/11/201801/10/201804054621FACT ACH                 D3         20520  07 1000         20520000000455302             0                       0                       0                       0                       0             
LD 201865 000002481417/10/2018191322TVA4456600009002157101/10/201815/11/201801/10/201804054621TVA FACT ACH             D3          4104  02 2000         20520000000                   0                       0                       0                       0                       0             
LD 201865 000002481417/10/2018191322FSR4011000009002157101/10/201815/11/201803/10/201804054622FACT ACH  4612493-HAMI FOC3         55062VI00    0             0000000               5506215/11/2018             0                       0                       0                       0             
LD 201865 000002481417/10/2018191322GEN6075000009002157101/10/201815/11/201803/10/201804054622FACT ACH                 D3         30105  02 2000         30105000000460306             0                       0                       0                       0                       0             
LD 201865 000002481417/10/2018191322GEN6075000009002157101/10/201815/11/201803/10/201804054622FACT ACH                 D3         15780  02 2000         15780000000460307             0                       0                       0                       0                       0             
LD 201865 000002481417/10/2018191322TVA4456600009002157101/10/201815/11/201803/10/201804054622TVA FACT ACH             D3          9177  02 2000         45885000000                   0                       0                       0                       0                       0             
LD 201865 000002481417/10/2018191322FSR4011000009002157101/10/201815/11/201804/10/201804054623FACT ACH  4612502-HAMI FOC3        105720VI00    0             0000000              10572015/11/2018             0                       0                       0                       0             
LD 201865 000002481417/10/2018191322GEN6075000009002157101/10/201815/11/201804/10/201804054623FACT ACH                 D3          5800  07 1000          5800000000461306             0                       0                       0                       0                       0             
LD 201865 000002481417/10/2018191322GEN6075000009002157101/10/201815/11/201804/10/201804054623FACT ACH                 D3          1450  07 1000          1450000000461307             0                       0                       0                       0                       0             
LD 201865 000002481417/10/2018191322GEN6075000009002157101/10/201815/11/201804/10/201804054623FACT ACH                 D3         23740  02 2000         23740000000461306             0                       0                       0                       0                       0             
LD 201865 000002481417/10/2018191322GEN6075000009002157101/10/201815/11/201804/10/201804054623FACT ACH                 D3         57714  02 2000         57714000000461307             0                       0                       0                       0                       0             
LD 201865 000002481417/10/2018191322TVA4456600009002157101/10/201815/11/201804/10/201804054623TVA FACT ACH             D3         16291  02 2000         81454000000                   0                       0                       0                       0                       0             
LD 201865 000002481417/10/2018191322TVA4456600009002157101/10/201815/11/201804/10/201804054623TVA FACT ACH             D3           725  07 1000          7250000000                   0                       0                       0                       0                       0             
LD 201865 000002481417/10/2018191322FSR4011000009060156508/10/201805/11/201808/10/201804054624AVO ACH  20181050611-EVIAD3          1362VI00    0             0000000                136205/11/2018             0                       0                       0                       0             
LD 201865 000002481417/10/2018191322GEN6075000009060156508/10/201805/11/201808/10/201804054624AVO ACH                  C3          1238  07 1000          1238000000460307             0                       0                       0                       0                       0             
LD 201865 000002481417/10/2018191322TVA4456600009060156508/10/201805/11/201808/10/201804054624TVA AVO ACH              C3           124  07 1000          1238000000                   0                       0                       0                       0                       0             
LD 201865 000002481417/10/2018191322FSR4011000009060156511/10/201810/11/201811/10/201804054625FACT ACH  20181050998-EVIC3         71300VI00    0             0000000               7130010/11/2018             0                       0                       0                       0             
LD 201865 000002481417/10/2018191322GEN6075000009060156511/10/201810/11/201811/10/201804054625FACT ACH                 D3         58765  07 1000         58765000000452307             0                       0                       0                       0                       0             
LD 201865 000002481417/10/2018191322GEN6075000009060156511/10/201810/11/201811/10/201804054625FACT ACH                 D3          5550  02 2000          5550000000452310             0                       0                       0                       0                       0             
LD 201865 000002481417/10/2018191322TVA4456600009060156511/10/201810/11/201811/10/201804054625TVA FACT ACH             D3          1110  02 2000          5550000000                   0                       0                       0                       0                       0             
LD 201865 000002481417/10/2018191322TVA4456600009060156511/10/201810/11/201811/10/201804054625TVA FACT ACH             D3          5875  07 1000         58765000000                   0                       0                       0                       0                       0             
LD 201865 000002481417/10/2018191322FSR4011000009060156511/10/201810/11/201811/10/201804054626FACT ACH  20181050996-EVIC3         10698VI00    0             0000000               1069810/11/2018             0                       0                       0                       0             
LD 201865 000002481417/10/2018191322GEN6075000009060156511/10/201810/11/201811/10/201804054626FACT ACH                 D3          9725  07 1000          9725000000452307             0                       0                       0                       0                       0             
LD 201865 000002481417/10/2018191322TVA4456600009060156511/10/201810/11/201811/10/201804054626TVA FACT ACH             D3           973  07 1000          9725000000                   0                       0                       0                       0                       0             
LD 201865 000002481417/10/2018191322FSR4011000009060156501/10/201810/11/201812/10/201804054627FACT ACH  20181050997-EVIC3         72549VI00    0             0000000               7254910/11/2018             0                       0                       0                       0             
LD 201865 000002481417/10/2018191322GEN6075000009060156501/10/201810/11/201812/10/201804054627FACT ACH                 D3         63936  07 1000         63936000000454307             0                       0                       0                       0                       0             
LD 201865 000002481417/10/2018191322GEN6075000009060156501/10/201810/11/201812/10/201804054627FACT ACH                 D3          1850  02 2000          1850000000454310             0                       0                       0                       0                       0             
LD 201865 000002481417/10/2018191322TVA4456600009060156501/10/201810/11/201812/10/201804054627TVA FACT ACH             D3           370  02 2000          1850000000                   0                       0                       0                       0                       0             
LD 201865 000002481417/10/2018191322TVA4456600009060156501/10/201810/11/201812/10/201804054627TVA FACT ACH             D3          6393  07 1000         63936000000                   0                       0                       0                       0                       0             
LD 201865 000002481417/10/2018191322FSR4011000009060189312/10/201810/11/201813/10/201804054628FACT ACH  1808233-AVIDOC C3        116688VI00    0             0000000              11668810/11/2018             0                       0                       0                       0             
LD 201865 000002481417/10/2018191322GEN6075000009060189312/10/201810/11/201813/10/201804054628FACT ACH                 D3        106080  07 1000        106080000000456306             0                       0                       0                       0                       0             
LD 201865 000002481417/10/2018191322TVA4456600009060189312/10/201810/11/201813/10/201804054628TVA FACT ACH             D3         10608  07 1000        106080000000                   0                       0                       0                       0                       0             
LD 201865 000002481417/10/2018191322FSR4011000009060158012/10/201812/11/201812/10/201804054630FACT ACH  6-JARTOUX      C3         18000VI00    0             0000000               1800012/11/2018             0                       0                       0                       0             
LD 201865 000002481417/10/2018191322GEN6075000009060158012/10/201812/11/201812/10/201804054630FACT ACH                 D3         18000  01    0         18000000000452308             0                       0                       0                       0                       0             
LD 201865 000002481417/10/2018191322FSR4011000009060158013/10/201812/11/201815/10/201804054631FACT ACH  7-JARTOUX      C3         12000VI00    0             0000000               1200012/11/2018             0                       0                       0                       0             
LD 201865 000002481417/10/2018191322GEN6075000009060158013/10/201812/11/201815/10/201804054631FACT ACH                 D3         12000  01    0         12000000000459308             0                       0                       0                       0                       0             
LD 201865 000002481417/10/2018191322FSR4011000009060158011/10/201812/11/201811/10/201804054632FACT ACH  2-JARTOUX      C3         18000VI00    0             0000000               1800012/11/2018             0                       0                       0                       0             
LD 201865 000002481417/10/2018191322GEN6075000009060158011/10/201812/11/201811/10/201804054632FACT ACH                 D3         18000  01    0         18000000000453308             0                       0                       0                       0                       0             
LD 201865 000002481417/10/2018191322FSR4011000009002642612/10/201830/11/201816/10/201804054633FACT ACH  F1802474-DEFFREC3         48701VI00    0             0000000               4870130/11/2018             0                       0                       0                       0             
LD 201865 000002481417/10/2018191322GEN6075000009002642612/10/201830/11/201816/10/201804054633FACT ACH                 D3         40584  02 2000         40584000000459302             0                       0                       0                       0                       0             
LD 201865 000002481417/10/2018191322TVA4456600009002642612/10/201830/11/201816/10/201804054633TVA FACT ACH             D3          8117  02 2000         40584000000                   0                       0                       0                       0                       0             
LD 201865 000002481417/10/2018191322FSR4011000009051506509/10/201830/11/201809/10/201804054634FACT ACH  F18100085-KWATTC3        593208VI00    0             0000000              59320830/11/2018             0                       0                       0                       0             
LD 201865 000002481417/10/2018191322GEN6075000009051506509/10/201830/11/201809/10/201804054634FACT ACH                 D3        539280  07 1000        539280000000461305             0                       0                       0                       0                       0             
LD 201865 000002481417/10/2018191322TVA4456600009051506509/10/201830/11/201809/10/201804054634TVA FACT ACH             D3         53928  07 1000        539280000000                   0                       0                       0                       0                       0             
LD 201865 000002481417/10/2018191322FSR4011000009051506508/10/201830/11/201811/10/201804054635FACT ACH  F18100063-KWATTC3        593208VI00    0             0000000              59320830/11/2018             0                       0                       0                       0             
LD 201865 000002481417/10/2018191322GEN6075000009051506508/10/201830/11/201811/10/201804054635FACT ACH                 D3        539280  07 1000        539280000000453305             0                       0                       0                       0                       0             
LD 201865 000002481417/10/2018191322TVA4456600009051506508/10/201830/11/201811/10/201804054635TVA FACT ACH             D3         53928  07 1000        539280000000                   0                       0                       0                       0                       0             
LD 201865 000002481417/10/2018191322FSR4011000009051506511/10/201830/11/201811/10/201804054636FACT ACH  F18100149-KWATTC3        593208VI00    0             0000000              59320830/11/2018             0                       0                       0                       0             
LD 201865 000002481417/10/2018191322GEN6075000009051506511/10/201830/11/201811/10/201804054636FACT ACH                 D3        539280  07 1000        539280000000460305             0                       0                       0                       0                       0             
LD 201865 000002481417/10/2018191322TVA4456600009051506511/10/201830/11/201811/10/201804054636TVA FACT ACH             D3         53928  07 1000        539280000000                   0                       0                       0                       0                       0             
LD 201865 000002481417/10/2018191322FSR4011000009002157101/10/201815/11/201801/10/201804054638FACT ACH  4612678-EDELMANC3        153317VI00    0             0000000              15331715/11/2018             0                       0                       0                       0             
LD 201865 000002481417/10/2018191322GEN6075000009002157101/10/201815/11/201801/10/201804054638FACT ACH                 D3        127764  02 2000        127764000000453302             0                       0                       0                       0                       0             
LD 201865 000002481417/10/2018191322TVA4456600009002157101/10/201815/11/201801/10/201804054638TVA FACT ACH             D3         25553  02 2000        127764000000                   0                       0                       0                       0                       0             
LD 201865 000002481417/10/2018191322FSR4011000009002157101/10/201815/11/201801/10/201804054639FACT ACH  4612693-SCHLEICC3        123308VI00    0             0000000              12330815/11/2018             0                       0                       0                       0             
LD 201865 000002481417/10/2018191322GEN6075000009002157101/10/201815/11/201801/10/201804054639FACT ACH                 D3        102757  02 2000        102757000000457310             0                       0                       0                       0                       0             
LD 201865 000002481417/10/2018191322TVA4456600009002157101/10/201815/11/201801/10/201804054639TVA FACT ACH             D3         20551  02 2000        102757000000                   0                       0                       0                       0                       0             
LD 201865 000002481417/10/2018191322FSR4011000009002157101/10/201815/11/201801/10/201804054641FACT ACH  4612843-ESSCHERC3        227670VI00    0             0000000              22767015/11/2018             0                       0                       0                       0             
LD 201865 000002481417/10/2018191322GEN6075000009002157101/10/201815/11/201801/10/201804054641FACT ACH                 D3        176046  02 2000        176046000000453302             0                       0                       0                       0                       0             
LD 201865 000002481417/10/2018191322GEN6075000009002157101/10/201815/11/201801/10/201804054641FACT ACH                 D3          9120  02 2000          9120000000453304             0                       0                       0                       0                       0             
LD 201865 000002481417/10/2018191322GEN6075000009002157101/10/201815/11/201801/10/201804054641FACT ACH                 D3          4560  02 2000          4560000000453305             0                       0                       0                       0                       0             
LD 201865 000002481417/10/2018191322TVA4456600009002157101/10/201815/11/201801/10/201804054641TVA FACT ACH             D3         37944  02 2000        189726000000                   0                       0                       0                       0                       0             
LD 201865 000002481417/10/2018191322FSR4011000009002157101/10/201815/11/201801/10/201804054642FACT ACH  4612939-BIOLINEC3         13504VI00    0             0000000               1350415/11/2018             0                       0                       0                       0             
LD 201865 000002481417/10/2018191322GEN6075000009002157101/10/201815/11/201801/10/201804054642FACT ACH                 D3         12276  07 1000         12276000000454302             0                       0                       0                       0                       0             
LD 201865 000002481417/10/2018191322TVA4456600009002157101/10/201815/11/201801/10/201804054642TVA FACT ACH             D3          1228  07 1000         12276000000                   0                       0                       0                       0                       0             
LD 201865 000002481417/10/2018191322FSR4011000009002157101/10/201815/11/201801/10/201804054643FACT ACH  4612959-BIOLINEC3         25146VI00    0             0000000               2514615/11/2018             0                       0                       0                       0             
LD 201865 000002481417/10/2018191322GEN6075000009002157101/10/201815/11/201801/10/201804054643FACT ACH                 D3         22860  07 1000         22860000000466302             0                       0                       0                       0                       0             
LD 201865 000002481417/10/2018191322TVA4456600009002157101/10/201815/11/201801/10/201804054643TVA FACT ACH             D3          2286  07 1000         22860000000                   0                       0                       0                       0                       0             
LD 201865 000002481417/10/2018191322FSR4011000009002157101/10/201815/11/201801/10/201804054644FACT ACH  4613081-EVERGREC3        505646VI00    0             0000000              50564615/11/2018             0                       0                       0                       0             
LD 201865 000002481417/10/2018191322GEN6075000009002157101/10/201815/11/201801/10/201804054644FACT ACH                 D3        459678  07 1000        459678000000453302             0                       0                       0                       0                       0             
LD 201865 000002481417/10/2018191322TVA4456600009002157101/10/201815/11/201801/10/201804054644TVA FACT ACH             D3         45968  07 1000        459678000000                   0                       0                       0                       0                       0             
LD 201865 000002481417/10/2018191322FSR4011000009002157101/10/201815/11/201801/10/201804054645FACT ACH  4613146-EVERGREC3        189768VI00    0             0000000              18976815/11/2018             0                       0                       0                       0             
LD 201865 000002481417/10/2018191322GEN6075000009002157101/10/201815/11/201801/10/201804054645FACT ACH                 D3        153516  07 1000        153516000000459302             0                       0                       0                       0                       0             
LD 201865 000002481417/10/2018191322GEN6075000009002157101/10/201815/11/201801/10/201804054645FACT ACH                 D3         19000  02 2000         19000000000459310             0                       0                       0                       0                       0             
LD 201865 000002481417/10/2018191322TVA4456600009002157101/10/201815/11/201801/10/201804054645TVA FACT ACH             D3         17252  07 1000        172516000000                   0                       0                       0                       0                       0             
LD 201865 000002481417/10/2018191322FSR4011000009002157101/10/201815/11/201801/10/201804054646FACT ACH  4613182-EVERGREC3        652314VI00    0             0000000              65231415/11/2018             0                       0                       0                       0             
LD 201865 000002481417/10/2018191322GEN6075000009002157101/10/201815/11/201801/10/201804054646FACT ACH                 D3        593013  07 1000        593013000000456302             0                       0                       0                       0                       0             
LD 201865 000002481417/10/2018191322TVA4456600009002157101/10/201815/11/201801/10/201804054646TVA FACT ACH             D3         59301  07 1000        593013000000                   0                       0                       0                       0                       0             
