LS 201865 000008562605/10/2018094506FSR4011000009002157101/10/201815/09/201804/10/201804853782FACT ACH  4518568-ANTARGAC3         16510VI00    0             0000000               1651015/09/2018             0                       0                       0                       0             
LS 201865 000008562605/10/2018094506GEN6075000009002157101/10/201815/09/201804/10/201804853782FACT ACH                 D3         13758  02 2000         13758000000265305             0                       0                       0                       0                       0             
LS 201865 000008562605/10/2018094506TVA4456600009002157101/10/201815/09/201804/10/201804853782TVA FACT ACH             D3          2752  02 2000         13758000000                   0                       0                       0                       0                       0             
LS 201865 000008562605/10/2018094506FSR4011000009002257101/10/201811/11/201804/10/201804857734FACT ACH  930429076      C3          6806VI00    0             0000000                680611/11/2018             0                       0                       0                       0             
LS 201865 000008562605/10/2018094506GEN6075000009002257101/10/201811/11/201804/10/201804857734FACT ACH                 D3          5672  02 2000          5672000000146307             0                       0                       0                       0                       0             
LS 201865 000008562605/10/2018094506TVA4456600009002257101/10/201811/11/201804/10/201804857734TVA FACT ACH             D3          1134  02 2000          5672000000                   0                       0                       0                       0                       0             
LS 201865 000008562605/10/2018094506FSR4011000000266074401/10/201830/09/201803/10/201804856844FACT ACH  FAC198-LES POULC3         28048VI00    0             0000000               2804830/09/2018             0                       0                       0                       0             
LS 201865 000008562605/10/2018094506GEN6075000000266074401/10/201830/09/201803/10/201804856844FACT ACH                 D3         26586  02 2000         26586000000304308             0                       0                       0                       0                       0             
LS 201865 000008562605/10/2018094506TVA4456600000266074401/10/201830/09/201803/10/201804856844TVA FACT ACH             D3          1462  03  550         26586000000                   0                       0                       0                       0                       0             
LS 201865 000008562605/10/2018094506FSR4011000009060082101/10/201821/10/201801/10/201804857086FACT ACH  2452030-ROXANE C3        101420VI00    0             0000000              10142021/10/2018             0                       0                       0                       0             
LS 201865 000008562605/10/2018094506GEN6075000009060082101/10/201821/10/201801/10/201804857086FACT ACH                 D3         79531  03  550         79531000000304308             0                       0                       0                       0                       0             
LS 201865 000008562605/10/2018094506GEN6075000009060082101/10/201821/10/201801/10/201804857086FACT ACH                 D3         16602  02 2000         16602000000304310             0                       0                       0                       0                       0             
LS 201865 000008562605/10/2018094506TVA4456600009060082101/10/201821/10/201801/10/201804857086TVA FACT ACH             D3          5287  03  550         96133000000                   0                       0                       0                       0                       0             
LS 201865 000008562605/10/2018094506FSR4011000009002157101/10/201830/11/201804/10/201804857124FACT ACH  4562936-OXADIS C3         28688VI00    0             0000000               2868830/11/2018             0                       0                       0                       0             
LS 201865 000008562605/10/2018094506GEN6075000009002157101/10/201830/11/201804/10/201804857124FACT ACH                 D3         26080  07 1000         26080000000168309             0                       0                       0                       0                       0             
LS 201865 000008562605/10/2018094506TVA4456600009002157101/10/201830/11/201804/10/201804857124TVA FACT ACH             D3          2608  07 1000         26080000000                   0                       0                       0                       0                       0             
LS 201865 000008562605/10/2018094506FSR4011000009002157101/10/201830/10/201804/10/201804857277FACT ACH  4584757-VILMORIC3         63690VI00    0             0000000               6369030/10/2018             0                       0                       0                       0             
LS 201865 000008562605/10/2018094506GEN6075000009002157101/10/201830/10/201804/10/201804857277FACT ACH                 D3         58010  07 1000         58010000000208309             0                       0                       0                       0                       0             
LS 201865 000008562605/10/2018094506GEN6075000009002157101/10/201830/10/201804/10/201804857277FACT ACH                 C3           110  07 1000           110000000208310             0                       0                       0                       0                       0             
LS 201865 000008562605/10/2018094506TVA4456600009002157101/10/201830/10/201804/10/201804857277TVA FACT ACH             D3          5790  07 1000         57900000000                   0                       0                       0                       0                       0             
LS 201865 000008562605/10/2018094506FSR4011000009060069401/10/201830/10/201803/10/201804857294FACT ACH  FC0304-GASCOGNEC3         13774VI00    0             0000000               1377430/10/2018             0                       0                       0                       0             
LS 201865 000008562605/10/2018094506GEN6075000009060069401/10/201830/10/201803/10/201804857294FACT ACH                 D3         13056  03  550         13056000000265308             0                       0                       0                       0                       0             
LS 201865 000008562605/10/2018094506TVA4456600009060069401/10/201830/10/201803/10/201804857294TVA FACT ACH             D3           718  03  550         13056000000                   0                       0                       0                       0                       0             
LS 201865 000008562605/10/2018094506FSR4011000009002257101/10/201830/11/201804/10/201804857735FACT ACH  930433456      C3        226724VI00    0             0000000              22672430/11/2018             0                       0                       0                       0             
LS 201865 000008562605/10/2018094506GEN6075000009002257101/10/201830/11/201804/10/201804857735FACT ACH                 D3         77469  07 1000         77469000000139307             0                       0                       0                       0                       0             
LS 201865 000008562605/10/2018094506GEN6075000009002257101/10/201830/11/201804/10/201804857735FACT ACH                 D3         26506  02 2000         26506000000139302             0                       0                       0                       0                       0             
LS 201865 000008562605/10/2018094506GEN6075000009002257101/10/201830/11/201804/10/201804857735FACT ACH                 D3          4720  02 2000          4720000000139305             0                       0                       0                       0                       0             
LS 201865 000008562605/10/2018094506GEN6075000009002257101/10/201830/11/201804/10/201804857735FACT ACH                 D3         30323  02 2000         30323000000139306             0                       0                       0                       0                       0             
LS 201865 000008562605/10/2018094506GEN6075000009002257101/10/201830/11/201804/10/201804857735FACT ACH                 D3         56374  02 2000         56374000000139307             0                       0                       0                       0                       0             
LS 201865 000008562605/10/2018094506TVA4456600009002257101/10/201830/11/201804/10/201804857735TVA FACT ACH             D3         23585  02 2000        117923000000                   0                       0                       0                       0                       0             
LS 201865 000008562605/10/2018094506TVA4456600009002257101/10/201830/11/201804/10/201804857735TVA FACT ACH             D3          7747  07 1000         77469000000                   0                       0                       0                       0                       0             
LS 201865 000008562605/10/2018094507FSR4011000009002257101/10/201830/11/201804/10/201804857736FACT ACH  930433457      C3          6019VI00    0             0000000                601930/11/2018             0                       0                       0                       0             
LS 201865 000008562605/10/2018094507GEN6075000009002257101/10/201830/11/201804/10/201804857736FACT ACH                 D3          5016  02 2000          5016000000139302             0                       0                       0                       0                       0             
LS 201865 000008562605/10/2018094507TVA4456600009002257101/10/201830/11/201804/10/201804857736TVA FACT ACH             D3          1003  02 2000          5016000000                   0                       0                       0                       0                       0             
LS 201865 000008562605/10/2018094507FSR4011000009002257101/10/201830/11/201804/10/201804857737FACT ACH  930433458      C3          8824VI00    0             0000000                882430/11/2018             0                       0                       0                       0             
LS 201865 000008562605/10/2018094507GEN6075000009002257101/10/201830/11/201804/10/201804857737FACT ACH                 D3          8364  03  550          8364000000139308             0                       0                       0                       0                       0             
LS 201865 000008562605/10/2018094507TVA4456600009002257101/10/201830/11/201804/10/201804857737TVA FACT ACH             D3           460  03  550          8364000000                   0                       0                       0                       0                       0             
LS 201865 000008562605/10/2018094507FSR4011000009002257101/10/201830/11/201804/10/201804857738FACT ACH  930433459      C3         39077VI00    0             0000000               3907730/11/2018             0                       0                       0                       0             
LS 201865 000008562605/10/2018094507GEN6075000009002257101/10/201830/11/201804/10/201804857738FACT ACH                 D3         37040  03  550         37040000000139308             0                       0                       0                       0                       0             
LS 201865 000008562605/10/2018094507TVA4456600009002257101/10/201830/11/201804/10/201804857738TVA FACT ACH             D3          2037  03  550         37040000000                   0                       0                       0                       0                       0             
LS 201865 000008562605/10/2018094507FSR4011000009002257101/10/201830/11/201802/10/201804857552FACT ACH  930433464      C3          6538VI00    0             0000000                653830/11/2018             0                       0                       0                       0             
LS 201865 000008562605/10/2018094507GEN6075000009002257101/10/201830/11/201802/10/201804857552FACT ACH                 D3          5448  02 2000          5448000000133302             0                       0                       0                       0                       0             
LS 201865 000008562605/10/2018094507TVA4456600009002257101/10/201830/11/201802/10/201804857552TVA FACT ACH             D3          1090  02 2000          5448000000                   0                       0                       0                       0                       0             
LS 201865 000008562605/10/2018094507FSR4011000009002257101/10/201830/11/201804/10/201804857739FACT ACH  930433466      C3        403718VI00    0             0000000              40371830/11/2018             0                       0                       0                       0             
LS 201865 000008562605/10/2018094507GEN6075000009002257101/10/201830/11/201804/10/201804857739FACT ACH                 D3          2174  07 1000          2174000000139302             0                       0                       0                       0                       0             
LS 201865 000008562605/10/2018094507GEN6075000009002257101/10/201830/11/201804/10/201804857739FACT ACH                 D3         25570  07 1000         25570000000139307             0                       0                       0                       0                       0             
LS 201865 000008562605/10/2018094507GEN6075000009002257101/10/201830/11/201804/10/201804857739FACT ACH                 D3         10245  07 1000         10245000000139309             0                       0                       0                       0                       0             
LS 201865 000008562605/10/2018094507GEN6075000009002257101/10/201830/11/201804/10/201804857739FACT ACH                 D3         10465  02 2000         10465000000139301             0                       0                       0                       0                       0             
LS 201865 000008562605/10/2018094507GEN6075000009002257101/10/201830/11/201804/10/201804857739FACT ACH                 D3        142771  02 2000        142771000000139302             0                       0                       0                       0                       0             
LS 201865 000008562605/10/2018094507GEN6075000009002257101/10/201830/11/201804/10/201804857739FACT ACH                 D3         26813  02 2000         26813000000139304             0                       0                       0                       0                       0             
LS 201865 000008562605/10/2018094507GEN6075000009002257101/10/201830/11/201804/10/201804857739FACT ACH                 D3         27965  02 2000         27965000000139305             0                       0                       0                       0                       0             
LS 201865 000008562605/10/2018094507GEN6075000009002257101/10/201830/11/201804/10/201804857739FACT ACH                 D3          5275  02 2000          5275000000139306             0                       0                       0                       0                       0             
LS 201865 000008562605/10/2018094507GEN6075000009002257101/10/201830/11/201804/10/201804857739FACT ACH                 D3         88319  02 2000         88319000000139307             0                       0                       0                       0                       0             
LS 201865 000008562605/10/2018094507TVA4456600009002257101/10/201830/11/201804/10/201804857739TVA FACT ACH             D3         60322  02 2000        301608000000                   0                       0                       0                       0                       0             
LS 201865 000008562605/10/2018094507TVA4456600009002257101/10/201830/11/201804/10/201804857739TVA FACT ACH             D3          3799  07 1000         37989000000                   0                       0                       0                       0                       0             
LS 201865 000008562605/10/2018094507FSR4011000009060046701/10/201830/10/201803/10/201804857400FACT ACH  326344-ROQUE   C3        139133VI00    0             0000000              13913330/10/2018             0                       0                       0                       0             
LS 201865 000008562605/10/2018094507GEN6075000009060046701/10/201830/10/201803/10/201804857400FACT ACH                 D3        131880  03  550        131880000000304308             0                       0                       0                       0                       0             
LS 201865 000008562605/10/2018094507TVA4456600009060046701/10/201830/10/201803/10/201804857400TVA FACT ACH             D3          7253  03  550        131880000000                   0                       0                       0                       0                       0             
LS 201865 000008562605/10/2018094507FSR4011000009060079401/10/201830/10/201803/10/201804857490FACT ACH  0686-FONTES    C3         89220VI00    0             0000000               8922030/10/2018             0                       0                       0                       0             
LS 201865 000008562605/10/2018094507GEN6075000009060079401/10/201830/10/201803/10/201804857490FACT ACH                 D3         84569  03  550         84569000000304308             0                       0                       0                       0                       0             
LS 201865 000008562605/10/2018094507TVA4456600009060079401/10/201830/10/201803/10/201804857490TVA FACT ACH             D3          4651  03  550         84569000000                   0                       0                       0                       0                       0             
LS 201865 000008562605/10/2018094507FSR4011000009060176101/10/201830/10/201803/10/201804857503FACT ACH  18001879-SERRESC3         52671VI00    0             0000000               5267130/10/2018             0                       0                       0                       0             
LS 201865 000008562605/10/2018094507GEN6075000009060176101/10/201830/10/201803/10/201804857503FACT ACH                 D3         45701  07 1000         45701000000132309             0                       0                       0                       0                       0             
LS 201865 000008562605/10/2018094507GEN6075000009060176101/10/201830/10/201803/10/201804857503FACT ACH                 D3          2000  02 2000          2000000000132310             0                       0                       0                       0                       0             
LS 201865 000008562605/10/2018094507TVA4456600009060176101/10/201830/10/201803/10/201804857503TVA FACT ACH             D3           400  02 2000          2000000000                   0                       0                       0                       0                       0             
LS 201865 000008562605/10/2018094507TVA4456600009060176101/10/201830/10/201803/10/201804857503TVA FACT ACH             D3          4570  07 1000         45701000000                   0                       0                       0                       0                       0             
LS 201865 000008562605/10/2018094507FSR4011000009002610001/10/201830/10/201803/10/201804857584FACT ACH  FA20180020-SAULC3         63743VI00    0             0000000               6374330/10/2018             0                       0                       0                       0             
LS 201865 000008562605/10/2018094507GEN6075000009002610001/10/201830/10/201803/10/201804857584FACT ACH                 D3         60420  03  550         60420000000304308             0                       0                       0                       0                       0             
LS 201865 000008562605/10/2018094507TVA4456600009002610001/10/201830/10/201803/10/201804857584TVA FACT ACH             D3          3323  03  550         60420000000                   0                       0                       0                       0                       0             
LS 201865 000008562605/10/2018094507FSR4011000009002257103/10/201802/12/201804/10/201804857740FACT ACH  930433772      C3         51919VI00    0             0000000               5191902/12/2018             0                       0                       0                       0             
LS 201865 000008562605/10/2018094507GEN6075000009002257103/10/201802/12/201804/10/201804857740FACT ACH                 D3         49212  03  550         49212000000243308             0                       0                       0                       0                       0             
LS 201865 000008562605/10/2018094507TVA4456600009002257103/10/201802/12/201804/10/201804857740TVA FACT ACH             D3          2707  03  550         49212000000                   0                       0                       0                       0                       0             
LS 201865 000008562605/10/2018094507FSR4011000009002257103/10/201802/12/201804/10/201804857741FACT ACH  930433776      C3         49382VI00    0             0000000               4938202/12/2018             0                       0                       0                       0             
LS 201865 000008562605/10/2018094507GEN6075000009002257103/10/201802/12/201804/10/201804857741FACT ACH                 D3         46808  03  550         46808000000395308             0                       0                       0                       0                       0             
LS 201865 000008562605/10/2018094507TVA4456600009002257103/10/201802/12/201804/10/201804857741TVA FACT ACH             D3          2574  03  550         46808000000                   0                       0                       0                       0                       0             
LS 201865 000008562605/10/2018094507FSR4011000009002257103/10/201802/12/201804/10/201804857742FACT ACH  930433777      C3        123265VI00    0             0000000              12326502/12/2018             0                       0                       0                       0             
LS 201865 000008562605/10/2018094507GEN6075000009002257103/10/201802/12/201804/10/201804857742FACT ACH                 D3        116839  03  550        116839000000146308             0                       0                       0                       0                       0             
LS 201865 000008562605/10/2018094507TVA4456600009002257103/10/201802/12/201804/10/201804857742TVA FACT ACH             D3          6426  03  550        116839000000                   0                       0                       0                       0                       0             
LS 201865 000008562605/10/2018094507FSR4011000009002257103/10/201802/12/201804/10/201804857743FACT ACH  930433780      C3         49828VI00    0             0000000               4982802/12/2018             0                       0                       0                       0             
LS 201865 000008562605/10/2018094507GEN6075000009002257103/10/201802/12/201804/10/201804857743FACT ACH                 D3         47230  03  550         47230000000208308             0                       0                       0                       0                       0             
LS 201865 000008562605/10/2018094507TVA4456600009002257103/10/201802/12/201804/10/201804857743TVA FACT ACH             D3          2598  03  550         47230000000                   0                       0                       0                       0                       0             
LS 201865 000008562605/10/2018094507FSR4011000009002257103/10/201802/12/201804/10/201804857744FACT ACH  930433781      C3         51754VI00    0             0000000               5175402/12/2018             0                       0                       0                       0             
LS 201865 000008562605/10/2018094507GEN6075000009002257103/10/201802/12/201804/10/201804857744FACT ACH                 D3         49056  03  550         49056000000234308             0                       0                       0                       0                       0             
LS 201865 000008562605/10/2018094507TVA4456600009002257103/10/201802/12/201804/10/201804857744TVA FACT ACH             D3          2698  03  550         49056000000                   0                       0                       0                       0                       0             
LS 201865 000008562605/10/2018094507FSR4011000009002257103/10/201802/12/201804/10/201804857745FACT ACH  930433782      C3         47524VI00    0             0000000               4752402/12/2018             0                       0                       0                       0             
LS 201865 000008562605/10/2018094507GEN6075000009002257103/10/201802/12/201804/10/201804857745FACT ACH                 D3         45046  03  550         45046000000302308             0                       0                       0                       0                       0             
LS 201865 000008562605/10/2018094507TVA4456600009002257103/10/201802/12/201804/10/201804857745TVA FACT ACH             D3          2478  03  550         45046000000                   0                       0                       0                       0                       0             
LS 201865 000008562605/10/2018094507FSR4011000009002257103/10/201802/12/201804/10/201804857746FACT ACH  930433783      C3         59161VI00    0             0000000               5916102/12/2018             0                       0                       0                       0             
LS 201865 000008562605/10/2018094507GEN6075000009002257103/10/201802/12/201804/10/201804857746FACT ACH                 D3         56077  03  550         56077000000265308             0                       0                       0                       0                       0             
LS 201865 000008562605/10/2018094507TVA4456600009002257103/10/201802/12/201804/10/201804857746TVA FACT ACH             D3          3084  03  550         56077000000                   0                       0                       0                       0                       0             
LS 201865 000008562605/10/2018094507FSR4011000009002257103/10/201802/12/201804/10/201804857747FACT ACH  930433785      C3         56356VI00    0             0000000               5635602/12/2018             0                       0                       0                       0             
LS 201865 000008562605/10/2018094507GEN6075000009002257103/10/201802/12/201804/10/201804857747FACT ACH                 D3           620  03  550           620000000449308             0                       0                       0                       0                       0             
LS 201865 000008562605/10/2018094507GEN6075000009002257103/10/201802/12/201804/10/201804857747FACT ACH                 D3          5244  07 1000          5244000000449302             0                       0                       0                       0                       0             
LS 201865 000008562605/10/2018094507GEN6075000009002257103/10/201802/12/201804/10/201804857747FACT ACH                 D3          1905  07 1000          1905000000449307             0                       0                       0                       0                       0             
LS 201865 000008562605/10/2018094507GEN6075000009002257103/10/201802/12/201804/10/201804857747FACT ACH                 D3          1650  02 2000          1650000000449301             0                       0                       0                       0                       0             
LS 201865 000008562605/10/2018094507GEN6075000009002257103/10/201802/12/201804/10/201804857747FACT ACH                 D3          1748  02 2000          1748000000449302             0                       0                       0                       0                       0             
LS 201865 000008562605/10/2018094507GEN6075000009002257103/10/201802/12/201804/10/201804857747FACT ACH                 D3          1705  02 2000          1705000000449303             0                       0                       0                       0                       0             
LS 201865 000008562605/10/2018094507GEN6075000009002257103/10/201802/12/201804/10/201804857747FACT ACH                 D3          7422  02 2000          7422000000449305             0                       0                       0                       0                       0             
LS 201865 000008562605/10/2018094507GEN6075000009002257103/10/201802/12/201804/10/201804857747FACT ACH                 D3         13429  02 2000         13429000000449306             0                       0                       0                       0                       0             
LS 201865 000008562605/10/2018094507GEN6075000009002257103/10/201802/12/201804/10/201804857747FACT ACH                 D3         13911  02 2000         13911000000449307             0                       0                       0                       0                       0             
LS 201865 000008562605/10/2018094507TVA4456600009002257103/10/201802/12/201804/10/201804857747TVA FACT ACH             D3          7973  02 2000         39865000000                   0                       0                       0                       0                       0             
LS 201865 000008562605/10/2018094507TVA4456600009002257103/10/201802/12/201804/10/201804857747TVA FACT ACH             D3            34  03  550           620000000                   0                       0                       0                       0                       0             
LS 201865 000008562605/10/2018094507TVA4456600009002257103/10/201802/12/201804/10/201804857747TVA FACT ACH             D3           715  07 1000          7149000000                   0                       0                       0                       0                       0             
LS 201865 000008562605/10/2018094507FSR4011000009002257103/10/201802/12/201804/10/201804857748FACT ACH  930433786      C3          3963VI00    0             0000000                396302/12/2018             0                       0                       0                       0             
LS 201865 000008562605/10/2018094507GEN6075000009002257103/10/201802/12/201804/10/201804857748FACT ACH                 D3          1933  07 1000          1933000000449307             0                       0                       0                       0                       0             
LS 201865 000008562605/10/2018094507GEN6075000009002257103/10/201802/12/201804/10/201804857748FACT ACH                 D3          1670  07 1000          1670000000449309             0                       0                       0                       0                       0             
LS 201865 000008562605/10/2018094507TVA4456600009002257103/10/201802/12/201804/10/201804857748TVA FACT ACH             D3           360  07 1000          3603000000                   0                       0                       0                       0                       0             
LS 201865 000008562605/10/2018094507FSR4011000009002257103/10/201802/12/201804/10/201804857749FACT ACH  930433787      C3          1726VI00    0             0000000                172602/12/2018             0                       0                       0                       0             
LS 201865 000008562605/10/2018094507GEN6075000009002257103/10/201802/12/201804/10/201804857749FACT ACH                 D3          1636  03  550          1636000000234308             0                       0                       0                       0                       0             
LS 201865 000008562605/10/2018094507TVA4456600009002257103/10/201802/12/201804/10/201804857749TVA FACT ACH             D3            90  03  550          1636000000                   0                       0                       0                       0                       0             
LS 201865 000008562605/10/2018094507FSR4011000009002257103/10/201802/12/201804/10/201804857750FACT ACH  930433788      C3         61630VI00    0             0000000               6163002/12/2018             0                       0                       0                       0             
LS 201865 000008562605/10/2018094507GEN6075000009002257103/10/201802/12/201804/10/201804857750FACT ACH                 D3         40179  03  550         40179000000234308             0                       0                       0                       0                       0             
LS 201865 000008562605/10/2018094507GEN6075000009002257103/10/201802/12/201804/10/201804857750FACT ACH                 D3         13232  02 2000         13232000000234304             0                       0                       0                       0                       0             
LS 201865 000008562605/10/2018094507GEN6075000009002257103/10/201802/12/201804/10/201804857750FACT ACH                 D3          2802  02 2000          2802000000234308             0                       0                       0                       0                       0             
LS 201865 000008562605/10/2018094507TVA4456600009002257103/10/201802/12/201804/10/201804857750TVA FACT ACH             D3          3207  02 2000         16034000000                   0                       0                       0                       0                       0             
LS 201865 000008562605/10/2018094507TVA4456600009002257103/10/201802/12/201804/10/201804857750TVA FACT ACH             D3          2210  03  550         40179000000                   0                       0                       0                       0                       0             
LS 201865 000008562605/10/2018094507FSR4011000009002257103/10/201802/12/201804/10/201804857751FACT ACH  930433789      C3         21860VI00    0             0000000               2186002/12/2018             0                       0                       0                       0             
LS 201865 000008562605/10/2018094507GEN6075000009002257103/10/201802/12/201804/10/201804857751FACT ACH                 D3          4356  07 1000          4356000000302307             0                       0                       0                       0                       0             
LS 201865 000008562605/10/2018094507GEN6075000009002257103/10/201802/12/201804/10/201804857751FACT ACH                 D3         14223  02 2000         14223000000302307             0                       0                       0                       0                       0             
LS 201865 000008562605/10/2018094507TVA4456600009002257103/10/201802/12/201804/10/201804857751TVA FACT ACH             D3          2845  02 2000         14223000000                   0                       0                       0                       0                       0             
LS 201865 000008562605/10/2018094507TVA4456600009002257103/10/201802/12/201804/10/201804857751TVA FACT ACH             D3           436  07 1000          4356000000                   0                       0                       0                       0                       0             
LS 201865 000008562605/10/2018094507FSR4011000009002257103/10/201802/12/201804/10/201804857752FACT ACH  930433790      C3          1802VI00    0             0000000                180202/12/2018             0                       0                       0                       0             
LS 201865 000008562605/10/2018094507GEN6075000009002257103/10/201802/12/201804/10/201804857752FACT ACH                 D3          1502  02 2000          1502000000302304             0                       0                       0                       0                       0             
LS 201865 000008562605/10/2018094507TVA4456600009002257103/10/201802/12/201804/10/201804857752TVA FACT ACH             D3           300  02 2000          1502000000                   0                       0                       0                       0                       0             
LS 201865 000008562605/10/2018094507FSR4011000009002257103/10/201802/12/201804/10/201804857753FACT ACH  930433793      C3         51062VI00    0             0000000               5106202/12/2018             0                       0                       0                       0             
LS 201865 000008562605/10/2018094507GEN6075000009002257103/10/201802/12/201804/10/201804857753FACT ACH                 D3           556  07 1000           556000000132302             0                       0                       0                       0                       0             
LS 201865 000008562605/10/2018094507GEN6075000009002257103/10/201802/12/201804/10/201804857753FACT ACH                 D3         45864  07 1000         45864000000132307             0                       0                       0                       0                       0             
LS 201865 000008562605/10/2018094507TVA4456600009002257103/10/201802/12/201804/10/201804857753TVA FACT ACH             D3          4642  07 1000         46420000000                   0                       0                       0                       0                       0             
LS 201865 000008562605/10/2018094507FSR4011000009002257103/10/201802/12/201804/10/201804857754FACT ACH  930433794      C3           498VI00    0             0000000                 49802/12/2018             0                       0                       0                       0             
LS 201865 000008562605/10/2018094507GEN6075000009002257103/10/201802/12/201804/10/201804857754FACT ACH                 D3           415  02 2000           415000000132306             0                       0                       0                       0                       0             
LS 201865 000008562605/10/2018094507TVA4456600009002257103/10/201802/12/201804/10/201804857754TVA FACT ACH             D3            83  02 2000           415000000                   0                       0                       0                       0                       0             
LS 201865 000008562605/10/2018094507FSR4011000009002257103/10/201802/12/201804/10/201804857755FACT ACH  930433795      C3         19627VI00    0             0000000               1962702/12/2018             0                       0                       0                       0             
LS 201865 000008562605/10/2018094507GEN6075000009002257103/10/201802/12/201804/10/201804857755FACT ACH                 D3         18604  03  550         18604000000132308             0                       0                       0                       0                       0             
LS 201865 000008562605/10/2018094507TVA4456600009002257103/10/201802/12/201804/10/201804857755TVA FACT ACH             D3          1023  03  550         18604000000                   0                       0                       0                       0                       0             
LS 201865 000008562605/10/2018094507FSR4011000009002257103/10/201802/12/201804/10/201804857756FACT ACH  930433796      C3        203193VI00    0             0000000              20319302/12/2018             0                       0                       0                       0             
LS 201865 000008562605/10/2018094507GEN6075000009002257103/10/201802/12/201804/10/201804857756FACT ACH                 D3         11572  03  550         11572000000132308             0                       0                       0                       0                       0             
LS 201865 000008562605/10/2018094507GEN6075000009002257103/10/201802/12/201804/10/201804857756FACT ACH                 D3         26634  07 1000         26634000000132302             0                       0                       0                       0                       0             
LS 201865 000008562605/10/2018094507GEN6075000009002257103/10/201802/12/201804/10/201804857756FACT ACH                 D3          2412  07 1000          2412000000132306             0                       0                       0                       0                       0             
LS 201865 000008562605/10/2018094507GEN6075000009002257103/10/201802/12/201804/10/201804857756FACT ACH                 D3         12977  07 1000         12977000000132307             0                       0                       0                       0                       0             
LS 201865 000008562605/10/2018094507GEN6075000009002257103/10/201802/12/201804/10/201804857756FACT ACH                 D3          1060  02 2000          1060000000132301             0                       0                       0                       0                       0             
LS 201865 000008562605/10/2018094507GEN6075000009002257103/10/201802/12/201804/10/201804857756FACT ACH                 D3         44400  02 2000         44400000000132302             0                       0                       0                       0                       0             
LS 201865 000008562605/10/2018094507GEN6075000009002257103/10/201802/12/201804/10/201804857756FACT ACH                 D3          7927  02 2000          7927000000132304             0                       0                       0                       0                       0             
LS 201865 000008562605/10/2018094507GEN6075000009002257103/10/201802/12/201804/10/201804857756FACT ACH                 D3          6924  02 2000          6924000000132305             0                       0                       0                       0                       0             
LS 201865 000008562605/10/2018094507GEN6075000009002257103/10/201802/12/201804/10/201804857756FACT ACH                 D3           352  02 2000           352000000132306             0                       0                       0                       0                       0             
LS 201865 000008562605/10/2018094507GEN6075000009002257103/10/201802/12/201804/10/201804857756FACT ACH                 D3         59970  02 2000         59970000000132307             0                       0                       0                       0                       0             
LS 201865 000008562605/10/2018094507TVA4456600009002257103/10/201802/12/201804/10/201804857756TVA FACT ACH             D3         24127  02 2000        120633000000                   0                       0                       0                       0                       0             
LS 201865 000008562605/10/2018094507TVA4456600009002257103/10/201802/12/201804/10/201804857756TVA FACT ACH             D3           636  03  550         11572000000                   0                       0                       0                       0                       0             
LS 201865 000008562605/10/2018094507TVA4456600009002257103/10/201802/12/201804/10/201804857756TVA FACT ACH             D3          4202  07 1000         42023000000                   0                       0                       0                       0                       0             
LS 201865 000008562605/10/2018094507FSR4011000009002257103/10/201802/12/201804/10/201804857757FACT ACH  930433797      C3         95316VI00    0             0000000               9531602/12/2018             0                       0                       0                       0             
LS 201865 000008562605/10/2018094507GEN6075000009002257103/10/201802/12/201804/10/201804857757FACT ACH                 D3          5294  03  550          5294000000448308             0                       0                       0                       0                       0             
LS 201865 000008562605/10/2018094507GEN6075000009002257103/10/201802/12/201804/10/201804857757FACT ACH                 D3         10474  07 1000         10474000000448307             0                       0                       0                       0                       0             
LS 201865 000008562605/10/2018094507GEN6075000009002257103/10/201802/12/201804/10/201804857757FACT ACH                 D3          9292  07 1000          9292000000448309             0                       0                       0                       0                       0             
LS 201865 000008562605/10/2018094507GEN6075000009002257103/10/201802/12/201804/10/201804857757FACT ACH                 D3          1650  02 2000          1650000000448301             0                       0                       0                       0                       0             
LS 201865 000008562605/10/2018094507GEN6075000009002257103/10/201802/12/201804/10/201804857757FACT ACH                 D3         32566  02 2000         32566000000448302             0                       0                       0                       0                       0             
LS 201865 000008562605/10/2018094507GEN6075000009002257103/10/201802/12/201804/10/201804857757FACT ACH                 D3          1630  02 2000          1630000000448304             0                       0                       0                       0                       0             
LS 201865 000008562605/10/2018094507GEN6075000009002257103/10/201802/12/201804/10/201804857757FACT ACH                 D3          2613  02 2000          2613000000448305             0                       0                       0                       0                       0             
LS 201865 000008562605/10/2018094507GEN6075000009002257103/10/201802/12/201804/10/201804857757FACT ACH                 D3         18198  02 2000         18198000000448307             0                       0                       0                       0                       0             
LS 201865 000008562605/10/2018094507TVA4456600009002257103/10/201802/12/201804/10/201804857757TVA FACT ACH             D3         11331  02 2000         56657000000                   0                       0                       0                       0                       0             
LS 201865 000008562605/10/2018094507TVA4456600009002257103/10/201802/12/201804/10/201804857757TVA FACT ACH             D3           291  03  550          5294000000                   0                       0                       0                       0                       0             
LS 201865 000008562605/10/2018094507TVA4456600009002257103/10/201802/12/201804/10/201804857757TVA FACT ACH             D3          1977  07 1000         19766000000                   0                       0                       0                       0                       0             
LS 201865 000008562605/10/2018094507FSR4011000009002257103/10/201802/12/201804/10/201804857758FACT ACH  930433798      C3         23482VI00    0             0000000               2348202/12/2018             0                       0                       0                       0             
LS 201865 000008562605/10/2018094507GEN6075000009002257103/10/201802/12/201804/10/201804857758FACT ACH                 D3         22258  03  550         22258000000448308             0                       0                       0                       0                       0             
LS 201865 000008562605/10/2018094507TVA4456600009002257103/10/201802/12/201804/10/201804857758TVA FACT ACH             D3          1224  03  550         22258000000                   0                       0                       0                       0                       0             
LS 201865 000008562605/10/2018094507FSR4011000009002257103/10/201802/12/201804/10/201804857759FACT ACH  930433799      C3          1992VI00    0             0000000                199202/12/2018             0                       0                       0                       0             
LS 201865 000008562605/10/2018094507GEN6075000009002257103/10/201802/12/201804/10/201804857759FACT ACH                 D3          1660  02 2000          1660000000448306             0                       0                       0                       0                       0             
LS 201865 000008562605/10/2018094507TVA4456600009002257103/10/201802/12/201804/10/201804857759TVA FACT ACH             D3           332  02 2000          1660000000                   0                       0                       0                       0                       0             
LS 201865 000008562605/10/2018094507FSR4011000009002257103/10/201802/12/201804/10/201804857760FACT ACH  930433800      C3         89123VI00    0             0000000               8912302/12/2018             0                       0                       0                       0             
LS 201865 000008562605/10/2018094507GEN6075000009002257103/10/201802/12/201804/10/201804857760FACT ACH                 D3         81021  07 1000         81021000000448307             0                       0                       0                       0                       0             
LS 201865 000008562605/10/2018094507TVA4456600009002257103/10/201802/12/201804/10/201804857760TVA FACT ACH             D3          8102  07 1000         81021000000                   0                       0                       0                       0                       0             
LS 201865 000008562605/10/2018094507FSR4011000009002257103/10/201802/12/201804/10/201804857761FACT ACH  930433801      C3         25225VI00    0             0000000               2522502/12/2018             0                       0                       0                       0             
LS 201865 000008562605/10/2018094507GEN6075000009002257103/10/201802/12/201804/10/201804857761FACT ACH                 D3         22932  07 1000         22932000000141307             0                       0                       0                       0                       0             
LS 201865 000008562605/10/2018094507TVA4456600009002257103/10/201802/12/201804/10/201804857761TVA FACT ACH             D3          2293  07 1000         22932000000                   0                       0                       0                       0                       0             
LS 201865 000008562605/10/2018094507FSR4011000009002257103/10/201802/12/201804/10/201804857762FACT ACH  930433802      C3           996VI00    0             0000000                 99602/12/2018             0                       0                       0                       0             
LS 201865 000008562605/10/2018094507GEN6075000009002257103/10/201802/12/201804/10/201804857762FACT ACH                 D3           830  02 2000           830000000141306             0                       0                       0                       0                       0             
LS 201865 000008562605/10/2018094507TVA4456600009002257103/10/201802/12/201804/10/201804857762TVA FACT ACH             D3           166  02 2000           830000000                   0                       0                       0                       0                       0             
LS 201865 000008562605/10/2018094507FSR4011000009002257103/10/201802/12/201804/10/201804857763FACT ACH  930433803      C3        185768VI00    0             0000000              18576802/12/2018             0                       0                       0                       0             
LS 201865 000008562605/10/2018094507GEN6075000009002257103/10/201802/12/201804/10/201804857763FACT ACH                 D3          4420  03  550          4420000000141308             0                       0                       0                       0                       0             
LS 201865 000008562605/10/2018094507GEN6075000009002257103/10/201802/12/201804/10/201804857763FACT ACH                 D3         11532  07 1000         11532000000141302             0                       0                       0                       0                       0             
LS 201865 000008562605/10/2018094507GEN6075000009002257103/10/201802/12/201804/10/201804857763FACT ACH                 D3         20355  07 1000         20355000000141307             0                       0                       0                       0                       0             
LS 201865 000008562605/10/2018094507GEN6075000009002257103/10/201802/12/201804/10/201804857763FACT ACH                 D3          7768  02 2000          7768000000141301             0                       0                       0                       0                       0             
LS 201865 000008562605/10/2018094507GEN6075000009002257103/10/201802/12/201804/10/201804857763FACT ACH                 D3         46002  02 2000         46002000000141302             0                       0                       0                       0                       0             
LS 201865 000008562605/10/2018094507GEN6075000009002257103/10/201802/12/201804/10/201804857763FACT ACH                 D3          4497  02 2000          4497000000141304             0                       0                       0                       0                       0             
LS 201865 000008562605/10/2018094507GEN6075000009002257103/10/201802/12/201804/10/201804857763FACT ACH                 D3         13579  02 2000         13579000000141305             0                       0                       0                       0                       0             
LS 201865 000008562605/10/2018094507GEN6075000009002257103/10/201802/12/201804/10/201804857763FACT ACH                 D3         12103  02 2000         12103000000141306             0                       0                       0                       0                       0             
LS 201865 000008562605/10/2018094507GEN6075000009002257103/10/201802/12/201804/10/201804857763FACT ACH                 D3         34400  02 2000         34400000000141307             0                       0                       0                       0                       0             
LS 201865 000008562605/10/2018094507GEN6075000009002257103/10/201802/12/201804/10/201804857763FACT ACH                 D3          3342  02 2000          3342000000141308             0                       0                       0                       0                       0             
LS 201865 000008562605/10/2018094507TVA4456600009002257103/10/201802/12/201804/10/201804857763TVA FACT ACH             D3         24338  02 2000        121691000000                   0                       0                       0                       0                       0             
LS 201865 000008562605/10/2018094507TVA4456600009002257103/10/201802/12/201804/10/201804857763TVA FACT ACH             D3           243  03  550          4420000000                   0                       0                       0                       0                       0             
LS 201865 000008562605/10/2018094507TVA4456600009002257103/10/201802/12/201804/10/201804857763TVA FACT ACH             D3          3189  07 1000         31887000000                   0                       0                       0                       0                       0             
LS 201865 000008562605/10/2018094507FSR4011000009002257103/10/201802/12/201804/10/201804857764FACT ACH  930433805      C3         52602VI00    0             0000000               5260202/12/2018             0                       0                       0                       0             
LS 201865 000008562605/10/2018094507GEN6075000009002257103/10/201802/12/201804/10/201804857764FACT ACH                 D3         47820  07 1000         47820000000116307             0                       0                       0                       0                       0             
LS 201865 000008562605/10/2018094507TVA4456600009002257103/10/201802/12/201804/10/201804857764TVA FACT ACH             D3          4782  07 1000         47820000000                   0                       0                       0                       0                       0             
LS 201865 000008562605/10/2018094507FSR4011000009002257103/10/201802/12/201804/10/201804857765FACT ACH  930433806      C3         24822VI00    0             0000000               2482202/12/2018             0                       0                       0                       0             
LS 201865 000008562605/10/2018094507GEN6075000009002257103/10/201802/12/201804/10/201804857765FACT ACH                 D3         23528  03  550         23528000000116308             0                       0                       0                       0                       0             
LS 201865 000008562605/10/2018094507TVA4456600009002257103/10/201802/12/201804/10/201804857765TVA FACT ACH             D3          1294  03  550         23528000000                   0                       0                       0                       0                       0             
LS 201865 000008562605/10/2018094507FSR4011000009002257103/10/201802/12/201804/10/201804857766FACT ACH  930433807      C3           498VI00    0             0000000                 49802/12/2018             0                       0                       0                       0             
LS 201865 000008562605/10/2018094507GEN6075000009002257103/10/201802/12/201804/10/201804857766FACT ACH                 D3           415  02 2000           415000000116306             0                       0                       0                       0                       0             
LS 201865 000008562605/10/2018094507TVA4456600009002257103/10/201802/12/201804/10/201804857766TVA FACT ACH             D3            83  02 2000           415000000                   0                       0                       0                       0                       0             
LS 201865 000008562605/10/2018094507FSR4011000009002257103/10/201802/12/201804/10/201804857767FACT ACH  930433808      C3          7891VI00    0             0000000                789102/12/2018             0                       0                       0                       0             
LS 201865 000008562605/10/2018094507GEN6075000009002257103/10/201802/12/201804/10/201804857767FACT ACH                 D3          6576  02 2000          6576000000116302             0                       0                       0                       0                       0             
LS 201865 000008562605/10/2018094507TVA4456600009002257103/10/201802/12/201804/10/201804857767TVA FACT ACH             D3          1315  02 2000          6576000000                   0                       0                       0                       0                       0             
LS 201865 000008562605/10/2018094507FSR4011000009002257103/10/201802/12/201804/10/201804857768FACT ACH  930433809      C3          1992VI00    0             0000000                199202/12/2018             0                       0                       0                       0             
LS 201865 000008562605/10/2018094507GEN6075000009002257103/10/201802/12/201804/10/201804857768FACT ACH                 D3          1660  02 2000          1660000000146306             0                       0                       0                       0                       0             
LS 201865 000008562605/10/2018094507TVA4456600009002257103/10/201802/12/201804/10/201804857768TVA FACT ACH             D3           332  02 2000          1660000000                   0                       0                       0                       0                       0             
LS 201865 000008562605/10/2018094507FSR4011000009002257103/10/201802/12/201804/10/201804857769FACT ACH  930433810      C3         53578VI00    0             0000000               5357802/12/2018             0                       0                       0                       0             
LS 201865 000008562605/10/2018094507GEN6075000009002257103/10/201802/12/201804/10/201804857769FACT ACH                 D3         44648  02 2000         44648000000146302             0                       0                       0                       0                       0             
LS 201865 000008562605/10/2018094507TVA4456600009002257103/10/201802/12/201804/10/201804857769TVA FACT ACH             D3          8930  02 2000         44648000000                   0                       0                       0                       0                       0             
LS 201865 000008562605/10/2018094508FSR4011000009002257103/10/201802/12/201804/10/201804857770FACT ACH  930433811      C3         30072VI00    0             0000000               3007202/12/2018             0                       0                       0                       0             
LS 201865 000008562605/10/2018094508GEN6075000009002257103/10/201802/12/201804/10/201804857770FACT ACH                 D3         28504  03  550         28504000000146308             0                       0                       0                       0                       0             
LS 201865 000008562605/10/2018094508TVA4456600009002257103/10/201802/12/201804/10/201804857770TVA FACT ACH             D3          1568  03  550         28504000000                   0                       0                       0                       0                       0             
LS 201865 000008562605/10/2018094508FSR4011000009002257103/10/201802/12/201804/10/201804857771FACT ACH  930433814      C3         21252VI00    0             0000000               2125202/12/2018             0                       0                       0                       0             
LS 201865 000008562605/10/2018094508GEN6075000009002257103/10/201802/12/201804/10/201804857771FACT ACH                 D3         20144  03  550         20144000000117308             0                       0                       0                       0                       0             
LS 201865 000008562605/10/2018094508TVA4456600009002257103/10/201802/12/201804/10/201804857771TVA FACT ACH             D3          1108  03  550         20144000000                   0                       0                       0                       0                       0             
LS 201865 000008562605/10/2018094508FSR4011000009002257103/10/201802/12/201804/10/201804857772FACT ACH  930433816      C3        325480VI00    0             0000000              32548002/12/2018             0                       0                       0                       0             
LS 201865 000008562605/10/2018094508GEN6075000009002257103/10/201802/12/201804/10/201804857772FACT ACH                 D3         27382  03  550         27382000000171308             0                       0                       0                       0                       0             
LS 201865 000008562605/10/2018094508GEN6075000009002257103/10/201802/12/201804/10/201804857772FACT ACH                 D3         18811  07 1000         18811000000171302             0                       0                       0                       0                       0             
LS 201865 000008562605/10/2018094508GEN6075000009002257103/10/201802/12/201804/10/201804857772FACT ACH                 D3          7584  07 1000          7584000000171307             0                       0                       0                       0                       0             
LS 201865 000008562605/10/2018094508GEN6075000009002257103/10/201802/12/201804/10/201804857772FACT ACH                 D3         22582  07 1000         22582000000171309             0                       0                       0                       0                       0             
LS 201865 000008562605/10/2018094508GEN6075000009002257103/10/201802/12/201804/10/201804857772FACT ACH                 D3          2189  02 2000          2189000000171301             0                       0                       0                       0                       0             
LS 201865 000008562605/10/2018094508GEN6075000009002257103/10/201802/12/201804/10/201804857772FACT ACH                 D3        102275  02 2000        102275000000171302             0                       0                       0                       0                       0             
LS 201865 000008562605/10/2018094508GEN6075000009002257103/10/201802/12/201804/10/201804857772FACT ACH                 D3          1284  02 2000          1284000000171303             0                       0                       0                       0                       0             
LS 201865 000008562605/10/2018094508GEN6075000009002257103/10/201802/12/201804/10/201804857772FACT ACH                 D3         33548  02 2000         33548000000171304             0                       0                       0                       0                       0             
LS 201865 000008562605/10/2018094508GEN6075000009002257103/10/201802/12/201804/10/201804857772FACT ACH                 D3         10696  02 2000         10696000000171305             0                       0                       0                       0                       0             
LS 201865 000008562605/10/2018094508GEN6075000009002257103/10/201802/12/201804/10/201804857772FACT ACH                 D3         34002  02 2000         34002000000171306             0                       0                       0                       0                       0             
LS 201865 000008562605/10/2018094508GEN6075000009002257103/10/201802/12/201804/10/201804857772FACT ACH                 D3         16878  02 2000         16878000000171307             0                       0                       0                       0                       0             
LS 201865 000008562605/10/2018094508GEN6075000009002257103/10/201802/12/201804/10/201804857772FACT ACH                 D3          1392  02 2000          1392000000171308             0                       0                       0                       0                       0             
LS 201865 000008562605/10/2018094508TVA4456600009002257103/10/201802/12/201804/10/201804857772TVA FACT ACH             D3         40453  02 2000        202264000000                   0                       0                       0                       0                       0             
LS 201865 000008562605/10/2018094508TVA4456600009002257103/10/201802/12/201804/10/201804857772TVA FACT ACH             D3          1506  03  550         27382000000                   0                       0                       0                       0                       0             
LS 201865 000008562605/10/2018094508TVA4456600009002257103/10/201802/12/201804/10/201804857772TVA FACT ACH             D3          4898  07 1000         48977000000                   0                       0                       0                       0                       0             
LS 201865 000008562605/10/2018094508FSR4011000009002257103/10/201802/12/201804/10/201804857773FACT ACH  930433817      C3         77345VI00    0             0000000               7734502/12/2018             0                       0                       0                       0             
LS 201865 000008562605/10/2018094508GEN6075000009002257103/10/201802/12/201804/10/201804857773FACT ACH                 D3         70314  07 1000         70314000000171307             0                       0                       0                       0                       0             
LS 201865 000008562605/10/2018094508TVA4456600009002257103/10/201802/12/201804/10/201804857773TVA FACT ACH             D3          7031  07 1000         70314000000                   0                       0                       0                       0                       0             
LS 201865 000008562605/10/2018094508FSR4011000009002257103/10/201802/12/201804/10/201804857774FACT ACH  930433818      C3           996VI00    0             0000000                 99602/12/2018             0                       0                       0                       0             
LS 201865 000008562605/10/2018094508GEN6075000009002257103/10/201802/12/201804/10/201804857774FACT ACH                 D3           830  02 2000           830000000171306             0                       0                       0                       0                       0             
LS 201865 000008562605/10/2018094508TVA4456600009002257103/10/201802/12/201804/10/201804857774TVA FACT ACH             D3           166  02 2000           830000000                   0                       0                       0                       0                       0             
LS 201865 000008562605/10/2018094508FSR4011000009002257103/10/201802/12/201804/10/201804857775FACT ACH  930433819      C3          7891VI00    0             0000000                789102/12/2018             0                       0                       0                       0             
LS 201865 000008562605/10/2018094508GEN6075000009002257103/10/201802/12/201804/10/201804857775FACT ACH                 D3          6576  02 2000          6576000000171302             0                       0                       0                       0                       0             
LS 201865 000008562605/10/2018094508TVA4456600009002257103/10/201802/12/201804/10/201804857775TVA FACT ACH             D3          1315  02 2000          6576000000                   0                       0                       0                       0                       0             
LS 201865 000008562605/10/2018094508FSR4011000009002257103/10/201802/12/201804/10/201804857776FACT ACH  930433820      C3         41945VI00    0             0000000               4194502/12/2018             0                       0                       0                       0             
LS 201865 000008562605/10/2018094508GEN6075000009002257103/10/201802/12/201804/10/201804857776FACT ACH                 D3         34954  02 2000         34954000000171302             0                       0                       0                       0                       0             
LS 201865 000008562605/10/2018094508TVA4456600009002257103/10/201802/12/201804/10/201804857776TVA FACT ACH             D3          6991  02 2000         34954000000                   0                       0                       0                       0                       0             
LS 201865 000008562605/10/2018094508FSR4011000009002257103/10/201802/12/201804/10/201804857777FACT ACH  930433821      C3         22252VI00    0             0000000               2225202/12/2018             0                       0                       0                       0             
LS 201865 000008562605/10/2018094508GEN6075000009002257103/10/201802/12/201804/10/201804857777FACT ACH                 D3         21092  03  550         21092000000171308             0                       0                       0                       0                       0             
LS 201865 000008562605/10/2018094508TVA4456600009002257103/10/201802/12/201804/10/201804857777TVA FACT ACH             D3          1160  03  550         21092000000                   0                       0                       0                       0                       0             
LS 201865 000008562605/10/2018094508FSR4011000009002257103/10/201802/12/201804/10/201804857778FACT ACH  930433822      C3         14602VI00    0             0000000               1460202/12/2018             0                       0                       0                       0             
LS 201865 000008562605/10/2018094508GEN6075000009002257103/10/201802/12/201804/10/201804857778FACT ACH                 D3          8174  02 2000          8174000000302304             0                       0                       0                       0                       0             
LS 201865 000008562605/10/2018094508GEN6075000009002257103/10/201802/12/201804/10/201804857778FACT ACH                 D3          3994  02 2000          3994000000302307             0                       0                       0                       0                       0             
LS 201865 000008562605/10/2018094508TVA4456600009002257103/10/201802/12/201804/10/201804857778TVA FACT ACH             D3          2434  02 2000         12168000000                   0                       0                       0                       0                       0             
LS 201865 000008562605/10/2018094508FSR4011000009002257103/10/201802/12/201804/10/201804857779FACT ACH  930433825      C3         17424VI00    0             0000000               1742402/12/2018             0                       0                       0                       0             
LS 201865 000008562605/10/2018094508GEN6075000009002257103/10/201802/12/201804/10/201804857779FACT ACH                 D3         14520  02 2000         14520000000302302             0                       0                       0                       0                       0             
LS 201865 000008562605/10/2018094508TVA4456600009002257103/10/201802/12/201804/10/201804857779TVA FACT ACH             D3          2904  02 2000         14520000000                   0                       0                       0                       0                       0             
LS 201865 000008562605/10/2018094508FSR4011000009002257103/10/201802/12/201804/10/201804857780FACT ACH  930433826      C3         69676VI00    0             0000000               6967602/12/2018             0                       0                       0                       0             
LS 201865 000008562605/10/2018094508GEN6075000009002257103/10/201802/12/201804/10/201804857780FACT ACH                 D3          5445  07 1000          5445000000234307             0                       0                       0                       0                       0             
LS 201865 000008562605/10/2018094508GEN6075000009002257103/10/201802/12/201804/10/201804857780FACT ACH                 D3         23061  02 2000         23061000000234302             0                       0                       0                       0                       0             
LS 201865 000008562605/10/2018094508GEN6075000009002257103/10/201802/12/201804/10/201804857780FACT ACH                 D3          9686  02 2000          9686000000234305             0                       0                       0                       0                       0             
LS 201865 000008562605/10/2018094508GEN6075000009002257103/10/201802/12/201804/10/201804857780FACT ACH                 D3          2496  02 2000          2496000000234306             0                       0                       0                       0                       0             
LS 201865 000008562605/10/2018094508GEN6075000009002257103/10/201802/12/201804/10/201804857780FACT ACH                 D3         17829  02 2000         17829000000234307             0                       0                       0                       0                       0             
LS 201865 000008562605/10/2018094508TVA4456600009002257103/10/201802/12/201804/10/201804857780TVA FACT ACH             D3         10614  02 2000         53072000000                   0                       0                       0                       0                       0             
LS 201865 000008562605/10/2018094508TVA4456600009002257103/10/201802/12/201804/10/201804857780TVA FACT ACH             D3           545  07 1000          5445000000                   0                       0                       0                       0                       0             
LS 201865 000008562605/10/2018094508FSR4011000009002257103/10/201802/12/201804/10/201804857781FACT ACH  930433829      C3         81074VI00    0             0000000               8107402/12/2018             0                       0                       0                       0             
LS 201865 000008562605/10/2018094508GEN6075000009002257103/10/201802/12/201804/10/201804857781FACT ACH                 D3          7704  07 1000          7704000000302302             0                       0                       0                       0                       0             
LS 201865 000008562605/10/2018094508GEN6075000009002257103/10/201802/12/201804/10/201804857781FACT ACH                 D3          4034  07 1000          4034000000302307             0                       0                       0                       0                       0             
LS 201865 000008562605/10/2018094508GEN6075000009002257103/10/201802/12/201804/10/201804857781FACT ACH                 D3         16347  02 2000         16347000000302302             0                       0                       0                       0                       0             
LS 201865 000008562605/10/2018094508GEN6075000009002257103/10/201802/12/201804/10/201804857781FACT ACH                 D3          1752  02 2000          1752000000302304             0                       0                       0                       0                       0             
LS 201865 000008562605/10/2018094508GEN6075000009002257103/10/201802/12/201804/10/201804857781FACT ACH                 D3          5388  02 2000          5388000000302305             0                       0                       0                       0                       0             
LS 201865 000008562605/10/2018094508GEN6075000009002257103/10/201802/12/201804/10/201804857781FACT ACH                 D3         11905  02 2000         11905000000302306             0                       0                       0                       0                       0             
LS 201865 000008562605/10/2018094508GEN6075000009002257103/10/201802/12/201804/10/201804857781FACT ACH                 D3         21410  02 2000         21410000000302307             0                       0                       0                       0                       0             
LS 201865 000008562605/10/2018094508TVA4456600009002257103/10/201802/12/201804/10/201804857781TVA FACT ACH             D3         11360  02 2000         56802000000                   0                       0                       0                       0                       0             
LS 201865 000008562605/10/2018094508TVA4456600009002257103/10/201802/12/201804/10/201804857781TVA FACT ACH             D3          1174  07 1000         11738000000                   0                       0                       0                       0                       0             
LS 201865 000008562605/10/2018094508FSR4011000009002257103/10/201802/12/201804/10/201804857782FACT ACH  930433830      C3           498VI00    0             0000000                 49802/12/2018             0                       0                       0                       0             
LS 201865 000008562605/10/2018094508GEN6075000009002257103/10/201802/12/201804/10/201804857782FACT ACH                 D3           415  02 2000           415000000246306             0                       0                       0                       0                       0             
LS 201865 000008562605/10/2018094508TVA4456600009002257103/10/201802/12/201804/10/201804857782TVA FACT ACH             D3            83  02 2000           415000000                   0                       0                       0                       0                       0             
LS 201865 000008562605/10/2018094508FSR4011000009002257103/10/201802/12/201804/10/201804857783FACT ACH  930433831      C3         15002VI00    0             0000000               1500202/12/2018             0                       0                       0                       0             
LS 201865 000008562605/10/2018094508GEN6075000009002257103/10/201802/12/201804/10/201804857783FACT ACH                 D3         14220  03  550         14220000000246308             0                       0                       0                       0                       0             
LS 201865 000008562605/10/2018094508TVA4456600009002257103/10/201802/12/201804/10/201804857783TVA FACT ACH             D3           782  03  550         14220000000                   0                       0                       0                       0                       0             
LS 201865 000008562605/10/2018094508FSR4011000009002257103/10/201802/12/201804/10/201804857784FACT ACH  930433833      C3        108963VI00    0             0000000              10896302/12/2018             0                       0                       0                       0             
LS 201865 000008562605/10/2018094508GEN6075000009002257103/10/201802/12/201804/10/201804857784FACT ACH                 D3         49950  03  550         49950000000246308             0                       0                       0                       0                       0             
LS 201865 000008562605/10/2018094508GEN6075000009002257103/10/201802/12/201804/10/201804857784FACT ACH                 D3           795  07 1000           795000000246307             0                       0                       0                       0                       0             
LS 201865 000008562605/10/2018094508GEN6075000009002257103/10/201802/12/201804/10/201804857784FACT ACH                 D3          3689  02 2000          3689000000246302             0                       0                       0                       0                       0             
LS 201865 000008562605/10/2018094508GEN6075000009002257103/10/201802/12/201804/10/201804857784FACT ACH                 D3          7370  02 2000          7370000000246304             0                       0                       0                       0                       0             
LS 201865 000008562605/10/2018094508GEN6075000009002257103/10/201802/12/201804/10/201804857784FACT ACH                 D3          7372  02 2000          7372000000246305             0                       0                       0                       0                       0             
LS 201865 000008562605/10/2018094508GEN6075000009002257103/10/201802/12/201804/10/201804857784FACT ACH                 D3         13854  02 2000         13854000000246306             0                       0                       0                       0                       0             
LS 201865 000008562605/10/2018094508GEN6075000009002257103/10/201802/12/201804/10/201804857784FACT ACH                 D3          7318  02 2000          7318000000246307             0                       0                       0                       0                       0             
LS 201865 000008562605/10/2018094508GEN6075000009002257103/10/201802/12/201804/10/201804857784FACT ACH                 D3          6556  02 2000          6556000000246308             0                       0                       0                       0                       0             
LS 201865 000008562605/10/2018094508TVA4456600009002257103/10/201802/12/201804/10/201804857784TVA FACT ACH             D3          9232  02 2000         46159000000                   0                       0                       0                       0                       0             
LS 201865 000008562605/10/2018094508TVA4456600009002257103/10/201802/12/201804/10/201804857784TVA FACT ACH             D3          2747  03  550         49950000000                   0                       0                       0                       0                       0             
LS 201865 000008562605/10/2018094508TVA4456600009002257103/10/201802/12/201804/10/201804857784TVA FACT ACH             D3            80  07 1000           795000000                   0                       0                       0                       0                       0             
LS 201865 000008562605/10/2018094508FSR4011000009002257103/10/201802/12/201804/10/201804857785FACT ACH  930433838      C3          6455VI00    0             0000000                645502/12/2018             0                       0                       0                       0             
LS 201865 000008562605/10/2018094508GEN6075000009002257103/10/201802/12/201804/10/201804857785FACT ACH                 D3          5868  07 1000          5868000000302307             0                       0                       0                       0                       0             
LS 201865 000008562605/10/2018094508TVA4456600009002257103/10/201802/12/201804/10/201804857785TVA FACT ACH             D3           587  07 1000          5868000000                   0                       0                       0                       0                       0             
LS 201865 000008562605/10/2018094508FSR4011000009002257103/10/201802/12/201804/10/201804857786FACT ACH  930433839      C3         25225VI00    0             0000000               2522502/12/2018             0                       0                       0                       0             
LS 201865 000008562605/10/2018094508GEN6075000009002257103/10/201802/12/201804/10/201804857786FACT ACH                 D3         22932  07 1000         22932000000246307             0                       0                       0                       0                       0             
LS 201865 000008562605/10/2018094508TVA4456600009002257103/10/201802/12/201804/10/201804857786TVA FACT ACH             D3          2293  07 1000         22932000000                   0                       0                       0                       0                       0             
LS 201865 000008562605/10/2018094508FSR4011000009002257103/10/201802/12/201804/10/201804857787FACT ACH  930433842      C3         22252VI00    0             0000000               2225202/12/2018             0                       0                       0                       0             
LS 201865 000008562605/10/2018094508GEN6075000009002257103/10/201802/12/201804/10/201804857787FACT ACH                 D3         21092  03  550         21092000000235308             0                       0                       0                       0                       0             
LS 201865 000008562605/10/2018094508TVA4456600009002257103/10/201802/12/201804/10/201804857787TVA FACT ACH             D3          1160  03  550         21092000000                   0                       0                       0                       0                       0             
LS 201865 000008562605/10/2018094508FSR4011000009002257103/10/201802/12/201804/10/201804857788FACT ACH  930433843      C3         26431VI00    0             0000000               2643102/12/2018             0                       0                       0                       0             
LS 201865 000008562605/10/2018094508GEN6075000009002257103/10/201802/12/201804/10/201804857788FACT ACH                 D3         22026  02 2000         22026000000235302             0                       0                       0                       0                       0             
LS 201865 000008562605/10/2018094508TVA4456600009002257103/10/201802/12/201804/10/201804857788TVA FACT ACH             D3          4405  02 2000         22026000000                   0                       0                       0                       0                       0             
LS 201865 000008562605/10/2018094508FSR4011000009002257103/10/201802/12/201804/10/201804857789FACT ACH  930433844      C3        164901VI00    0             0000000              16490102/12/2018             0                       0                       0                       0             
LS 201865 000008562605/10/2018094508GEN6075000009002257103/10/201802/12/201804/10/201804857789FACT ACH                 D3          8196  07 1000          8196000000235302             0                       0                       0                       0                       0             
LS 201865 000008562605/10/2018094508GEN6075000009002257103/10/201802/12/201804/10/201804857789FACT ACH                 D3          5955  07 1000          5955000000235307             0                       0                       0                       0                       0             
LS 201865 000008562605/10/2018094508GEN6075000009002257103/10/201802/12/201804/10/201804857789FACT ACH                 D3          2998  02 2000          2998000000235301             0                       0                       0                       0                       0             
LS 201865 000008562605/10/2018094508GEN6075000009002257103/10/201802/12/201804/10/201804857789FACT ACH                 D3          8816  02 2000          8816000000235302             0                       0                       0                       0                       0             
LS 201865 000008562605/10/2018094508GEN6075000009002257103/10/201802/12/201804/10/201804857789FACT ACH                 D3         41450  02 2000         41450000000235303             0                       0                       0                       0                       0             
LS 201865 000008562605/10/2018094508GEN6075000009002257103/10/201802/12/201804/10/201804857789FACT ACH                 D3          8671  02 2000          8671000000235304             0                       0                       0                       0                       0             
LS 201865 000008562605/10/2018094508GEN6075000009002257103/10/201802/12/201804/10/201804857789FACT ACH                 D3         41986  02 2000         41986000000235305             0                       0                       0                       0                       0             
LS 201865 000008562605/10/2018094508GEN6075000009002257103/10/201802/12/201804/10/201804857789FACT ACH                 D3          1537  02 2000          1537000000235306             0                       0                       0                       0                       0             
LS 201865 000008562605/10/2018094508GEN6075000009002257103/10/201802/12/201804/10/201804857789FACT ACH                 D3         18988  02 2000         18988000000235307             0                       0                       0                       0                       0             
LS 201865 000008562605/10/2018094508TVA4456600009002257103/10/201802/12/201804/10/201804857789TVA FACT ACH             D3         24889  02 2000        124446000000                   0                       0                       0                       0                       0             
LS 201865 000008562605/10/2018094508TVA4456600009002257103/10/201802/12/201804/10/201804857789TVA FACT ACH             D3          1415  07 1000         14151000000                   0                       0                       0                       0                       0             
LS 201865 000008562605/10/2018094508FSR4011000009002257103/10/201802/12/201804/10/201804857790FACT ACH  930433845      C3          4368VI00    0             0000000                436802/12/2018             0                       0                       0                       0             
LS 201865 000008562605/10/2018094508GEN6075000009002257103/10/201802/12/201804/10/201804857790FACT ACH                 D3          4140  03  550          4140000000146308             0                       0                       0                       0                       0             
LS 201865 000008562605/10/2018094508TVA4456600009002257103/10/201802/12/201804/10/201804857790TVA FACT ACH             D3           228  03  550          4140000000                   0                       0                       0                       0                       0             
LS 201865 000008562605/10/2018094508FSR4011000009002257103/10/201802/12/201804/10/201804857791FACT ACH  930433846      C3          2570VI00    0             0000000                257002/12/2018             0                       0                       0                       0             
LS 201865 000008562605/10/2018094508GEN6075000009002257103/10/201802/12/201804/10/201804857791FACT ACH                 D3          2436  03  550          2436000000116308             0                       0                       0                       0                       0             
LS 201865 000008562605/10/2018094508TVA4456600009002257103/10/201802/12/201804/10/201804857791TVA FACT ACH             D3           134  03  550          2436000000                   0                       0                       0                       0                       0             
LS 201865 000008562605/10/2018094508FSR4011000009002257103/10/201802/12/201804/10/201804857792FACT ACH  930433847      C3         16551VI00    0             0000000               1655102/12/2018             0                       0                       0                       0             
LS 201865 000008562605/10/2018094508GEN6075000009002257103/10/201802/12/201804/10/201804857792FACT ACH                 D3          4820  07 1000          4820000000132305             0                       0                       0                       0                       0             
LS 201865 000008562605/10/2018094508GEN6075000009002257103/10/201802/12/201804/10/201804857792FACT ACH                 D3          8354  02 2000          8354000000132302             0                       0                       0                       0                       0             
LS 201865 000008562605/10/2018094508GEN6075000009002257103/10/201802/12/201804/10/201804857792FACT ACH                 D3          1020  02 2000          1020000000132305             0                       0                       0                       0                       0             
LS 201865 000008562605/10/2018094508TVA4456600009002257103/10/201802/12/201804/10/201804857792TVA FACT ACH             D3          1875  02 2000          9374000000                   0                       0                       0                       0                       0             
LS 201865 000008562605/10/2018094508TVA4456600009002257103/10/201802/12/201804/10/201804857792TVA FACT ACH             D3           482  07 1000          4820000000                   0                       0                       0                       0                       0             
LS 201865 000008562605/10/2018094508FSR4011000009002257103/10/201802/12/201804/10/201804857793FACT ACH  930433848      C3        172210VI00    0             0000000              17221002/12/2018             0                       0                       0                       0             
LS 201865 000008562605/10/2018094508GEN6075000009002257103/10/201802/12/201804/10/201804857793FACT ACH                 D3         37480  03  550         37480000000146308             0                       0                       0                       0                       0             
LS 201865 000008562605/10/2018094508GEN6075000009002257103/10/201802/12/201804/10/201804857793FACT ACH                 D3          4930  07 1000          4930000000146302             0                       0                       0                       0                       0             
LS 201865 000008562605/10/2018094508GEN6075000009002257103/10/201802/12/201804/10/201804857793FACT ACH                 D3         12281  07 1000         12281000000146307             0                       0                       0                       0                       0             
LS 201865 000008562605/10/2018094508GEN6075000009002257103/10/201802/12/201804/10/201804857793FACT ACH                 D3          2358  07 1000          2358000000146313             0                       0                       0                       0                       0             
LS 201865 000008562605/10/2018094508GEN6075000009002257103/10/201802/12/201804/10/201804857793FACT ACH                 D3          1158  02 2000          1158000000146301             0                       0                       0                       0                       0             
LS 201865 000008562605/10/2018094508GEN6075000009002257103/10/201802/12/201804/10/201804857793FACT ACH                 D3         36982  02 2000         36982000000146302             0                       0                       0                       0                       0             
LS 201865 000008562605/10/2018094508GEN6075000009002257103/10/201802/12/201804/10/201804857793FACT ACH                 D3          3420  02 2000          3420000000146303             0                       0                       0                       0                       0             
LS 201865 000008562605/10/2018094508GEN6075000009002257103/10/201802/12/201804/10/201804857793FACT ACH                 D3          9964  02 2000          9964000000146304             0                       0                       0                       0                       0             
LS 201865 000008562605/10/2018094508GEN6075000009002257103/10/201802/12/201804/10/201804857793FACT ACH                 D3         12377  02 2000         12377000000146305             0                       0                       0                       0                       0             
LS 201865 000008562605/10/2018094508GEN6075000009002257103/10/201802/12/201804/10/201804857793FACT ACH                 D3           993  02 2000           993000000146306             0                       0                       0                       0                       0             
LS 201865 000008562605/10/2018094508GEN6075000009002257103/10/201802/12/201804/10/201804857793FACT ACH                 D3          9767  02 2000          9767000000146307             0                       0                       0                       0                       0             
LS 201865 000008562605/10/2018094508GEN6075000009002257103/10/201802/12/201804/10/201804857793FACT ACH                 D3         17958  02 2000         17958000000146308             0                       0                       0                       0                       0             
LS 201865 000008562605/10/2018094508TVA4456600009002257103/10/201802/12/201804/10/201804857793TVA FACT ACH             D3         18524  02 2000         92619000000                   0                       0                       0                       0                       0             
LS 201865 000008562605/10/2018094508TVA4456600009002257103/10/201802/12/201804/10/201804857793TVA FACT ACH             D3          2061  03  550         37480000000                   0                       0                       0                       0                       0             
LS 201865 000008562605/10/2018094508TVA4456600009002257103/10/201802/12/201804/10/201804857793TVA FACT ACH             D3          1957  07 1000         19569000000                   0                       0                       0                       0                       0             
LS 201865 000008562605/10/2018094508FSR4011000009002257103/10/201802/12/201804/10/201804857794FACT ACH  930433849      C3         44807VI00    0             0000000               4480702/12/2018             0                       0                       0                       0             
