LS 201865 000008633617/10/2018094409FSR4011000009002257127/09/201826/11/201811/10/201804858712AVO ACH  930432917       D3          2794VI00    0             0000000                279426/11/2018             0                       0                       0                       0             
LS 201865 000008633617/10/2018094409GEN6075000009002257127/09/201826/11/201811/10/201804858712AVO ACH                  C3          2328  02 2000          2328000000116307             0                       0                       0                       0                       0             
LS 201865 000008633617/10/2018094409TVA4456600009002257127/09/201826/11/201811/10/201804858712TVA AVO ACH              C3           466  02 2000          2328000000                   0                       0                       0                       0                       0             
LS 201865 000008633617/10/2018094409FSR4011000009002257128/09/201827/11/201815/10/201804858713AVO ACH  930433215       D3          4408VI00    0             0000000                440827/11/2018             0                       0                       0                       0             
LS 201865 000008633617/10/2018094409GEN6075000009002257128/09/201827/11/201815/10/201804858713AVO ACH                  C3          3673  02 2000          3673000000220307             0                       0                       0                       0                       0             
LS 201865 000008633617/10/2018094409TVA4456600009002257128/09/201827/11/201815/10/201804858713TVA AVO ACH              C3           735  02 2000          3673000000                   0                       0                       0                       0                       0             
LS 201865 000008633617/10/2018094409FSR4011000009002126003/10/201830/10/201816/10/201804858063FACT ACH  7357-SOUEF     C3          6393VI00    0             0000000                639330/10/2018             0                       0                       0                       0             
LS 201865 000008633617/10/2018094409GEN6075000009002126003/10/201830/10/201816/10/201804858063FACT ACH                 D3          6060  03  550          6060000000116308             0                       0                       0                       0                       0             
LS 201865 000008633617/10/2018094409TVA4456600009002126003/10/201830/10/201816/10/201804858063TVA FACT ACH             D3           333  03  550          6060000000                   0                       0                       0                       0                       0             
LS 201865 000008633617/10/2018094409FSR4011000009002157101/10/201830/10/201816/10/201804858149FACT ACH  4579440-BIANCHIC3         67324VI00    0             0000000               6732430/10/2018             0                       0                       0                       0             
LS 201865 000008633617/10/2018094409GEN6075000009002157101/10/201830/10/201816/10/201804858149FACT ACH                 D3         61204  07 1000         61204000000304309             0                       0                       0                       0                       0             
LS 201865 000008633617/10/2018094409TVA4456600009002157101/10/201830/10/201816/10/201804858149TVA FACT ACH             D3          6120  07 1000         61204000000                   0                       0                       0                       0                       0             
LS 201865 000008633617/10/2018094409FSR4011000009002157101/10/201830/10/201801/10/201804858169FACT ACH  4579395-BIANCHIC3         40436VI00    0             0000000               4043630/10/2018             0                       0                       0                       0             
LS 201865 000008633617/10/2018094409GEN6075000009002157101/10/201830/10/201801/10/201804858169FACT ACH                 D3         35440  07 1000         35440000000394309             0                       0                       0                       0                       0             
LS 201865 000008633617/10/2018094409GEN6075000009002157101/10/201830/10/201801/10/201804858169FACT ACH                 D3          1320  02 2000          1320000000394310             0                       0                       0                       0                       0             
LS 201865 000008633617/10/2018094409TVA4456600009002157101/10/201830/10/201801/10/201804858169TVA FACT ACH             D3          3676  07 1000         36760000000                   0                       0                       0                       0                       0             
LS 201865 000008633617/10/2018094409FSR4011000009002635502/10/201830/10/201816/10/201804858217FACT ACH  78104155-SIEUR C3          6883VI00    0             0000000                688330/10/2018             0                       0                       0                       0             
LS 201865 000008633617/10/2018094409GEN6075000009002635502/10/201830/10/201816/10/201804858217FACT ACH                 D3          5736  02 2000          5736000000116308             0                       0                       0                       0                       0             
LS 201865 000008633617/10/2018094409TVA4456600009002635502/10/201830/10/201816/10/201804858217TVA FACT ACH             D3          1147  02 2000          5736000000                   0                       0                       0                       0                       0             
LS 201865 000008633617/10/2018094409FSR4011000009060159901/10/201830/10/201816/10/201804858428FACT ACH  17336-GOURMANDIC3         37461VI00    0             0000000               3746130/10/2018             0                       0                       0                       0             
LS 201865 000008633617/10/2018094409GEN6075000009060159901/10/201830/10/201816/10/201804858428FACT ACH                 D3          2904  03  550          2904000000132308             0                       0                       0                       0                       0             
LS 201865 000008633617/10/2018094409GEN6075000009060159901/10/201830/10/201816/10/201804858428FACT ACH                 D3         30147  02 2000         30147000000132308             0                       0                       0                       0                       0             
LS 201865 000008633617/10/2018094409TVA4456600009060159901/10/201830/10/201816/10/201804858428TVA FACT ACH             D3          3575  02 2000         17877000000                   0                       0                       0                       0                       0             
LS 201865 000008633617/10/2018094409TVA4456600009060159901/10/201830/10/201816/10/201804858428TVA FACT ACH             D3           835  03  550         15174000000                   0                       0                       0                       0                       0             
LS 201865 000008633617/10/2018094409FSR4011000009002257112/10/201811/12/201816/10/201804858692FACT ACH  930435477      C3        196094VI00    0             0000000              19609411/12/2018             0                       0                       0                       0             
LS 201865 000008633617/10/2018094409GEN6075000009002257112/10/201811/12/201816/10/201804858692FACT ACH                 D3          3888  03  550          3888000000208308             0                       0                       0                       0                       0             
LS 201865 000008633617/10/2018094409GEN6075000009002257112/10/201811/12/201816/10/201804858692FACT ACH                 D3          7740  07 1000          7740000000208302             0                       0                       0                       0                       0             
LS 201865 000008633617/10/2018094409GEN6075000009002257112/10/201811/12/201816/10/201804858692FACT ACH                 D3         10011  07 1000         10011000000208307             0                       0                       0                       0                       0             
LS 201865 000008633617/10/2018094409GEN6075000009002257112/10/201811/12/201816/10/201804858692FACT ACH                 D3          7760  07 1000          7760000000208309             0                       0                       0                       0                       0             
LS 201865 000008633617/10/2018094409GEN6075000009002257112/10/201811/12/201816/10/201804858692FACT ACH                 D3          1452  02 2000          1452000000208301             0                       0                       0                       0                       0             
LS 201865 000008633617/10/2018094409GEN6075000009002257112/10/201811/12/201816/10/201804858692FACT ACH                 D3         40056  02 2000         40056000000208302             0                       0                       0                       0                       0             
LS 201865 000008633617/10/2018094409GEN6075000009002257112/10/201811/12/201816/10/201804858692FACT ACH                 D3         19102  02 2000         19102000000208303             0                       0                       0                       0                       0             
LS 201865 000008633617/10/2018094409GEN6075000009002257112/10/201811/12/201816/10/201804858692FACT ACH                 D3          5905  02 2000          5905000000208304             0                       0                       0                       0                       0             
LS 201865 000008633617/10/2018094409GEN6075000009002257112/10/201811/12/201816/10/201804858692FACT ACH                 D3         37088  02 2000         37088000000208305             0                       0                       0                       0                       0             
LS 201865 000008633617/10/2018094409GEN6075000009002257112/10/201811/12/201816/10/201804858692FACT ACH                 D3          7402  02 2000          7402000000208306             0                       0                       0                       0                       0             
LS 201865 000008633617/10/2018094409GEN6075000009002257112/10/201811/12/201816/10/201804858692FACT ACH                 D3         25603  02 2000         25603000000208307             0                       0                       0                       0                       0             
LS 201865 000008633617/10/2018094409TVA4456600009002257112/10/201811/12/201816/10/201804858692TVA FACT ACH             D3         27322  02 2000        136608000000                   0                       0                       0                       0                       0             
LS 201865 000008633617/10/2018094409TVA4456600009002257112/10/201811/12/201816/10/201804858692TVA FACT ACH             D3           214  03  550          3888000000                   0                       0                       0                       0                       0             
LS 201865 000008633617/10/2018094409TVA4456600009002257112/10/201811/12/201816/10/201804858692TVA FACT ACH             D3          2551  07 1000         25511000000                   0                       0                       0                       0                       0             
LS 201865 000008633617/10/2018094409FSR4011000009002257112/10/201811/12/201816/10/201804858693FACT ACH  930435478      C3        564550VI00    0             0000000              56455011/12/2018             0                       0                       0                       0             
LS 201865 000008633617/10/2018094409GEN6075000009002257112/10/201811/12/201816/10/201804858693FACT ACH                 D3         80472  03  550         80472000000265308             0                       0                       0                       0                       0             
LS 201865 000008633617/10/2018094409GEN6075000009002257112/10/201811/12/201816/10/201804858693FACT ACH                 D3         13102  07 1000         13102000000265302             0                       0                       0                       0                       0             
LS 201865 000008633617/10/2018094409GEN6075000009002257112/10/201811/12/201816/10/201804858693FACT ACH                 D3         42703  07 1000         42703000000265307             0                       0                       0                       0                       0             
LS 201865 000008633617/10/2018094409GEN6075000009002257112/10/201811/12/201816/10/201804858693FACT ACH                 D3           716  07 1000           716000000265309             0                       0                       0                       0                       0             
LS 201865 000008633617/10/2018094409GEN6075000009002257112/10/201811/12/201816/10/201804858693FACT ACH                 D3        104256  02 2000        104256000000265302             0                       0                       0                       0                       0             
LS 201865 000008633617/10/2018094409GEN6075000009002257112/10/201811/12/201816/10/201804858693FACT ACH                 D3         15510  02 2000         15510000000265303             0                       0                       0                       0                       0             
LS 201865 000008633617/10/2018094409GEN6075000009002257112/10/201811/12/201816/10/201804858693FACT ACH                 D3         90725  02 2000         90725000000265304             0                       0                       0                       0                       0             
LS 201865 000008633617/10/2018094409GEN6075000009002257112/10/201811/12/201816/10/201804858693FACT ACH                 D3         74642  02 2000         74642000000265305             0                       0                       0                       0                       0             
LS 201865 000008633617/10/2018094409GEN6075000009002257112/10/201811/12/201816/10/201804858693FACT ACH                 D3         18106  02 2000         18106000000265306             0                       0                       0                       0                       0             
LS 201865 000008633617/10/2018094409GEN6075000009002257112/10/201811/12/201816/10/201804858693FACT ACH                 D3         43250  02 2000         43250000000265307             0                       0                       0                       0                       0             
LS 201865 000008633617/10/2018094409GEN6075000009002257112/10/201811/12/201816/10/201804858693FACT ACH                 D3          1410  02 2000          1410000000265308             0                       0                       0                       0                       0             
LS 201865 000008633617/10/2018094409TVA4456600009002257112/10/201811/12/201816/10/201804858693TVA FACT ACH             D3         69580  02 2000        347899000000                   0                       0                       0                       0                       0             
LS 201865 000008633617/10/2018094409TVA4456600009002257112/10/201811/12/201816/10/201804858693TVA FACT ACH             D3          4426  03  550         80472000000                   0                       0                       0                       0                       0             
LS 201865 000008633617/10/2018094409TVA4456600009002257112/10/201811/12/201816/10/201804858693TVA FACT ACH             D3          5652  07 1000         56521000000                   0                       0                       0                       0                       0             
LS 201865 000008633617/10/2018094409FSR4011000009002257112/10/201811/12/201816/10/201804858694FACT ACH  930435479      C3          9590VI00    0             0000000                959011/12/2018             0                       0                       0                       0             
LS 201865 000008633617/10/2018094409GEN6075000009002257112/10/201811/12/201816/10/201804858694FACT ACH                 D3          9090  03  550          9090000000265308             0                       0                       0                       0                       0             
LS 201865 000008633617/10/2018094409TVA4456600009002257112/10/201811/12/201816/10/201804858694TVA FACT ACH             D3           500  03  550          9090000000                   0                       0                       0                       0                       0             
LS 201865 000008633617/10/2018094409FSR4011000009002257112/10/201811/12/201816/10/201804858695FACT ACH  930435480      C3         13848VI00    0             0000000               1384811/12/2018             0                       0                       0                       0             
LS 201865 000008633617/10/2018094409GEN6075000009002257112/10/201811/12/201816/10/201804858695FACT ACH                 D3          2220  02 2000          2220000000265306             0                       0                       0                       0                       0             
LS 201865 000008633617/10/2018094409GEN6075000009002257112/10/201811/12/201816/10/201804858695FACT ACH                 D3          9320  02 2000          9320000000265307             0                       0                       0                       0                       0             
LS 201865 000008633617/10/2018094409TVA4456600009002257112/10/201811/12/201816/10/201804858695TVA FACT ACH             D3          2308  02 2000         11540000000                   0                       0                       0                       0                       0             
LS 201865 000008633617/10/2018094409FSR4011000009002257112/10/201811/12/201816/10/201804858696FACT ACH  930435485      C3         13131VI00    0             0000000               1313111/12/2018             0                       0                       0                       0             
LS 201865 000008633617/10/2018094409GEN6075000009002257112/10/201811/12/201816/10/201804858696FACT ACH                 D3          4890  07 1000          4890000000243307             0                       0                       0                       0                       0             
LS 201865 000008633617/10/2018094409GEN6075000009002257112/10/201811/12/201816/10/201804858696FACT ACH                 D3          2220  02 2000          2220000000243306             0                       0                       0                       0                       0             
LS 201865 000008633617/10/2018094409GEN6075000009002257112/10/201811/12/201816/10/201804858696FACT ACH                 D3          4240  02 2000          4240000000243307             0                       0                       0                       0                       0             
LS 201865 000008633617/10/2018094409TVA4456600009002257112/10/201811/12/201816/10/201804858696TVA FACT ACH             D3          1292  02 2000          6460000000                   0                       0                       0                       0                       0             
LS 201865 000008633617/10/2018094409TVA4456600009002257112/10/201811/12/201816/10/201804858696TVA FACT ACH             D3           489  07 1000          4890000000                   0                       0                       0                       0                       0             
LS 201865 000008633617/10/2018094409FSR4011000009002257112/10/201811/12/201816/10/201804858697FACT ACH  930435486      C3          1583VI00    0             0000000                158311/12/2018             0                       0                       0                       0             
LS 201865 000008633617/10/2018094409GEN6075000009002257112/10/201811/12/201816/10/201804858697FACT ACH                 D3          1500  03  550          1500000000243308             0                       0                       0                       0                       0             
LS 201865 000008633617/10/2018094409TVA4456600009002257112/10/201811/12/201816/10/201804858697TVA FACT ACH             D3            83  03  550          1500000000                   0                       0                       0                       0                       0             
LS 201865 000008633617/10/2018094409FSR4011000009002257112/10/201811/12/201816/10/201804858698FACT ACH  930435489      C3          1583VI00    0             0000000                158311/12/2018             0                       0                       0                       0             
LS 201865 000008633617/10/2018094409GEN6075000009002257112/10/201811/12/201816/10/201804858698FACT ACH                 D3          1500  03  550          1500000000208308             0                       0                       0                       0                       0             
LS 201865 000008633617/10/2018094409TVA4456600009002257112/10/201811/12/201816/10/201804858698TVA FACT ACH             D3            83  03  550          1500000000                   0                       0                       0                       0                       0             
LS 201865 000008633617/10/2018094409FSR4011000009002257112/10/201811/12/201816/10/201804858699FACT ACH  930435490      C3          8256VI00    0             0000000                825611/12/2018             0                       0                       0                       0             
LS 201865 000008633617/10/2018094409GEN6075000009002257112/10/201811/12/201816/10/201804858699FACT ACH                 D3          2220  02 2000          2220000000208306             0                       0                       0                       0                       0             
LS 201865 000008633617/10/2018094409GEN6075000009002257112/10/201811/12/201816/10/201804858699FACT ACH                 D3          4660  02 2000          4660000000208307             0                       0                       0                       0                       0             
LS 201865 000008633617/10/2018094409TVA4456600009002257112/10/201811/12/201816/10/201804858699TVA FACT ACH             D3          1376  02 2000          6880000000                   0                       0                       0                       0                       0             
LS 201865 000008633617/10/2018094409FSR4011000009002257112/10/201811/12/201816/10/201804858700FACT ACH  930435492      C3        138512VI00    0             0000000              13851211/12/2018             0                       0                       0                       0             
LS 201865 000008633617/10/2018094409GEN6075000009002257112/10/201811/12/201816/10/201804858700FACT ACH                 D3         31896  07 1000         31896000000265302             0                       0                       0                       0                       0             
LS 201865 000008633617/10/2018094409GEN6075000009002257112/10/201811/12/201816/10/201804858700FACT ACH                 D3         86188  02 2000         86188000000265302             0                       0                       0                       0                       0             
LS 201865 000008633617/10/2018094409TVA4456600009002257112/10/201811/12/201816/10/201804858700TVA FACT ACH             D3         17238  02 2000         86188000000                   0                       0                       0                       0                       0             
LS 201865 000008633617/10/2018094409TVA4456600009002257112/10/201811/12/201816/10/201804858700TVA FACT ACH             D3          3190  07 1000         31896000000                   0                       0                       0                       0                       0             
LS 201865 000008633617/10/2018094409FSR4011000009002257112/10/201811/12/201816/10/201804858701FACT ACH  930435497      C3        102048VI00    0             0000000              10204811/12/2018             0                       0                       0                       0             
LS 201865 000008633617/10/2018094409GEN6075000009002257112/10/201811/12/201816/10/201804858701FACT ACH                 D3         85040  02 2000         85040000000208304             0                       0                       0                       0                       0             
LS 201865 000008633617/10/2018094409TVA4456600009002257112/10/201811/12/201816/10/201804858701TVA FACT ACH             D3         17008  02 2000         85040000000                   0                       0                       0                       0                       0             
LS 201865 000008633617/10/2018094409FSR4011000009002257112/10/201811/12/201816/10/201804858702FACT ACH  930435498      C3         35107VI00    0             0000000               3510711/12/2018             0                       0                       0                       0             
LS 201865 000008633617/10/2018094409GEN6075000009002257112/10/201811/12/201816/10/201804858702FACT ACH                 D3         23500  02 2000         23500000000208302             0                       0                       0                       0                       0             
LS 201865 000008633617/10/2018094409GEN6075000009002257112/10/201811/12/201816/10/201804858702FACT ACH                 D3          5756  02 2000          5756000000208303             0                       0                       0                       0                       0             
LS 201865 000008633617/10/2018094409TVA4456600009002257112/10/201811/12/201816/10/201804858702TVA FACT ACH             D3          5851  02 2000         29256000000                   0                       0                       0                       0                       0             
LS 201865 000008633617/10/2018094409FSR4011000009002257112/10/201811/12/201816/10/201804858703FACT ACH  930435499      C3        140751VI00    0             0000000              14075111/12/2018             0                       0                       0                       0             
LS 201865 000008633617/10/2018094409GEN6075000009002257112/10/201811/12/201816/10/201804858703FACT ACH                 D3          9984  03  550          9984000000208308             0                       0                       0                       0                       0             
LS 201865 000008633617/10/2018094409GEN6075000009002257112/10/201811/12/201816/10/201804858703FACT ACH                 D3           836  07 1000           836000000208302             0                       0                       0                       0                       0             
LS 201865 000008633617/10/2018094409GEN6075000009002257112/10/201811/12/201816/10/201804858703FACT ACH                 D3         30762  02 2000         30762000000208302             0                       0                       0                       0                       0             
LS 201865 000008633617/10/2018094409GEN6075000009002257112/10/201811/12/201816/10/201804858703FACT ACH                 D3         20544  02 2000         20544000000208306             0                       0                       0                       0                       0             
LS 201865 000008633617/10/2018094409GEN6075000009002257112/10/201811/12/201816/10/201804858703FACT ACH                 D3         51018  02 2000         51018000000208307             0                       0                       0                       0                       0             
LS 201865 000008633617/10/2018094409GEN6075000009002257112/10/201811/12/201816/10/201804858703FACT ACH                 D3          5424  02 2000          5424000000208308             0                       0                       0                       0                       0             
LS 201865 000008633617/10/2018094409TVA4456600009002257112/10/201811/12/201816/10/201804858703TVA FACT ACH             D3         21550  02 2000        107748000000                   0                       0                       0                       0                       0             
LS 201865 000008633617/10/2018094409TVA4456600009002257112/10/201811/12/201816/10/201804858703TVA FACT ACH             D3           549  03  550          9984000000                   0                       0                       0                       0                       0             
LS 201865 000008633617/10/2018094409TVA4456600009002257112/10/201811/12/201816/10/201804858703TVA FACT ACH             D3            84  07 1000           836000000                   0                       0                       0                       0                       0             
LS 201865 000008633617/10/2018094409FSR4011000009002257112/10/201811/12/201816/10/201804858704FACT ACH  930435506      C3        107027VI00    0             0000000              10702711/12/2018             0                       0                       0                       0             
LS 201865 000008633617/10/2018094409GEN6075000009002257112/10/201811/12/201816/10/201804858704FACT ACH                 D3         89189  02 2000         89189000000265304             0                       0                       0                       0                       0             
LS 201865 000008633617/10/2018094409TVA4456600009002257112/10/201811/12/201816/10/201804858704TVA FACT ACH             D3         17838  02 2000         89189000000                   0                       0                       0                       0                       0             
LS 201865 000008633617/10/2018094410FSR4011000009002257112/10/201811/12/201816/10/201804858705FACT ACH  930435507      C3        108701VI00    0             0000000              10870111/12/2018             0                       0                       0                       0             
LS 201865 000008633617/10/2018094410GEN6075000009002257112/10/201811/12/201816/10/201804858705FACT ACH                 D3         79072  02 2000         79072000000265302             0                       0                       0                       0                       0             
LS 201865 000008633617/10/2018094410GEN6075000009002257112/10/201811/12/201816/10/201804858705FACT ACH                 D3         11512  02 2000         11512000000265303             0                       0                       0                       0                       0             
LS 201865 000008633617/10/2018094410TVA4456600009002257112/10/201811/12/201816/10/201804858705TVA FACT ACH             D3         18117  02 2000         90584000000                   0                       0                       0                       0                       0             
LS 201865 000008633617/10/2018094410FSR4011000009002257112/10/201811/12/201816/10/201804858706FACT ACH  930435508      C3        168264VI00    0             0000000              16826411/12/2018             0                       0                       0                       0             
LS 201865 000008633617/10/2018094410GEN6075000009002257112/10/201811/12/201816/10/201804858706FACT ACH                 D3          1662  03  550          1662000000265308             0                       0                       0                       0                       0             
LS 201865 000008633617/10/2018094410GEN6075000009002257112/10/201811/12/201816/10/201804858706FACT ACH                 D3          3344  07 1000          3344000000265302             0                       0                       0                       0                       0             
LS 201865 000008633617/10/2018094410GEN6075000009002257112/10/201811/12/201816/10/201804858706FACT ACH                 D3         40738  02 2000         40738000000265302             0                       0                       0                       0                       0             
LS 201865 000008633617/10/2018094410GEN6075000009002257112/10/201811/12/201816/10/201804858706FACT ACH                 D3         23400  02 2000         23400000000265306             0                       0                       0                       0                       0             
LS 201865 000008633617/10/2018094410GEN6075000009002257112/10/201811/12/201816/10/201804858706FACT ACH                 D3         63420  02 2000         63420000000265307             0                       0                       0                       0                       0             
LS 201865 000008633617/10/2018094410GEN6075000009002257112/10/201811/12/201816/10/201804858706FACT ACH                 D3          8136  02 2000          8136000000265308             0                       0                       0                       0                       0             
LS 201865 000008633617/10/2018094410TVA4456600009002257112/10/201811/12/201816/10/201804858706TVA FACT ACH             D3         27139  02 2000        135694000000                   0                       0                       0                       0                       0             
LS 201865 000008633617/10/2018094410TVA4456600009002257112/10/201811/12/201816/10/201804858706TVA FACT ACH             D3            91  03  550          1662000000                   0                       0                       0                       0                       0             
LS 201865 000008633617/10/2018094410TVA4456600009002257112/10/201811/12/201816/10/201804858706TVA FACT ACH             D3           334  07 1000          3344000000                   0                       0                       0                       0                       0             
LS 201865 000008633617/10/2018094410FSR4011000009002257112/10/201811/12/201816/10/201804858707FACT ACH  930435515      C3          1793VI00    0             0000000                179311/12/2018             0                       0                       0                       0             
LS 201865 000008633617/10/2018094410GEN6075000009002257112/10/201811/12/201816/10/201804858707FACT ACH                 D3          1494  02 2000          1494000000208307             0                       0                       0                       0                       0             
LS 201865 000008633617/10/2018094410TVA4456600009002257112/10/201811/12/201816/10/201804858707TVA FACT ACH             D3           299  02 2000          1494000000                   0                       0                       0                       0                       0             
LS 201865 000008633617/10/2018094410FSR4011000009002257112/10/201811/12/201816/10/201804858708FACT ACH  930435516      C3          3586VI00    0             0000000                358611/12/2018             0                       0                       0                       0             
LS 201865 000008633617/10/2018094410GEN6075000009002257112/10/201811/12/201816/10/201804858708FACT ACH                 D3          2988  02 2000          2988000000265307             0                       0                       0                       0                       0             
LS 201865 000008633617/10/2018094410TVA4456600009002257112/10/201811/12/201816/10/201804858708TVA FACT ACH             D3           598  02 2000          2988000000                   0                       0                       0                       0                       0             
LS 201865 000008633617/10/2018094410FSR4011000009002257112/10/201811/12/201816/10/201804858709FACT ACH  930435519      C3         17512VI00    0             0000000               1751211/12/2018             0                       0                       0                       0             
LS 201865 000008633617/10/2018094410GEN6075000009002257112/10/201811/12/201816/10/201804858709FACT ACH                 D3          6525  02 2000          6525000000243306             0                       0                       0                       0                       0             
LS 201865 000008633617/10/2018094410GEN6075000009002257112/10/201811/12/201816/10/201804858709FACT ACH                 D3          8068  02 2000          8068000000243307             0                       0                       0                       0                       0             
LS 201865 000008633617/10/2018094410TVA4456600009002257112/10/201811/12/201816/10/201804858709TVA FACT ACH             D3          2919  02 2000         14593000000                   0                       0                       0                       0                       0             
LS 201865 000008633617/10/2018094410FSR4011000009002257115/10/201814/12/201816/10/201804858710FACT ACH  930435705      C3         52112VI00    0             0000000               5211214/12/2018             0                       0                       0                       0             
LS 201865 000008633617/10/2018094410GEN6075000009002257115/10/201814/12/201816/10/201804858710FACT ACH                 D3         49395  03  550         49395000000100308             0                       0                       0                       0                       0             
LS 201865 000008633617/10/2018094410TVA4456600009002257115/10/201814/12/201816/10/201804858710TVA FACT ACH             D3          2717  03  550         49395000000                   0                       0                       0                       0                       0             
LS 201865 000008633617/10/2018094410FSR4011000009051440401/10/201830/10/201816/10/201804858711AVO ACH  0533175-DELFOUR D3          3197VI00    0             0000000                319730/10/2018             0                       0                       0                       0             
LS 201865 000008633617/10/2018094410GEN6075000009051440401/10/201830/10/201816/10/201804858711AVO ACH                  C3          3030  03  550          3030000000304308             0                       0                       0                       0                       0             
LS 201865 000008633617/10/2018094410TVA4456600009051440401/10/201830/10/201816/10/201804858711TVA AVO ACH              C3           167  03  550          3030000000                   0                       0                       0                       0                       0             
LS 201865 000008633617/10/2018094410FSR4011000009002157101/10/201815/11/201801/10/201804858714FACT ACH  4596189-PETS FOC3          8705VI00    0             0000000                870515/11/2018             0                       0                       0                       0             
LS 201865 000008633617/10/2018094410GEN6075000009002157101/10/201815/11/201801/10/201804858714FACT ACH                 D3          7254  02 2000          7254000000235306             0                       0                       0                       0                       0             
LS 201865 000008633617/10/2018094410TVA4456600009002157101/10/201815/11/201801/10/201804858714TVA FACT ACH             D3          1451  02 2000          7254000000                   0                       0                       0                       0                       0             
LS 201865 000008633617/10/2018094410FSR4011000009002157101/10/201815/11/201801/10/201804858715FACT ACH  4594998-SELLIERC3         13610VI00    0             0000000               1361015/11/2018             0                       0                       0                       0             
LS 201865 000008633617/10/2018094410GEN6075000009002157101/10/201815/11/201801/10/201804858715FACT ACH                 D3         11342  02 2000         11342000000116306             0                       0                       0                       0                       0             
LS 201865 000008633617/10/2018094410TVA4456600009002157101/10/201815/11/201801/10/201804858715TVA FACT ACH             D3          2268  02 2000         11342000000                   0                       0                       0                       0                       0             
LS 201865 000008633617/10/2018094410FSR4011000009002157101/10/201813/11/201801/10/201804858716FACT ACH  4593552-RC     C3        102274VI00    0             0000000              10227413/11/2018             0                       0                       0                       0             
LS 201865 000008633617/10/2018094410GEN6075000009002157101/10/201813/11/201801/10/201804858716FACT ACH                 D3         85228  02 2000         85228000000234307             0                       0                       0                       0                       0             
LS 201865 000008633617/10/2018094410TVA4456600009002157101/10/201813/11/201801/10/201804858716TVA FACT ACH             D3         17046  02 2000         85228000000                   0                       0                       0                       0                       0             
LS 201865 000008633617/10/2018094410FSR4011000009002157101/10/201815/11/201801/10/201804858717FACT ACH  4592950-ZOLUX  C3         20210VI00    0             0000000               2021015/11/2018             0                       0                       0                       0             
LS 201865 000008633617/10/2018094410GEN6075000009002157101/10/201815/11/201801/10/201804858717FACT ACH                 D3          1128  02 2000          1128000000141306             0                       0                       0                       0                       0             
LS 201865 000008633617/10/2018094410GEN6075000009002157101/10/201815/11/201801/10/201804858717FACT ACH                 D3         15714  02 2000         15714000000141307             0                       0                       0                       0                       0             
LS 201865 000008633617/10/2018094410TVA4456600009002157101/10/201815/11/201801/10/201804858717TVA FACT ACH             D3          3368  02 2000         16842000000                   0                       0                       0                       0                       0             
