LS 201865 000008547102/10/2018190702FSR4011000009002257101/10/201804/11/201801/10/201804857519FACT ACH  930427933      C3        157027VI00    0             0000000              15702704/11/2018             0                       0                       0                       0             
LS 201865 000008547102/10/2018190702GEN6075000009002257101/10/201804/11/201801/10/201804857519FACT ACH                 D3        130856  02 2000        130856000000304302             0                       0                       0                       0                       0             
LS 201865 000008547102/10/2018190702TVA4456600009002257101/10/201804/11/201801/10/201804857519TVA FACT ACH             D3         26171  02 2000        130856000000                   0                       0                       0                       0                       0             
LS 201865 000008547102/10/2018190703FSR4011000009060043901/10/201830/11/201801/10/201804855482FACT ACH  71004242778-STIC3        650559VI00    0             0000000              65055930/11/2018             0                       0                       0                       0             
LS 201865 000008547102/10/2018190703GEN6075000009060043901/10/201830/11/201801/10/201804855482FACT ACH                 D3        541839  02 2000        541839000000243302             0                       0                       0                       0                       0             
LS 201865 000008547102/10/2018190703GEN6075000009060043901/10/201830/11/201801/10/201804855482FACT ACH                 D3           294  02 2000           294000000243310             0                       0                       0                       0                       0             
LS 201865 000008547102/10/2018190703TVA4456600009060043901/10/201830/11/201801/10/201804855482TVA FACT ACH             D3        108426  02 2000        542133000000                   0                       0                       0                       0                       0             
LS 201865 000008547102/10/2018190703FSR4011000009002611901/10/201830/09/201801/10/201804855584FACT ACH  3322047989-BUTAC3        180574VI00    0             0000000              18057430/09/2018             0                       0                       0                       0             
LS 201865 000008547102/10/2018190703GEN6075000009002611901/10/201830/09/201801/10/201804855584FACT ACH                 D3        150478  02 2000        150478000000235305             0                       0                       0                       0                       0             
LS 201865 000008547102/10/2018190703TVA4456600009002611901/10/201830/09/201801/10/201804855584TVA FACT ACH             D3         30096  02 2000        150478000000                   0                       0                       0                       0                       0             
LS 201865 000008547102/10/2018190703FSR4011000009002257101/10/201809/11/201801/10/201804857520FACT ACH  930428609      C3         54063VI00    0             0000000               5406309/11/2018             0                       0                       0                       0             
LS 201865 000008547102/10/2018190703GEN6075000009002257101/10/201809/11/201801/10/201804857520FACT ACH                 D3         51245  03  550         51245000000146308             0                       0                       0                       0                       0             
LS 201865 000008547102/10/2018190703TVA4456600009002257101/10/201809/11/201801/10/201804857520TVA FACT ACH             D3          2818  03  550         51245000000                   0                       0                       0                       0                       0             
LS 201865 000008547102/10/2018190703FSR4011000009002257101/10/201809/11/201801/10/201804857521FACT ACH  930428620      C3        128472VI00    0             0000000              12847209/11/2018             0                       0                       0                       0             
LS 201865 000008547102/10/2018190703GEN6075000009002257101/10/201809/11/201801/10/201804857521FACT ACH                 D3          2196  03  550          2196000000168308             0                       0                       0                       0                       0             
LS 201865 000008547102/10/2018190703GEN6075000009002257101/10/201809/11/201801/10/201804857521FACT ACH                 D3          4248  07 1000          4248000000168302             0                       0                       0                       0                       0             
LS 201865 000008547102/10/2018190703GEN6075000009002257101/10/201809/11/201801/10/201804857521FACT ACH                 D3         14101  07 1000         14101000000168307             0                       0                       0                       0                       0             
LS 201865 000008547102/10/2018190703GEN6075000009002257101/10/201809/11/201801/10/201804857521FACT ACH                 D3          1487  07 1000          1487000000168309             0                       0                       0                       0                       0             
LS 201865 000008547102/10/2018190703GEN6075000009002257101/10/201809/11/201801/10/201804857521FACT ACH                 D3           752  02 2000           752000000168301             0                       0                       0                       0                       0             
LS 201865 000008547102/10/2018190703GEN6075000009002257101/10/201809/11/201801/10/201804857521FACT ACH                 D3         24266  02 2000         24266000000168302             0                       0                       0                       0                       0             
LS 201865 000008547102/10/2018190703GEN6075000009002257101/10/201809/11/201801/10/201804857521FACT ACH                 D3          1906  02 2000          1906000000168303             0                       0                       0                       0                       0             
LS 201865 000008547102/10/2018190703GEN6075000009002257101/10/201809/11/201801/10/201804857521FACT ACH                 D3         31101  02 2000         31101000000168304             0                       0                       0                       0                       0             
LS 201865 000008547102/10/2018190703GEN6075000009002257101/10/201809/11/201801/10/201804857521FACT ACH                 D3          4982  02 2000          4982000000168305             0                       0                       0                       0                       0             
LS 201865 000008547102/10/2018190703GEN6075000009002257101/10/201809/11/201801/10/201804857521FACT ACH                 D3          4448  02 2000          4448000000168306             0                       0                       0                       0                       0             
LS 201865 000008547102/10/2018190703GEN6075000009002257101/10/201809/11/201801/10/201804857521FACT ACH                 D3         19491  02 2000         19491000000168307             0                       0                       0                       0                       0             
LS 201865 000008547102/10/2018190703TVA4456600009002257101/10/201809/11/201801/10/201804857521TVA FACT ACH             D3         17389  02 2000         86946000000                   0                       0                       0                       0                       0             
LS 201865 000008547102/10/2018190703TVA4456600009002257101/10/201809/11/201801/10/201804857521TVA FACT ACH             D3           121  03  550          2196000000                   0                       0                       0                       0                       0             
LS 201865 000008547102/10/2018190703TVA4456600009002257101/10/201809/11/201801/10/201804857521TVA FACT ACH             D3          1984  07 1000         19836000000                   0                       0                       0                       0                       0             
LS 201865 000008547102/10/2018190703FSR4011000009002257101/10/201816/11/201801/10/201804857522FACT ACH  930430221      C3        159248VI00    0             0000000              15924816/11/2018             0                       0                       0                       0             
LS 201865 000008547102/10/2018190703GEN6075000009002257101/10/201816/11/201801/10/201804857522FACT ACH                 D3          1812  03  550          1812000000168308             0                       0                       0                       0                       0             
LS 201865 000008547102/10/2018190703GEN6075000009002257101/10/201816/11/201801/10/201804857522FACT ACH                 D3          3436  07 1000          3436000000168302             0                       0                       0                       0                       0             
LS 201865 000008547102/10/2018190703GEN6075000009002257101/10/201816/11/201801/10/201804857522FACT ACH                 D3         19830  07 1000         19830000000168307             0                       0                       0                       0                       0             
LS 201865 000008547102/10/2018190703GEN6075000009002257101/10/201816/11/201801/10/201804857522FACT ACH                 D3          7199  07 1000          7199000000168309             0                       0                       0                       0                       0             
LS 201865 000008547102/10/2018190703GEN6075000009002257101/10/201816/11/201801/10/201804857522FACT ACH                 D3           154  02 2000           154000000168301             0                       0                       0                       0                       0             
LS 201865 000008547102/10/2018190703GEN6075000009002257101/10/201816/11/201801/10/201804857522FACT ACH                 D3          5875  02 2000          5875000000168302             0                       0                       0                       0                       0             
LS 201865 000008547102/10/2018190703GEN6075000009002257101/10/201816/11/201801/10/201804857522FACT ACH                 D3           978  02 2000           978000000168303             0                       0                       0                       0                       0             
LS 201865 000008547102/10/2018190703GEN6075000009002257101/10/201816/11/201801/10/201804857522FACT ACH                 D3          2576  02 2000          2576000000168304             0                       0                       0                       0                       0             
LS 201865 000008547102/10/2018190703GEN6075000009002257101/10/201816/11/201801/10/201804857522FACT ACH                 D3          5094  02 2000          5094000000168305             0                       0                       0                       0                       0             
LS 201865 000008547102/10/2018190703GEN6075000009002257101/10/201816/11/201801/10/201804857522FACT ACH                 D3         42216  02 2000         42216000000168306             0                       0                       0                       0                       0             
LS 201865 000008547102/10/2018190703GEN6075000009002257101/10/201816/11/201801/10/201804857522FACT ACH                 D3         46294  02 2000         46294000000168307             0                       0                       0                       0                       0             
LS 201865 000008547102/10/2018190703TVA4456600009002257101/10/201816/11/201801/10/201804857522TVA FACT ACH             D3         20637  02 2000        103187000000                   0                       0                       0                       0                       0             
LS 201865 000008547102/10/2018190703TVA4456600009002257101/10/201816/11/201801/10/201804857522TVA FACT ACH             D3           100  03  550          1812000000                   0                       0                       0                       0                       0             
LS 201865 000008547102/10/2018190703TVA4456600009002257101/10/201816/11/201801/10/201804857522TVA FACT ACH             D3          3047  07 1000         30465000000                   0                       0                       0                       0                       0             
LS 201865 000008547102/10/2018190703FSR4011000009002257101/10/201816/11/201801/10/201804857523FACT ACH  930430224      C3           730VI00    0             0000000                 73016/11/2018             0                       0                       0                       0             
LS 201865 000008547102/10/2018190703GEN6075000009002257101/10/201816/11/201801/10/201804857523FACT ACH                 D3           664  07 1000           664000000220307             0                       0                       0                       0                       0             
LS 201865 000008547102/10/2018190703TVA4456600009002257101/10/201816/11/201801/10/201804857523TVA FACT ACH             D3            66  07 1000           664000000                   0                       0                       0                       0                       0             
LS 201865 000008547102/10/2018190703FSR4011000009002257101/10/201818/11/201801/10/201804857524FACT ACH  930430783      C3        247585VI00    0             0000000              24758518/11/2018             0                       0                       0                       0             
LS 201865 000008547102/10/2018190703GEN6075000009002257101/10/201818/11/201801/10/201804857524FACT ACH                 D3        234678  03  550        234678000000304308             0                       0                       0                       0                       0             
LS 201865 000008547102/10/2018190703TVA4456600009002257101/10/201818/11/201801/10/201804857524TVA FACT ACH             D3         12907  03  550        234678000000                   0                       0                       0                       0                       0             
LS 201865 000008547102/10/2018190703FSR4011000009002257101/10/201818/11/201801/10/201804857525FACT ACH  930430786      C3        103366VI00    0             0000000              10336618/11/2018             0                       0                       0                       0             
LS 201865 000008547102/10/2018190703GEN6075000009002257101/10/201818/11/201801/10/201804857525FACT ACH                 D3         97977  03  550         97977000000146308             0                       0                       0                       0                       0             
LS 201865 000008547102/10/2018190703TVA4456600009002257101/10/201818/11/201801/10/201804857525TVA FACT ACH             D3          5389  03  550         97977000000                   0                       0                       0                       0                       0             
LS 201865 000008547102/10/2018190703FSR4011000009002257101/10/201818/11/201801/10/201804857526FACT ACH  930430805      C3        111124VI00    0             0000000              11112418/11/2018             0                       0                       0                       0             
LS 201865 000008547102/10/2018190703GEN6075000009002257101/10/201818/11/201801/10/201804857526FACT ACH                 D3          8412  07 1000          8412000000448302             0                       0                       0                       0                       0             
LS 201865 000008547102/10/2018190703GEN6075000009002257101/10/201818/11/201801/10/201804857526FACT ACH                 D3         14038  07 1000         14038000000448307             0                       0                       0                       0                       0             
LS 201865 000008547102/10/2018190703GEN6075000009002257101/10/201818/11/201801/10/201804857526FACT ACH                 D3          1984  07 1000          1984000000448309             0                       0                       0                       0                       0             
LS 201865 000008547102/10/2018190703GEN6075000009002257101/10/201818/11/201801/10/201804857526FACT ACH                 D3          1627  02 2000          1627000000448301             0                       0                       0                       0                       0             
LS 201865 000008547102/10/2018190703GEN6075000009002257101/10/201818/11/201801/10/201804857526FACT ACH                 D3         18960  02 2000         18960000000448302             0                       0                       0                       0                       0             
LS 201865 000008547102/10/2018190703GEN6075000009002257101/10/201818/11/201801/10/201804857526FACT ACH                 D3          2462  02 2000          2462000000448303             0                       0                       0                       0                       0             
LS 201865 000008547102/10/2018190703GEN6075000009002257101/10/201818/11/201801/10/201804857526FACT ACH                 D3         14626  02 2000         14626000000448304             0                       0                       0                       0                       0             
LS 201865 000008547102/10/2018190703GEN6075000009002257101/10/201818/11/201801/10/201804857526FACT ACH                 D3          9093  02 2000          9093000000448305             0                       0                       0                       0                       0             
LS 201865 000008547102/10/2018190703GEN6075000009002257101/10/201818/11/201801/10/201804857526FACT ACH                 D3          1579  02 2000          1579000000448306             0                       0                       0                       0                       0             
LS 201865 000008547102/10/2018190703GEN6075000009002257101/10/201818/11/201801/10/201804857526FACT ACH                 D3         17065  02 2000         17065000000448307             0                       0                       0                       0                       0             
LS 201865 000008547102/10/2018190703GEN6075000009002257101/10/201818/11/201801/10/201804857526FACT ACH                 D3          4794  02 2000          4794000000448308             0                       0                       0                       0                       0             
LS 201865 000008547102/10/2018190703TVA4456600009002257101/10/201818/11/201801/10/201804857526TVA FACT ACH             D3         14041  02 2000         70206000000                   0                       0                       0                       0                       0             
LS 201865 000008547102/10/2018190703TVA4456600009002257101/10/201818/11/201801/10/201804857526TVA FACT ACH             D3          2443  07 1000         24434000000                   0                       0                       0                       0                       0             
LS 201865 000008547102/10/2018190703FSR4011000009002257101/10/201818/11/201801/10/201804857527FACT ACH  930430812      C3        186752VI00    0             0000000              18675218/11/2018             0                       0                       0                       0             
LS 201865 000008547102/10/2018190703GEN6075000009002257101/10/201818/11/201801/10/201804857527FACT ACH                 D3         12554  03  550         12554000000141308             0                       0                       0                       0                       0             
LS 201865 000008547102/10/2018190703GEN6075000009002257101/10/201818/11/201801/10/201804857527FACT ACH                 D3          8733  07 1000          8733000000141302             0                       0                       0                       0                       0             
LS 201865 000008547102/10/2018190703GEN6075000009002257101/10/201818/11/201801/10/201804857527FACT ACH                 D3         11814  07 1000         11814000000141307             0                       0                       0                       0                       0             
LS 201865 000008547102/10/2018190703GEN6075000009002257101/10/201818/11/201801/10/201804857527FACT ACH                 D3           861  02 2000           861000000141301             0                       0                       0                       0                       0             
LS 201865 000008547102/10/2018190703GEN6075000009002257101/10/201818/11/201801/10/201804857527FACT ACH                 D3         20832  02 2000         20832000000141302             0                       0                       0                       0                       0             
LS 201865 000008547102/10/2018190703GEN6075000009002257101/10/201818/11/201801/10/201804857527FACT ACH                 D3          3016  02 2000          3016000000141303             0                       0                       0                       0                       0             
LS 201865 000008547102/10/2018190703GEN6075000009002257101/10/201818/11/201801/10/201804857527FACT ACH                 D3          5036  02 2000          5036000000141304             0                       0                       0                       0                       0             
LS 201865 000008547102/10/2018190703GEN6075000009002257101/10/201818/11/201801/10/201804857527FACT ACH                 D3         20019  02 2000         20019000000141305             0                       0                       0                       0                       0             
LS 201865 000008547102/10/2018190703GEN6075000009002257101/10/201818/11/201801/10/201804857527FACT ACH                 D3         18858  02 2000         18858000000141306             0                       0                       0                       0                       0             
LS 201865 000008547102/10/2018190703GEN6075000009002257101/10/201818/11/201801/10/201804857527FACT ACH                 D3         57133  02 2000         57133000000141307             0                       0                       0                       0                       0             
LS 201865 000008547102/10/2018190703TVA4456600009002257101/10/201818/11/201801/10/201804857527TVA FACT ACH             D3         25151  02 2000        125755000000                   0                       0                       0                       0                       0             
LS 201865 000008547102/10/2018190703TVA4456600009002257101/10/201818/11/201801/10/201804857527TVA FACT ACH             D3           690  03  550         12554000000                   0                       0                       0                       0                       0             
LS 201865 000008547102/10/2018190703TVA4456600009002257101/10/201818/11/201801/10/201804857527TVA FACT ACH             D3          2055  07 1000         20547000000                   0                       0                       0                       0                       0             
LS 201865 000008547102/10/2018190703FSR4011000009002257101/10/201818/11/201801/10/201804857528FACT ACH  930430851      C3         88388VI00    0             0000000               8838818/11/2018             0                       0                       0                       0             
LS 201865 000008547102/10/2018190703GEN6075000009002257101/10/201818/11/201801/10/201804857528FACT ACH                 D3          3783  02 2000          3783000000171306             0                       0                       0                       0                       0             
LS 201865 000008547102/10/2018190703GEN6075000009002257101/10/201818/11/201801/10/201804857528FACT ACH                 D3         69874  02 2000         69874000000171307             0                       0                       0                       0                       0             
LS 201865 000008547102/10/2018190703TVA4456600009002257101/10/201818/11/201801/10/201804857528TVA FACT ACH             D3         14731  02 2000         73657000000                   0                       0                       0                       0                       0             
LS 201865 000008547102/10/2018190703FSR4011000009002257101/10/201818/11/201801/10/201804857529FACT ACH  930430893      C3        400433VI00    0             0000000              40043318/11/2018             0                       0                       0                       0             
LS 201865 000008547102/10/2018190703GEN6075000009002257101/10/201818/11/201801/10/201804857529FACT ACH                 D3         19574  07 1000         19574000000235302             0                       0                       0                       0                       0             
LS 201865 000008547102/10/2018190703GEN6075000009002257101/10/201818/11/201801/10/201804857529FACT ACH                 D3         81856  07 1000         81856000000235307             0                       0                       0                       0                       0             
LS 201865 000008547102/10/2018190703GEN6075000009002257101/10/201818/11/201801/10/201804857529FACT ACH                 D3         42232  07 1000         42232000000235309             0                       0                       0                       0                       0             
LS 201865 000008547102/10/2018190703GEN6075000009002257101/10/201818/11/201801/10/201804857529FACT ACH                 D3        121075  02 2000        121075000000235302             0                       0                       0                       0                       0             
LS 201865 000008547102/10/2018190703GEN6075000009002257101/10/201818/11/201801/10/201804857529FACT ACH                 D3          4660  02 2000          4660000000235303             0                       0                       0                       0                       0             
LS 201865 000008547102/10/2018190703GEN6075000009002257101/10/201818/11/201801/10/201804857529FACT ACH                 D3          3530  02 2000          3530000000235306             0                       0                       0                       0                       0             
LS 201865 000008547102/10/2018190703GEN6075000009002257101/10/201818/11/201801/10/201804857529FACT ACH                 D3         72739  02 2000         72739000000235307             0                       0                       0                       0                       0             
LS 201865 000008547102/10/2018190703TVA4456600009002257101/10/201818/11/201801/10/201804857529TVA FACT ACH             D3         40401  02 2000        202004000000                   0                       0                       0                       0                       0             
LS 201865 000008547102/10/2018190703TVA4456600009002257101/10/201818/11/201801/10/201804857529TVA FACT ACH             D3         14366  07 1000        143662000000                   0                       0                       0                       0                       0             
LS 201865 000008547102/10/2018190703FSR4011000009002257101/10/201818/11/201801/10/201804857530FACT ACH  930430918      C3          4406VI00    0             0000000                440618/11/2018             0                       0                       0                       0             
LS 201865 000008547102/10/2018190703GEN6075000009002257101/10/201818/11/201801/10/201804857530FACT ACH                 D3          3672  02 2000          3672000000243302             0                       0                       0                       0                       0             
LS 201865 000008547102/10/2018190703TVA4456600009002257101/10/201818/11/201801/10/201804857530TVA FACT ACH             D3           734  02 2000          3672000000                   0                       0                       0                       0                       0             
LS 201865 000008547102/10/2018190703FSR4011000009002257101/10/201819/11/201801/10/201804857531FACT ACH  930431023      C3           894VI00    0             0000000                 89419/11/2018             0                       0                       0                       0             
LS 201865 000008547102/10/2018190703GEN6075000009002257101/10/201819/11/201801/10/201804857531FACT ACH                 D3           745  02 2000           745000000395307             0                       0                       0                       0                       0             
LS 201865 000008547102/10/2018190703TVA4456600009002257101/10/201819/11/201801/10/201804857531TVA FACT ACH             D3           149  02 2000           745000000                   0                       0                       0                       0                       0             
LS 201865 000008547102/10/2018190703FSR4011000009002257101/10/201819/11/201801/10/201804857532FACT ACH  930431272      C3        114331VI00    0             0000000              11433119/11/2018             0                       0                       0                       0             
LS 201865 000008547102/10/2018190703GEN6075000009002257101/10/201819/11/201801/10/201804857532FACT ACH                 D3         95276  02 2000         95276000000116302             0                       0                       0                       0                       0             
LS 201865 000008547102/10/2018190703TVA4456600009002257101/10/201819/11/201801/10/201804857532TVA FACT ACH             D3         19055  02 2000         95276000000                   0                       0                       0                       0                       0             
LS 201865 000008547102/10/2018190704FSR4011000009002157101/10/201815/10/201801/10/201804856685FACT ACH  4579553-GALEO  C3         81170VI00    0             0000000               8117015/10/2018             0                       0                       0                       0             
LS 201865 000008547102/10/2018190704GEN6075000009002157101/10/201815/10/201801/10/201804856685FACT ACH                 D3         67902  02 2000         67902000000243302             0                       0                       0                       0                       0             
LS 201865 000008547102/10/2018190704GEN6075000009002157101/10/201815/10/201801/10/201804856685FACT ACH                 D3          4686  02 2000          4686000000243310             0                       0                       0                       0                       0             
LS 201865 000008547102/10/2018190704TVA4456600009002157101/10/201815/10/201801/10/201804856685TVA FACT ACH             D3          6330  02 2000         31648000000                   0                       0                       0                       0                       0             
LS 201865 000008547102/10/2018190704TVA4456600009002157101/10/201815/10/201801/10/201804856685TVA FACT ACH             D3          2252  03  550         40940000000                   0                       0                       0                       0                       0             
LS 201865 000008547102/10/2018190704FSR4011000009002257101/10/201823/11/201801/10/201804857513AVO ACH  930431923       D3           380VI00    0             0000000                 38023/11/2018             0                       0                       0                       0             
LS 201865 000008547102/10/2018190704GEN6075000009002257101/10/201823/11/201801/10/201804857513AVO ACH                  C3           317  07 1000           317000000234310             0                       0                       0                       0                       0             
LS 201865 000008547102/10/2018190704TVA4456600009002257101/10/201823/11/201801/10/201804857513TVA AVO ACH              C3            63  02 2000           317000000                   0                       0                       0                       0                       0             
LS 201865 000008547102/10/2018190704FSR4011000009002257101/10/201823/11/201801/10/201804857514AVO ACH  930431924       D3          2923VI00    0             0000000                292323/11/2018             0                       0                       0                       0             
LS 201865 000008547102/10/2018190704GEN6075000009002257101/10/201823/11/201801/10/201804857514AVO ACH                  C3          2436  02 2000          2436000000116305             0                       0                       0                       0                       0             
LS 201865 000008547102/10/2018190704TVA4456600009002257101/10/201823/11/201801/10/201804857514TVA AVO ACH              C3           487  02 2000          2436000000                   0                       0                       0                       0                       0             
LS 201865 000008547102/10/2018190704FSR4011000009002257101/10/201823/11/201801/10/201804857515AVO ACH  930431925       D3         12607VI00    0             0000000               1260723/11/2018             0                       0                       0                       0             
LS 201865 000008547102/10/2018190704GEN6075000009002257101/10/201823/11/201801/10/201804857515AVO ACH                  C3         10506  02 2000         10506000000116303             0                       0                       0                       0                       0             
LS 201865 000008547102/10/2018190704TVA4456600009002257101/10/201823/11/201801/10/201804857515TVA AVO ACH              C3          2101  02 2000         10506000000                   0                       0                       0                       0                       0             
LS 201865 000008547102/10/2018190704FSR4011000009002257101/10/201823/11/201801/10/201804857516AVO ACH  930431926       D3         14743VI00    0             0000000               1474323/11/2018             0                       0                       0                       0             
LS 201865 000008547102/10/2018190704GEN6075000009002257101/10/201823/11/201801/10/201804857516AVO ACH                  C3         12286  02 2000         12286000000116307             0                       0                       0                       0                       0             
LS 201865 000008547102/10/2018190704TVA4456600009002257101/10/201823/11/201801/10/201804857516TVA AVO ACH              C3          2457  02 2000         12286000000                   0                       0                       0                       0                       0             
LS 201865 000008547102/10/2018190704FSR4011000009002257101/10/201823/11/201801/10/201804857517AVO ACH  930431927       D3           492VI00    0             0000000                 49223/11/2018             0                       0                       0                       0             
LS 201865 000008547102/10/2018190704GEN6075000009002257101/10/201823/11/201801/10/201804857517AVO ACH                  C3           447  07 1000           447000000116302             0                       0                       0                       0                       0             
LS 201865 000008547102/10/2018190704TVA4456600009002257101/10/201823/11/201801/10/201804857517TVA AVO ACH              C3            45  07 1000           447000000                   0                       0                       0                       0                       0             
LS 201865 000008547102/10/2018190705FSR4011000009002257101/10/201824/11/201801/10/201804857518AVO ACH  930432227       D3          3338VI00    0             0000000                333824/11/2018             0                       0                       0                       0             
LS 201865 000008547102/10/2018190705GEN6075000009002257101/10/201824/11/201801/10/201804857518AVO ACH                  C3          2067  07 1000          2067000000304309             0                       0                       0                       0                       0             
LS 201865 000008547102/10/2018190705GEN6075000009002257101/10/201824/11/201801/10/201804857518AVO ACH                  C3           887  02 2000           887000000304302             0                       0                       0                       0                       0             
LS 201865 000008547102/10/2018190705TVA4456600009002257101/10/201824/11/201801/10/201804857518TVA AVO ACH              C3           177  02 2000           887000000                   0                       0                       0                       0                       0             
LS 201865 000008547102/10/2018190705TVA4456600009002257101/10/201824/11/201801/10/201804857518TVA AVO ACH              C3           207  07 1000          2067000000                   0                       0                       0                       0                       0             
LS 201865 000008547102/10/2018190705FSR4011000009060187601/10/201814/10/201801/10/201804856818FACT ACH  41118550-DECOFOC3        144818VI00    0             0000000              14481814/10/2018             0                       0                       0                       0             
LS 201865 000008547102/10/2018190705GEN6075000009060187601/10/201814/10/201801/10/201804856818FACT ACH                 D3        120682  02 2000        120682000000171302             0                       0                       0                       0                       0             
LS 201865 000008547102/10/2018190705TVA4456600009060187601/10/201814/10/201801/10/201804856818TVA FACT ACH             D3         24136  02 2000        120682000000                   0                       0                       0                       0                       0             
LS 201865 000008547102/10/2018190705FSR4011000009060187601/10/201814/10/201801/10/201804856824FACT ACH  41118544-DECOFOC3        144818VI00    0             0000000              14481814/10/2018             0                       0                       0                       0             
LS 201865 000008547102/10/2018190705GEN6075000009060187601/10/201814/10/201801/10/201804856824FACT ACH                 D3        120682  02 2000        120682000000243302             0                       0                       0                       0                       0             
LS 201865 000008547102/10/2018190705TVA4456600009060187601/10/201814/10/201801/10/201804856824TVA FACT ACH             D3         24136  02 2000        120682000000                   0                       0                       0                       0                       0             
LS 201865 000008547102/10/2018190705FSR4011000009060187601/10/201814/10/201801/10/201804856825FACT ACH  41118543-DECOFOC3         68972VI00    0             0000000               6897214/10/2018             0                       0                       0                       0             
LS 201865 000008547102/10/2018190705GEN6075000009060187601/10/201814/10/201801/10/201804856825FACT ACH                 D3         57477  02 2000         57477000000243302             0                       0                       0                       0                       0             
LS 201865 000008547102/10/2018190705TVA4456600009060187601/10/201814/10/201801/10/201804856825TVA FACT ACH             D3         11495  02 2000         57477000000                   0                       0                       0                       0                       0             
LS 201865 000008547102/10/2018190705FSR4011000009002257101/10/201825/11/201801/10/201804857509AVO ACH  930432503       D3          2610VI00    0             0000000                261025/11/2018             0                       0                       0                       0             
LS 201865 000008547102/10/2018190705GEN6075000009002257101/10/201825/11/201801/10/201804857509AVO ACH                  C3          2175  02 2000          2175000000171302             0                       0                       0                       0                       0             
LS 201865 000008547102/10/2018190705TVA4456600009002257101/10/201825/11/201801/10/201804857509TVA AVO ACH              C3           435  02 2000          2175000000                   0                       0                       0                       0                       0             
LS 201865 000008547102/10/2018190705FSR4011000009002257101/10/201825/11/201801/10/201804857510AVO ACH  930432504       D3           587VI00    0             0000000                 58725/11/2018             0                       0                       0                       0             
LS 201865 000008547102/10/2018190705GEN6075000009002257101/10/201825/11/201801/10/201804857510AVO ACH                  C3           556  03  550           556000000139310             0                       0                       0                       0                       0             
LS 201865 000008547102/10/2018190705TVA4456600009002257101/10/201825/11/201801/10/201804857510TVA AVO ACH              C3            31  03  550           556000000                   0                       0                       0                       0                       0             
LS 201865 000008547102/10/2018190705FSR4011000009002257101/10/201825/11/201801/10/201804857511AVO ACH  930432506       D3          4988VI00    0             0000000                498825/11/2018             0                       0                       0                       0             
LS 201865 000008547102/10/2018190705GEN6075000009002257101/10/201825/11/201801/10/201804857511AVO ACH                  C3          4728  03  550          4728000000168308             0                       0                       0                       0                       0             
LS 201865 000008547102/10/2018190705TVA4456600009002257101/10/201825/11/201801/10/201804857511TVA AVO ACH              C3           260  03  550          4728000000                   0                       0                       0                       0                       0             
LS 201865 000008547102/10/2018190705FSR4011000009002257101/10/201825/11/201801/10/201804857512AVO ACH  930432507       D3         11448VI00    0             0000000               1144825/11/2018             0                       0                       0                       0             
LS 201865 000008547102/10/2018190705GEN6075000009002257101/10/201825/11/201801/10/201804857512AVO ACH                  C3          9540  02 2000          9540000000302304             0                       0                       0                       0                       0             
LS 201865 000008547102/10/2018190705TVA4456600009002257101/10/201825/11/201801/10/201804857512TVA AVO ACH              C3          1908  02 2000          9540000000                   0                       0                       0                       0                       0             
LS 201865 000008547102/10/2018190706FSR4011000009060110301/10/201815/11/201801/10/201804857087FACT ACH  20180911083-ODMC3         23065VI00    0             0000000               2306515/11/2018             0                       0                       0                       0             
LS 201865 000008547102/10/2018190706GEN6075000009060110301/10/201815/11/201801/10/201804857087FACT ACH                 D3         19221  02 2000         19221000000243306             0                       0                       0                       0                       0             
LS 201865 000008547102/10/2018190706TVA4456600009060110301/10/201815/11/201801/10/201804857087TVA FACT ACH             D3          3844  02 2000         19221000000                   0                       0                       0                       0                       0             
LS 201865 000008547102/10/2018190706FSR4011000009002157101/10/201830/10/201801/10/201804857412FACT ACH  4567848-ROYAL CC3         68568VI00    0             0000000               6856830/10/2018             0                       0                       0                       0             
LS 201865 000008547102/10/2018190706GEN6075000009002157101/10/201830/10/201801/10/201804857412FACT ACH                 D3         57140  02 2000         57140000000395307             0                       0                       0                       0                       0             
LS 201865 000008547102/10/2018190706TVA4456600009002157101/10/201830/10/201801/10/201804857412TVA FACT ACH             D3         11428  02 2000         57140000000                   0                       0                       0                       0                       0             
LS 201865 000008547102/10/2018190706FSR4011000009002157101/10/201830/10/201801/10/201804857413FACT ACH  4570417-ROYAL CC3         52006VI00    0             0000000               5200630/10/2018             0                       0                       0                       0             
LS 201865 000008547102/10/2018190706GEN6075000009002157101/10/201830/10/201801/10/201804857413FACT ACH                 D3         43338  02 2000         43338000000128307             0                       0                       0                       0                       0             
LS 201865 000008547102/10/2018190706TVA4456600009002157101/10/201830/10/201801/10/201804857413TVA FACT ACH             D3          8668  02 2000         43338000000                   0                       0                       0                       0                       0             
LS 201865 000008547102/10/2018190706FSR4011000009002157101/10/201830/10/201801/10/201804857414FACT ACH  4571208-ROYAL CC3         43541VI00    0             0000000               4354130/10/2018             0                       0                       0                       0             
LS 201865 000008547102/10/2018190706GEN6075000009002157101/10/201830/10/201801/10/201804857414FACT ACH                 D3         36284  02 2000         36284000000141307             0                       0                       0                       0                       0             
LS 201865 000008547102/10/2018190706TVA4456600009002157101/10/201830/10/201801/10/201804857414TVA FACT ACH             D3          7257  02 2000         36284000000                   0                       0                       0                       0                       0             
LS 201865 000008547102/10/2018190706FSR4011000009002157101/10/201830/10/201801/10/201804857415FACT ACH  4570423-ROYAL CC3         12151VI00    0             0000000               1215130/10/2018             0                       0                       0                       0             
LS 201865 000008547102/10/2018190706GEN6075000009002157101/10/201830/10/201801/10/201804857415FACT ACH                 D3         10126  02 2000         10126000000128307             0                       0                       0                       0                       0             
LS 201865 000008547102/10/2018190706TVA4456600009002157101/10/201830/10/201801/10/201804857415TVA FACT ACH             D3          2025  02 2000         10126000000                   0                       0                       0                       0                       0             
LS 201865 000008547102/10/2018190706FSR4011000009002157101/10/201830/10/201801/10/201804857416FACT ACH  4572476-ROYAL CC3         48611VI00    0             0000000               4861130/10/2018             0                       0                       0                       0             
LS 201865 000008547102/10/2018190706GEN6075000009002157101/10/201830/10/201801/10/201804857416FACT ACH                 D3         40509  02 2000         40509000000197307             0                       0                       0                       0                       0             
LS 201865 000008547102/10/2018190706TVA4456600009002157101/10/201830/10/201801/10/201804857416TVA FACT ACH             D3          8102  02 2000         40509000000                   0                       0                       0                       0                       0             
LS 201865 000008547102/10/2018190706FSR4011000009002157101/10/201830/10/201801/10/201804857417FACT ACH  4572326-ROYAL CC3         76920VI00    0             0000000               7692030/10/2018             0                       0                       0                       0             
LS 201865 000008547102/10/2018190706GEN6075000009002157101/10/201830/10/201801/10/201804857417FACT ACH                 D3         64100  02 2000         64100000000132307             0                       0                       0                       0                       0             
LS 201865 000008547102/10/2018190706TVA4456600009002157101/10/201830/10/201801/10/201804857417TVA FACT ACH             D3         12820  02 2000         64100000000                   0                       0                       0                       0                       0             
LS 201865 000008547102/10/2018190706FSR4011000009002157101/10/201831/10/201801/10/201804857418FACT ACH  4594180-VILMORIC3         48763VI00    0             0000000               4876331/10/2018             0                       0                       0                       0             
LS 201865 000008547102/10/2018190706GEN6075000009002157101/10/201831/10/201801/10/201804857418FACT ACH                 D3         44330  07 1000         44330000000265309             0                       0                       0                       0                       0             
LS 201865 000008547102/10/2018190706TVA4456600009002157101/10/201831/10/201801/10/201804857418TVA FACT ACH             D3          4433  07 1000         44330000000                   0                       0                       0                       0                       0             
LS 201865 000008547102/10/2018190707FSR4011000009002157101/10/201830/10/201801/10/201804857419FACT ACH  4572125-ROYAL CC3        206203VI00    0             0000000              20620330/10/2018             0                       0                       0                       0             
LS 201865 000008547102/10/2018190707GEN6075000009002157101/10/201830/10/201801/10/201804857419FACT ACH                 D3        171836  02 2000        171836000000234307             0                       0                       0                       0                       0             
LS 201865 000008547102/10/2018190707TVA4456600009002157101/10/201830/10/201801/10/201804857419TVA FACT ACH             D3         34367  02 2000        171836000000                   0                       0                       0                       0                       0             
LS 201865 000008547102/10/2018190707FSR4011000009002157101/10/201831/10/201801/10/201804857420FACT ACH  4594119-VILMORIC3         78999VI00    0             0000000               7899931/10/2018             0                       0                       0                       0             
LS 201865 000008547102/10/2018190707GEN6075000009002157101/10/201831/10/201801/10/201804857420FACT ACH                 D3         71817  07 1000         71817000000100309             0                       0                       0                       0                       0             
LS 201865 000008547102/10/2018190707TVA4456600009002157101/10/201831/10/201801/10/201804857420TVA FACT ACH             D3          7182  07 1000         71817000000                   0                       0                       0                       0                       0             
LS 201865 000008547102/10/2018190707FSR4011000009002157101/10/201830/10/201801/10/201804857422FACT ACH  4572121-ROYAL CC3        193506VI00    0             0000000              19350630/10/2018             0                       0                       0                       0             
LS 201865 000008547102/10/2018190707GEN6075000009002157101/10/201830/10/201801/10/201804857422FACT ACH                 D3        161255  02 2000        161255000000116307             0                       0                       0                       0                       0             
LS 201865 000008547102/10/2018190707TVA4456600009002157101/10/201830/10/201801/10/201804857422TVA FACT ACH             D3         32251  02 2000        161255000000                   0                       0                       0                       0                       0             
LS 201865 000008547102/10/2018190707FSR4011000009002157101/10/201817/10/201801/10/201804857421FACT ACH  4593788-VIVAPLAC3         23603VI00    0             0000000               2360317/10/2018             0                       0                       0                       0             
LS 201865 000008547102/10/2018190707GEN6075000009002157101/10/201817/10/201801/10/201804857421FACT ACH                 D3         21660  07 1000         21660000000394309             0                       0                       0                       0                       0             
LS 201865 000008547102/10/2018190707TVA4456600009002157101/10/201817/10/201801/10/201804857421TVA FACT ACH             D3           272  03  550          4950000000                   0                       0                       0                       0                       0             
LS 201865 000008547102/10/2018190707TVA4456600009002157101/10/201817/10/201801/10/201804857421TVA FACT ACH             D3          1671  07 1000         16710000000                   0                       0                       0                       0                       0             
LS 201865 000008547102/10/2018190707FSR4011000009002157101/10/201830/10/201801/10/201804857423FACT ACH  4572542-ROYAL CC3         10169VI00    0             0000000               1016930/10/2018             0                       0                       0                       0             
LS 201865 000008547102/10/2018190707GEN6075000009002157101/10/201830/10/201801/10/201804857423FACT ACH                 D3          8474  02 2000          8474000000116307             0                       0                       0                       0                       0             
LS 201865 000008547102/10/2018190707TVA4456600009002157101/10/201830/10/201801/10/201804857423TVA FACT ACH             D3          1695  02 2000          8474000000                   0                       0                       0                       0                       0             
LS 201865 000008547102/10/2018190707FSR4011000009002157101/10/201830/10/201801/10/201804857424FACT ACH  4572336-ROYAL CC3         27970VI00    0             0000000               2797030/10/2018             0                       0                       0                       0             
LS 201865 000008547102/10/2018190707GEN6075000009002157101/10/201830/10/201801/10/201804857424FACT ACH                 D3         23308  02 2000         23308000000116307             0                       0                       0                       0                       0             
LS 201865 000008547102/10/2018190707TVA4456600009002157101/10/201830/10/201801/10/201804857424TVA FACT ACH             D3          4662  02 2000         23308000000                   0                       0                       0                       0                       0             
LS 201865 000008547102/10/2018190707FSR4011000009002157101/10/201830/10/201801/10/201804857427FACT ACH  4572107-ROYAL CC3        143910VI00    0             0000000              14391030/10/2018             0                       0                       0                       0             
LS 201865 000008547102/10/2018190707GEN6075000009002157101/10/201830/10/201801/10/201804857427FACT ACH                 D3        119925  02 2000        119925000000235307             0                       0                       0                       0                       0             
LS 201865 000008547102/10/2018190707TVA4456600009002157101/10/201830/10/201801/10/201804857427TVA FACT ACH             D3         23985  02 2000        119925000000                   0                       0                       0                       0                       0             
LS 201865 000008547102/10/2018190707FSR4011000009002157101/10/201831/10/201801/10/201804857426FACT ACH  4594113-VILMORIC3         31422VI00    0             0000000               3142231/10/2018             0                       0                       0                       0             
LS 201865 000008547102/10/2018190707GEN6075000009002157101/10/201831/10/201801/10/201804857426FACT ACH                 D3         28565  07 1000         28565000000208309             0                       0                       0                       0                       0             
LS 201865 000008547102/10/2018190707TVA4456600009002157101/10/201831/10/201801/10/201804857426TVA FACT ACH             D3          2857  07 1000         28565000000                   0                       0                       0                       0                       0             
LS 201865 000008547102/10/2018190707FSR4011000009002157101/10/201822/10/201801/10/201804857428FACT ACH  4598644-PREMIERC3         54404VI00    0             0000000               5440422/10/2018             0                       0                       0                       0             
LS 201865 000008547102/10/2018190707GEN6075000009002157101/10/201822/10/201801/10/201804857428FACT ACH                 D3         49458  07 1000         49458000000139302             0                       0                       0                       0                       0             
LS 201865 000008547102/10/2018190707TVA4456600009002157101/10/201822/10/201801/10/201804857428TVA FACT ACH             D3          4946  07 1000         49458000000                   0                       0                       0                       0                       0             
LS 201865 000008547102/10/2018190707FSR4011000009002157101/10/201822/10/201801/10/201804857429FACT ACH  4598642-PREMIERC3         68482VI00    0             0000000               6848222/10/2018             0                       0                       0                       0             
LS 201865 000008547102/10/2018190707GEN6075000009002157101/10/201822/10/201801/10/201804857429FACT ACH                 D3         62256  07 1000         62256000000116302             0                       0                       0                       0                       0             
LS 201865 000008547102/10/2018190707TVA4456600009002157101/10/201822/10/201801/10/201804857429TVA FACT ACH             D3          6226  07 1000         62256000000                   0                       0                       0                       0                       0             
LS 201865 000008547102/10/2018190707FSR4011000009002157101/10/201822/10/201801/10/201804857430FACT ACH  4598639-PREMIERC3         47269VI00    0             0000000               4726922/10/2018             0                       0                       0                       0             
LS 201865 000008547102/10/2018190707GEN6075000009002157101/10/201822/10/201801/10/201804857430FACT ACH                 D3         42972  07 1000         42972000000243302             0                       0                       0                       0                       0             
LS 201865 000008547102/10/2018190707TVA4456600009002157101/10/201822/10/201801/10/201804857430TVA FACT ACH             D3          4297  07 1000         42972000000                   0                       0                       0                       0                       0             
LS 201865 000008547102/10/2018190707FSR4011000009002157101/10/201822/10/201801/10/201804857433FACT ACH  4598346-BIANCHIC3         87571VI00    0             0000000               8757122/10/2018             0                       0                       0                       0             
LS 201865 000008547102/10/2018190707GEN6075000009002157101/10/201822/10/201801/10/201804857433FACT ACH                 D3         79610  07 1000         79610000000146309             0                       0                       0                       0                       0             
LS 201865 000008547102/10/2018190707TVA4456600009002157101/10/201822/10/201801/10/201804857433TVA FACT ACH             D3          7961  07 1000         79610000000                   0                       0                       0                       0                       0             
LS 201865 000008547102/10/2018190707FSR4011000009002157101/10/201830/10/201801/10/201804857434FACT ACH  4572455-ROYAL CC3        430823VI00    0             0000000              43082330/10/2018             0                       0                       0                       0             
LS 201865 000008547102/10/2018190707GEN6075000009002157101/10/201830/10/201801/10/201804857434FACT ACH                 D3        359019  02 2000        359019000000116307             0                       0                       0                       0                       0             
LS 201865 000008547102/10/2018190707TVA4456600009002157101/10/201830/10/201801/10/201804857434TVA FACT ACH             D3         71804  02 2000        359019000000                   0                       0                       0                       0                       0             
LS 201865 000008547102/10/2018190707FSR4011000009002157101/10/201822/10/201801/10/201804857438FACT ACH  4598353-BIANCHIC3        122315VI00    0             0000000              12231522/10/2018             0                       0                       0                       0             
LS 201865 000008547102/10/2018190707GEN6075000009002157101/10/201822/10/201801/10/201804857438FACT ACH                 D3         85725  07 1000         85725000000171309             0                       0                       0                       0                       0             
LS 201865 000008547102/10/2018190707GEN6075000009002157101/10/201822/10/201801/10/201804857438FACT ACH                 D3         17640  07 1000         17640000000171310             0                       0                       0                       0                       0             
LS 201865 000008547102/10/2018190707GEN6075000009002157101/10/201822/10/201801/10/201804857438FACT ACH                 D3          7830  02 2000          7830000000171309             0                       0                       0                       0                       0             
LS 201865 000008547102/10/2018190707TVA4456600009002157101/10/201822/10/201801/10/201804857438TVA FACT ACH             D3         11120  07 1000        111195000000                   0                       0                       0                       0                       0             
LS 201865 000008547102/10/2018190707FSR4011000009002157101/10/201822/10/201801/10/201804857439FACT ACH  4598357-BIANCHIC3        262283VI00    0             0000000              26228322/10/2018             0                       0                       0                       0             
LS 201865 000008547102/10/2018190707GEN6075000009002157101/10/201822/10/201801/10/201804857439FACT ACH                 D3        238439  07 1000        238439000000243309             0                       0                       0                       0                       0             
LS 201865 000008547102/10/2018190707TVA4456600009002157101/10/201822/10/201801/10/201804857439TVA FACT ACH             D3         23844  07 1000        238439000000                   0                       0                       0                       0                       0             
LS 201865 000008547102/10/2018190708FSR4011000009002157101/10/201822/10/201801/10/201804857441FACT ACH  4598358-BIANCHIC3        185702VI00    0             0000000              18570222/10/2018             0                       0                       0                       0             
LS 201865 000008547102/10/2018190708GEN6075000009002157101/10/201822/10/201801/10/201804857441FACT ACH                 D3        153160  07 1000        153160000000116309             0                       0                       0                       0                       0             
LS 201865 000008547102/10/2018190708GEN6075000009002157101/10/201822/10/201801/10/201804857441FACT ACH                 D3         15660  02 2000         15660000000116309             0                       0                       0                       0                       0             
LS 201865 000008547102/10/2018190708TVA4456600009002157101/10/201822/10/201801/10/201804857441TVA FACT ACH             D3         16882  07 1000        168820000000                   0                       0                       0                       0                       0             
LS 201865 000008547102/10/2018190708FSR4011000009002157101/10/201830/10/201801/10/201804857440FACT ACH  4572152-ROYAL CC3        132120VI00    0             0000000              13212030/10/2018             0                       0                       0                       0             
LS 201865 000008547102/10/2018190708GEN6075000009002157101/10/201830/10/201801/10/201804857440FACT ACH                 D3        110100  02 2000        110100000000197307             0                       0                       0                       0                       0             
LS 201865 000008547102/10/2018190708TVA4456600009002157101/10/201830/10/201801/10/201804857440TVA FACT ACH             D3         22020  02 2000        110100000000                   0                       0                       0                       0                       0             
LS 201865 000008547102/10/2018190708FSR4011000009002157101/10/201830/10/201801/10/201804857442FACT ACH  4572451-ROYAL CC3         84510VI00    0             0000000               8451030/10/2018             0                       0                       0                       0             
LS 201865 000008547102/10/2018190708GEN6075000009002157101/10/201830/10/201801/10/201804857442FACT ACH                 D3         70425  02 2000         70425000000141307             0                       0                       0                       0                       0             
LS 201865 000008547102/10/2018190708TVA4456600009002157101/10/201830/10/201801/10/201804857442TVA FACT ACH             D3         14085  02 2000         70425000000                   0                       0                       0                       0                       0             
LS 201865 000008547102/10/2018190708FSR4011000009002157101/10/201830/10/201801/10/201804857443FACT ACH  4572301-ROYAL CC3         23488VI00    0             0000000               2348830/10/2018             0                       0                       0                       0             
LS 201865 000008547102/10/2018190708GEN6075000009002157101/10/201830/10/201801/10/201804857443FACT ACH                 D3         19573  02 2000         19573000000128307             0                       0                       0                       0                       0             
LS 201865 000008547102/10/2018190708TVA4456600009002157101/10/201830/10/201801/10/201804857443TVA FACT ACH             D3          3915  02 2000         19573000000                   0                       0                       0                       0                       0             
LS 201865 000008547102/10/2018190709FSR4011000009002157101/10/201822/10/201801/10/201804857447FACT ACH  4598364-BIANCHIC3        208020VI00    0             0000000              20802022/10/2018             0                       0                       0                       0             
LS 201865 000008547102/10/2018190709GEN6075000009002157101/10/201822/10/201801/10/201804857447FACT ACH                 D3        173449  07 1000        173449000000100309             0                       0                       0                       0                       0             
LS 201865 000008547102/10/2018190709GEN6075000009002157101/10/201822/10/201801/10/201804857447FACT ACH                 D3         15660  02 2000         15660000000100309             0                       0                       0                       0                       0             
LS 201865 000008547102/10/2018190709TVA4456600009002157101/10/201822/10/201801/10/201804857447TVA FACT ACH             D3         18911  07 1000        189109000000                   0                       0                       0                       0                       0             
LS 201865 000008547102/10/2018190709FSR4011000009002157101/10/201830/10/201801/10/201804857446FACT ACH  4572885-CERDYS C3         38877VI00    0             0000000               3887730/10/2018             0                       0                       0                       0             
LS 201865 000008547102/10/2018190709GEN6075000009002157101/10/201830/10/201801/10/201804857446FACT ACH                 D3         32070  07 1000         32070000000141309             0                       0                       0                       0                       0             
LS 201865 000008547102/10/2018190709GEN6075000009002157101/10/201830/10/201801/10/201804857446FACT ACH                 D3          3000  02 2000          3000000000141310             0                       0                       0                       0                       0             
LS 201865 000008547102/10/2018190709TVA4456600009002157101/10/201830/10/201801/10/201804857446TVA FACT ACH             D3           600  02 2000          3000000000                   0                       0                       0                       0                       0             
LS 201865 000008547102/10/2018190709TVA4456600009002157101/10/201830/10/201801/10/201804857446TVA FACT ACH             D3          3207  07 1000         32070000000                   0                       0                       0                       0                       0             
LS 201865 000008547102/10/2018190709FSR4011000009002157101/10/201830/10/201801/10/201804857448FACT ACH  4572884-CERDYS C3         39171VI00    0             0000000               3917130/10/2018             0                       0                       0                       0             
LS 201865 000008547102/10/2018190709GEN6075000009002157101/10/201830/10/201801/10/201804857448FACT ACH                 D3         32337  07 1000         32337000000139309             0                       0                       0                       0                       0             
LS 201865 000008547102/10/2018190709GEN6075000009002157101/10/201830/10/201801/10/201804857448FACT ACH                 D3          3000  02 2000          3000000000139310             0                       0                       0                       0                       0             
LS 201865 000008547102/10/2018190709TVA4456600009002157101/10/201830/10/201801/10/201804857448TVA FACT ACH             D3           600  02 2000          3000000000                   0                       0                       0                       0                       0             
LS 201865 000008547102/10/2018190709TVA4456600009002157101/10/201830/10/201801/10/201804857448TVA FACT ACH             D3          3234  07 1000         32337000000                   0                       0                       0                       0                       0             
LS 201865 000008547102/10/2018190710FSR4011000009002157101/10/201822/10/201801/10/201804857449FACT ACH  4598368-BIANCHIC3        264022VI00    0             0000000              26402222/10/2018             0                       0                       0                       0             
LS 201865 000008547102/10/2018190710GEN6075000009002157101/10/201822/10/201801/10/201804857449FACT ACH                 D3        240020  07 1000        240020000000265309             0                       0                       0                       0                       0             
LS 201865 000008547102/10/2018190710TVA4456600009002157101/10/201822/10/201801/10/201804857449TVA FACT ACH             D3         24002  07 1000        240020000000                   0                       0                       0                       0                       0             
LS 201865 000008547102/10/2018190710FSR4011000009002157101/10/201830/10/201801/10/201804857451FACT ACH  4572878-CERDYS C3         39667VI00    0             0000000               3966730/10/2018             0                       0                       0                       0             
LS 201865 000008547102/10/2018190710GEN6075000009002157101/10/201830/10/201801/10/201804857451FACT ACH                 D3         32788  07 1000         32788000000448309             0                       0                       0                       0                       0             
LS 201865 000008547102/10/2018190710GEN6075000009002157101/10/201830/10/201801/10/201804857451FACT ACH                 D3          3000  02 2000          3000000000448310             0                       0                       0                       0                       0             
LS 201865 000008547102/10/2018190710TVA4456600009002157101/10/201830/10/201801/10/201804857451TVA FACT ACH             D3           600  02 2000          3000000000                   0                       0                       0                       0                       0             
LS 201865 000008547102/10/2018190710TVA4456600009002157101/10/201830/10/201801/10/201804857451TVA FACT ACH             D3          3279  07 1000         32788000000                   0                       0                       0                       0                       0             
LS 201865 000008547102/10/2018190710FSR4011000009002157101/10/201822/10/201801/10/201804857450FACT ACH  459372-BIANCHINC3        160073VI00    0             0000000              16007322/10/2018             0                       0                       0                       0             
LS 201865 000008547102/10/2018190710GEN6075000009002157101/10/201822/10/201801/10/201804857450FACT ACH                 D3        129861  07 1000        129861000000132309             0                       0                       0                       0                       0             
LS 201865 000008547102/10/2018190710GEN6075000009002157101/10/201822/10/201801/10/201804857450FACT ACH                 D3         15660  02 2000         15660000000132309             0                       0                       0                       0                       0             
LS 201865 000008547102/10/2018190710TVA4456600009002157101/10/201822/10/201801/10/201804857450TVA FACT ACH             D3         14552  07 1000        145521000000                   0                       0                       0                       0                       0             
LS 201865 000008547102/10/2018190710FSR4011000009002157101/10/201822/10/201801/10/201804857454FACT ACH  4598466-BIANCHIC3        241142VI00    0             0000000              24114222/10/2018             0                       0                       0                       0             
LS 201865 000008547102/10/2018190710GEN6075000009002157101/10/201822/10/201801/10/201804857454FACT ACH                 D3        211420  07 1000        211420000000265309             0                       0                       0                       0                       0             
LS 201865 000008547102/10/2018190710GEN6075000009002157101/10/201822/10/201801/10/201804857454FACT ACH                 D3          7800  02 2000          7800000000265309             0                       0                       0                       0                       0             
LS 201865 000008547102/10/2018190710TVA4456600009002157101/10/201822/10/201801/10/201804857454TVA FACT ACH             D3         21922  07 1000        219220000000                   0                       0                       0                       0                       0             
LS 201865 000008547102/10/2018190710FSR4011000009002157101/10/201830/10/201801/10/201804857452FACT ACH  4572892-CERDYS C3         57374VI00    0             0000000               5737430/10/2018             0                       0                       0                       0             
LS 201865 000008547102/10/2018190710GEN6075000009002157101/10/201830/10/201801/10/201804857452FACT ACH                 D3         48885  07 1000         48885000000304309             0                       0                       0                       0                       0             
LS 201865 000008547102/10/2018190710GEN6075000009002157101/10/201830/10/201801/10/201804857452FACT ACH                 D3          3000  02 2000          3000000000304310             0                       0                       0                       0                       0             
LS 201865 000008547102/10/2018190710TVA4456600009002157101/10/201830/10/201801/10/201804857452TVA FACT ACH             D3           600  02 2000          3000000000                   0                       0                       0                       0                       0             
LS 201865 000008547102/10/2018190710TVA4456600009002157101/10/201830/10/201801/10/201804857452TVA FACT ACH             D3          4889  07 1000         48885000000                   0                       0                       0                       0                       0             
LS 201865 000008547102/10/2018190710FSR4011000009002157101/10/201830/10/201801/10/201804857453FACT ACH  4572720-VILMORIC3         16440VI00    0             0000000               1644030/10/2018             0                       0                       0                       0             
LS 201865 000008547102/10/2018190710GEN6075000009002157101/10/201830/10/201801/10/201804857453FACT ACH                 D3         14945  07 1000         14945000000449309             0                       0                       0                       0                       0             
LS 201865 000008547102/10/2018190710TVA4456600009002157101/10/201830/10/201801/10/201804857453TVA FACT ACH             D3          1495  07 1000         14945000000                   0                       0                       0                       0                       0             
LS 201865 000008547102/10/2018190710FSR4011000009002157101/10/201830/10/201801/10/201804857455FACT ACH  4572890-CERDYS C3         34683VI00    0             0000000               3468330/10/2018             0                       0                       0                       0             
LS 201865 000008547102/10/2018190710GEN6075000009002157101/10/201830/10/201801/10/201804857455FACT ACH                 D3         31530  07 1000         31530000000168309             0                       0                       0                       0                       0             
LS 201865 000008547102/10/2018190710TVA4456600009002157101/10/201830/10/201801/10/201804857455TVA FACT ACH             D3          3153  07 1000         31530000000                   0                       0                       0                       0                       0             
LS 201865 000008547102/10/2018190710FSR4011000009002157101/10/201822/10/201801/10/201804857456FACT ACH  4598335-BIANCHIC3         86906VI00    0             0000000               8690622/10/2018             0                       0                       0                       0             
LS 201865 000008547102/10/2018190710GEN6075000009002157101/10/201822/10/201801/10/201804857456FACT ACH                 D3         79005  07 1000         79005000000171309             0                       0                       0                       0                       0             
LS 201865 000008547102/10/2018190710TVA4456600009002157101/10/201822/10/201801/10/201804857456TVA FACT ACH             D3          7901  07 1000         79005000000                   0                       0                       0                       0                       0             
LS 201865 000008547102/10/2018190710FSR4011000009002157101/10/201830/10/201801/10/201804857457FACT ACH  4569020-VILMORIC3        130753VI00    0             0000000              13075330/10/2018             0                       0                       0                       0             
LS 201865 000008547102/10/2018190710GEN6075000009002157101/10/201830/10/201801/10/201804857457FACT ACH                 D3        117990  07 1000        117990000000243309             0                       0                       0                       0                       0             
LS 201865 000008547102/10/2018190710GEN6075000009002157101/10/201830/10/201801/10/201804857457FACT ACH                 D3           876  07 1000           876000000243310             0                       0                       0                       0                       0             
LS 201865 000008547102/10/2018190710TVA4456600009002157101/10/201830/10/201801/10/201804857457TVA FACT ACH             D3         11887  07 1000        118866000000                   0                       0                       0                       0                       0             
LS 201865 000008547102/10/2018190710FSR4011000009002157101/10/201822/10/201801/10/201804857459FACT ACH  4598337-BIANCHIC3        132514VI00    0             0000000              13251422/10/2018             0                       0                       0                       0             
LS 201865 000008547102/10/2018190710GEN6075000009002157101/10/201822/10/201801/10/201804857459FACT ACH                 D3         86022  07 1000         86022000000208309             0                       0                       0                       0                       0             
LS 201865 000008547102/10/2018190710GEN6075000009002157101/10/201822/10/201801/10/201804857459FACT ACH                 D3         30404  02 2000         30404000000208309             0                       0                       0                       0                       0             
LS 201865 000008547102/10/2018190710TVA4456600009002157101/10/201822/10/201801/10/201804857459TVA FACT ACH             D3          8890  02 2000         44450000000                   0                       0                       0                       0                       0             
LS 201865 000008547102/10/2018190710TVA4456600009002157101/10/201822/10/201801/10/201804857459TVA FACT ACH             D3          7198  07 1000         71976000000                   0                       0                       0                       0                       0             
LS 201865 000008547102/10/2018190710FSR4011000009002157101/10/201830/10/201801/10/201804857461FACT ACH  4605183-NESTLE C3         45899VI00    0             0000000               4589930/10/2018             0                       0                       0                       0             
LS 201865 000008547102/10/2018190710GEN6075000009002157101/10/201830/10/201801/10/201804857461FACT ACH                 D3         38249  02 2000         38249000000208307             0                       0                       0                       0                       0             
LS 201865 000008547102/10/2018190710TVA4456600009002157101/10/201830/10/201801/10/201804857461TVA FACT ACH             D3          7650  02 2000         38249000000                   0                       0                       0                       0                       0             
LS 201865 000008547102/10/2018190710FSR4011000009002157101/10/201822/10/201801/10/201804857460FACT ACH  4598339-BIANCHIC3        193432VI00    0             0000000              19343222/10/2018             0                       0                       0                       0             
LS 201865 000008547102/10/2018190710GEN6075000009002157101/10/201822/10/201801/10/201804857460FACT ACH                 D3        166280  07 1000        166280000000100309             0                       0                       0                       0                       0             
LS 201865 000008547102/10/2018190710GEN6075000009002157101/10/201822/10/201801/10/201804857460FACT ACH                 D3          8072  02 2000          8072000000100309             0                       0                       0                       0                       0             
LS 201865 000008547102/10/2018190710TVA4456600009002157101/10/201822/10/201801/10/201804857460TVA FACT ACH             D3          3289  02 2000         16446000000                   0                       0                       0                       0                       0             
LS 201865 000008547102/10/2018190710TVA4456600009002157101/10/201822/10/201801/10/201804857460TVA FACT ACH             D3         15791  07 1000        157906000000                   0                       0                       0                       0                       0             
LS 201865 000008547102/10/2018190710FSR4011000009002157101/10/201822/10/201801/10/201804857462FACT ACH  4598341-BIANCHIC3        152613VI00    0             0000000              15261322/10/2018             0                       0                       0                       0             
LS 201865 000008547102/10/2018190710GEN6075000009002157101/10/201822/10/201801/10/201804857462FACT ACH                 D3        138739  07 1000        138739000000243309             0                       0                       0                       0                       0             
LS 201865 000008547102/10/2018190710TVA4456600009002157101/10/201822/10/201801/10/201804857462TVA FACT ACH             D3         13874  07 1000        138739000000                   0                       0                       0                       0                       0             
LS 201865 000008547102/10/2018190710FSR4011000009002157101/10/201830/10/201801/10/201804857463FACT ACH  4564511-CERDYS C3         90119VI00    0             0000000               9011930/10/2018             0                       0                       0                       0             
LS 201865 000008547102/10/2018190710GEN6075000009002157101/10/201830/10/201801/10/201804857463FACT ACH                 D3         81926  07 1000         81926000000100309             0                       0                       0                       0                       0             
LS 201865 000008547102/10/2018190710TVA4456600009002157101/10/201830/10/201801/10/201804857463TVA FACT ACH             D3          8193  07 1000         81926000000                   0                       0                       0                       0                       0             
LS 201865 000008547102/10/2018190711FSR4011000009002157101/10/201822/10/201801/10/201804857464FACT ACH  4598343-BIANCHIC3         84922VI00    0             0000000               8492222/10/2018             0                       0                       0                       0             
LS 201865 000008547102/10/2018190711GEN6075000009002157101/10/201822/10/201801/10/201804857464FACT ACH                 D3         77202  07 1000         77202000000171309             0                       0                       0                       0                       0             
LS 201865 000008547102/10/2018190711TVA4456600009002157101/10/201822/10/201801/10/201804857464TVA FACT ACH             D3          7720  07 1000         77202000000                   0                       0                       0                       0                       0             
LS 201865 000008547102/10/2018190711FSR4011000009002157101/10/201822/10/201801/10/201804857465FACT ACH  4598345-BIANCHIC3        135761VI00    0             0000000              13576122/10/2018             0                       0                       0                       0             
LS 201865 000008547102/10/2018190711GEN6075000009002157101/10/201822/10/201801/10/201804857465FACT ACH                 D3        123419  07 1000        123419000000243309             0                       0                       0                       0                       0             
LS 201865 000008547102/10/2018190711TVA4456600009002157101/10/201822/10/201801/10/201804857465TVA FACT ACH             D3         12342  07 1000        123419000000                   0                       0                       0                       0                       0             
LS 201865 000008547102/10/2018190711FSR4011000009002157101/10/201822/10/201801/10/201804857466FACT ACH  4598332-BIANCHIC3         95506VI00    0             0000000               9550622/10/2018             0                       0                       0                       0             
LS 201865 000008547102/10/2018190711GEN6075000009002157101/10/201822/10/201801/10/201804857466FACT ACH                 D3         86824  07 1000         86824000000116309             0                       0                       0                       0                       0             
LS 201865 000008547102/10/2018190711TVA4456600009002157101/10/201822/10/201801/10/201804857466TVA FACT ACH             D3          8682  07 1000         86824000000                   0                       0                       0                       0                       0             
LS 201865 000008547102/10/2018190711FSR4011000009002157101/10/201822/10/201801/10/201804857468FACT ACH  4598330-BIANCHIC3        186412VI00    0             0000000              18641222/10/2018             0                       0                       0                       0             
LS 201865 000008547102/10/2018190711GEN6075000009002157101/10/201822/10/201801/10/201804857468FACT ACH                 D3        162337  07 1000        162337000000304309             0                       0                       0                       0                       0             
LS 201865 000008547102/10/2018190711GEN6075000009002157101/10/201822/10/201801/10/201804857468FACT ACH                 D3          7128  02 2000          7128000000304309             0                       0                       0                       0                       0             
LS 201865 000008547102/10/2018190711TVA4456600009002157101/10/201822/10/201801/10/201804857468TVA FACT ACH             D3         16947  07 1000        169465000000                   0                       0                       0                       0                       0             
LS 201865 000008547102/10/2018190711FSR4011000009002157101/10/201831/10/201801/10/201804857469FACT ACH  4599086-PRIMAGAC3         24046VI00    0             0000000               2404631/10/2018             0                       0                       0                       0             
LS 201865 000008547102/10/2018190711GEN6075000009002157101/10/201831/10/201801/10/201804857469FACT ACH                 D3         20038  02 2000         20038000000139305             0                       0                       0                       0                       0             
LS 201865 000008547102/10/2018190711TVA4456600009002157101/10/201831/10/201801/10/201804857469TVA FACT ACH             D3          4008  02 2000         20038000000                   0                       0                       0                       0                       0             
LS 201865 000008547102/10/2018190711FSR4011000009002157101/10/201815/10/201801/10/201804857470AVO ACH  4605431-RAPAPORTD3          5934VI00    0             0000000                593415/10/2018             0                       0                       0                       0             
LS 201865 000008547102/10/2018190711GEN6075000009002157101/10/201815/10/201801/10/201804857470AVO ACH                  C3          5550  07 1000          5550000000168309             0                       0                       0                       0                       0             
LS 201865 000008547102/10/2018190711TVA4456600009002157101/10/201815/10/201801/10/201804857470TVA AVO ACH              C3           210  03  550          3815000000                   0                       0                       0                       0                       0             
LS 201865 000008547102/10/2018190711TVA4456600009002157101/10/201815/10/201801/10/201804857470TVA AVO ACH              C3           174  07 1000          1735000000                   0                       0                       0                       0                       0             
LS 201865 000008547102/10/2018190711FSR4011000009002157101/10/201830/11/201801/10/201804857471AVO ACH  4607068-CERDYS  D3          1810VI00    0             0000000                181030/11/2018             0                       0                       0                       0             
LS 201865 000008547102/10/2018190711GEN6075000009002157101/10/201830/11/201801/10/201804857471AVO ACH                  C3          1645  07 1000          1645000000246309             0                       0                       0                       0                       0             
LS 201865 000008547102/10/2018190711TVA4456600009002157101/10/201830/11/201801/10/201804857471TVA AVO ACH              C3           165  07 1000          1645000000                   0                       0                       0                       0                       0             
LS 201865 000008547102/10/2018190711FSR4011000000219966301/10/201830/10/201801/10/201804857472FACT ACH  180973-MUSCAT  C3         37584VI00    0             0000000               3758430/10/2018             0                       0                       0                       0             
LS 201865 000008547102/10/2018190711GEN6075000000219966301/10/201830/10/201801/10/201804857472FACT ACH                 D3         31320  02 2000         31320000000265308             0                       0                       0                       0                       0             
LS 201865 000008547102/10/2018190711TVA4456600000219966301/10/201830/10/201801/10/201804857472TVA FACT ACH             D3          6264  02 2000         31320000000                   0                       0                       0                       0                       0             
LS 201865 000008547102/10/2018190711FSR4011000009002636201/10/201830/10/201801/10/201804857473FACT ACH  180642-GARRIGUEC3         13032VI00    0             0000000               1303230/10/2018             0                       0                       0                       0             
LS 201865 000008547102/10/2018190711GEN6075000009002636201/10/201830/10/201801/10/201804857473FACT ACH                 D3         10860  02 2000         10860000000265308             0                       0                       0                       0                       0             
LS 201865 000008547102/10/2018190711TVA4456600009002636201/10/201830/10/201801/10/201804857473TVA FACT ACH             D3          2172  02 2000         10860000000                   0                       0                       0                       0                       0             
LS 201865 000008547102/10/2018190711FSR4011000009060043901/10/201830/11/201801/10/201804857478FACT ACH  7100445370-STIHC3         26513VI00    0             0000000               2651330/11/2018             0                       0                       0                       0             
LS 201865 000008547102/10/2018190711GEN6075000009060043901/10/201830/11/201801/10/201804857478FACT ACH                 D3         16222  02 2000         16222000000304302             0                       0                       0                       0                       0             
LS 201865 000008547102/10/2018190711GEN6075000009060043901/10/201830/11/201801/10/201804857478FACT ACH                 D3          4372  02 2000          4372000000304304             0                       0                       0                       0                       0             
LS 201865 000008547102/10/2018190711GEN6075000009060043901/10/201830/11/201801/10/201804857478FACT ACH                 D3          1500  02 2000          1500000000304310             0                       0                       0                       0                       0             
LS 201865 000008547102/10/2018190711TVA4456600009060043901/10/201830/11/201801/10/201804857478TVA FACT ACH             D3          4419  02 2000         22094000000                   0                       0                       0                       0                       0             
LS 201865 000008547102/10/2018190711FSR4011000009002155401/10/201830/10/201801/10/201804857480FACT ACH  113456-CAVE MALC3         10037VI00    0             0000000               1003730/10/2018             0                       0                       0                       0             
LS 201865 000008547102/10/2018190711GEN6075000009002155401/10/201830/10/201801/10/201804857480FACT ACH                 D3          8364  02 2000          8364000000265308             0                       0                       0                       0                       0             
LS 201865 000008547102/10/2018190711TVA4456600009002155401/10/201830/10/201801/10/201804857480TVA FACT ACH             D3          1673  02 2000          8364000000                   0                       0                       0                       0                       0             
LS 201865 000008547102/10/2018190711FSR4011000009060056901/10/201830/10/201801/10/201804857484FACT ACH  190179-ROC FONVC3         30661VI00    0             0000000               3066130/10/2018             0                       0                       0                       0             
LS 201865 000008547102/10/2018190711GEN6075000009060056901/10/201830/10/201801/10/201804857484FACT ACH                 D3         25551  02 2000         25551000000146308             0                       0                       0                       0                       0             
